{"contracts/Factory.sol":{"Factory":{"abi":[{"inputs":[],"stateMutability":"nonpayable","type":"constructor"},{"inputs":[{"internalType":"uint256","name":"","type":"uint256"}],"name":"ContractArrayTypeF","outputs":[{"internalType":"contract Contract","name":"","type":"address"}],"stateMutability":"view","type":"function"},{"inputs":[{"internalType":"uint256","name":"","type":"uint256"}],"name":"ContractArrayTypeP","outputs":[{"internalType":"contract Contract","name":"","type":"address"}],"stateMutability":"view","type":"function"},{"inputs":[{"internalType":"uint256","name":"","type":"uint256"}],"name":"ContractArrayTypeS","outputs":[{"internalType":"contract Contract","name":"","type":"address"}],"stateMutability":"view","type":"function"},{"inputs":[{"internalType":"enum VendorType","name":"vendorType","type":"uint8"},{"internalType":"string","name":"nameOfTheContract","type":"string"},{"internalType":"string","name":"good","type":"string"}],"name":"CreateNewContract","outputs":[{"internalType":"address","name":"","type":"address"}],"stateMutability":"nonpayable","type":"function"},{"inputs":[{"internalType":"uint256","name":"index","type":"uint256"}],"name":"getContractP","outputs":[{"internalType":"address","name":"","type":"address"}],"stateMutability":"view","type":"function"},{"inputs":[],"name":"numberOfFactories","outputs":[{"internalType":"int256","name":"","type":"int256"}],"stateMutability":"view","type":"function"},{"inputs":[],"name":"numberOfProducers","outputs":[{"internalType":"int256","name":"","type":"int256"}],"stateMutability":"view","type":"function"},{"inputs":[],"name":"numberOfShops","outputs":[{"internalType":"int256","name":"","type":"int256"}],"stateMutability":"view","type":"function"},{"inputs":[],"name":"owner","outputs":[{"internalType":"address","name":"","type":"address"}],"stateMutability":"view","type":"function"}],"evm":{"bytecode":{"linkReferences":{},"object":"608060405234801561001057600080fd5b50336000806101000a81548173ffffffffffffffffffffffffffffffffffffffff021916908373ffffffffffffffffffffffffffffffffffffffff160217905550613981806100606000396000f3fe60806040523480156200001157600080fd5b5060043610620000a05760003560e01c8063770fe267116200006f578063770fe26714620001695780638da5cb5b146200018b5780639c9145d514620001ad578063cfe7e7d714620001cf578063f9c7e45e146200020557620000a0565b8063081a578714620000a557806342a1a3a814620000db57806345e1976b14620001115780635ea5bc731462000133575b600080fd5b620000c36004803603810190620000bd9190620007fc565b6200023b565b604051620000d29190620008db565b60405180910390f35b620000f96004803603810190620000f3919062000933565b62000446565b604051620001089190620009d0565b60405180910390f35b6200011b62000486565b6040516200012a919062000a08565b60405180910390f35b6200015160048036038101906200014b919062000933565b6200048c565b604051620001609190620008db565b60405180910390f35b62000173620004d7565b60405162000182919062000a08565b60405180910390f35b62000195620004dd565b604051620001a49190620008db565b60405180910390f35b620001b762000501565b604051620001c6919062000a08565b60405180910390f35b620001ed6004803603810190620001e7919062000933565b62000507565b604051620001fc9190620009d0565b60405180910390f35b6200022360048036038101906200021d919062000933565b62000547565b604051620002329190620009d0565b60405180910390f35b60008033858585604051620002509062000650565b6200025f949392919062000b53565b604051809103906000f0801580156200027c573d6000803e3d6000fd5b5090506000600281111562000296576200029562000a4a565b5b856002811115620002ac57620002ab62000a4a565b5b0362000316576001819080600181540180825580915050600190039060005260206000200160009091909190916101000a81548173ffffffffffffffffffffffffffffffffffffffff021916908373ffffffffffffffffffffffffffffffffffffffff1602179055505b600160028111156200032d576200032c62000a4a565b5b85600281111562000343576200034262000a4a565b5b03620003b2576003819080600181540180825580915050600190039060005260206000200160009091909190916101000a81548173ffffffffffffffffffffffffffffffffffffffff021916908373ffffffffffffffffffffffffffffffffffffffff16021790555062000416565b6005819080600181540180825580915050600190039060005260206000200160009091909190916101000a81548173ffffffffffffffffffffffffffffffffffffffff021916908373ffffffffffffffffffffffffffffffffffffffff1602179055505b6200043b60405180606001604052806028815260200162003924602891398262000587565b809150509392505050565b600381815481106200045757600080fd5b906000526020600020016000915054906101000a900473ffffffffffffffffffffffffffffffffffffffff1681565b60025481565b600060018281548110620004a557620004a462000bae565b5b9060005260206000200160009054906101000a900473ffffffffffffffffffffffffffffffffffffffff169050919050565b60045481565b60008054906101000a900473ffffffffffffffffffffffffffffffffffffffff1681565b60065481565b600181815481106200051857600080fd5b906000526020600020016000915054906101000a900473ffffffffffffffffffffffffffffffffffffffff1681565b600581815481106200055857600080fd5b906000526020600020016000915054906101000a900473ffffffffffffffffffffffffffffffffffffffff1681565b620006238282604051602401620005a092919062000bdd565b6040516020818303038152906040527f319af333000000000000000000000000000000000000000000000000000000007bffffffffffffffffffffffffffffffffffffffffffffffffffffffff19166020820180517bffffffffffffffffffffffffffffffffffffffffffffffffffffffff838183161783525050505062000627565b5050565b60008151905060006a636f6e736f6c652e6c6f679050602083016000808483855afa5050505050565b612d128062000c1283390190565b6000604051905090565b600080fd5b600080fd5b600381106200068057600080fd5b50565b600081359050620006948162000672565b92915050565b600080fd5b600080fd5b6000601f19601f8301169050919050565b7f4e487b7100000000000000000000000000000000000000000000000000000000600052604160045260246000fd5b620006ef82620006a4565b810181811067ffffffffffffffff82111715620007115762000710620006b5565b5b80604052505050565b6000620007266200065e565b9050620007348282620006e4565b919050565b600067ffffffffffffffff821115620007575762000756620006b5565b5b6200076282620006a4565b9050602081019050919050565b82818337600083830152505050565b6000620007956200078f8462000739565b6200071a565b905082815260208101848484011115620007b457620007b36200069f565b5b620007c18482856200076f565b509392505050565b600082601f830112620007e157620007e06200069a565b5b8135620007f38482602086016200077e565b91505092915050565b60008060006060848603121562000818576200081762000668565b5b6000620008288682870162000683565b935050602084013567ffffffffffffffff8111156200084c576200084b6200066d565b5b6200085a86828701620007c9565b925050604084013567ffffffffffffffff8111156200087e576200087d6200066d565b5b6200088c86828701620007c9565b9150509250925092565b600073ffffffffffffffffffffffffffffffffffffffff82169050919050565b6000620008c38262000896565b9050919050565b620008d581620008b6565b82525050565b6000602082019050620008f26000830184620008ca565b92915050565b6000819050919050565b6200090d81620008f8565b81146200091957600080fd5b50565b6000813590506200092d8162000902565b92915050565b6000602082840312156200094c576200094b62000668565b5b60006200095c848285016200091c565b91505092915050565b6000819050919050565b6000620009906200098a620009848462000896565b62000965565b62000896565b9050919050565b6000620009a4826200096f565b9050919050565b6000620009b88262000997565b9050919050565b620009ca81620009ab565b82525050565b6000602082019050620009e76000830184620009bf565b92915050565b6000819050919050565b62000a0281620009ed565b82525050565b600060208201905062000a1f6000830184620009f7565b92915050565b600062000a328262000896565b9050919050565b62000a448162000a25565b82525050565b7f4e487b7100000000000000000000000000000000000000000000000000000000600052602160045260246000fd5b6003811062000a8d5762000a8c62000a4a565b5b50565b600081905062000aa08262000a79565b919050565b600062000ab28262000a90565b9050919050565b62000ac48162000aa5565b82525050565b600081519050919050565b600082825260208201905092915050565b60005b8381101562000b0657808201518184015260208101905062000ae9565b60008484015250505050565b600062000b1f8262000aca565b62000b2b818562000ad5565b935062000b3d81856020860162000ae6565b62000b4881620006a4565b840191505092915050565b600060808201905062000b6a600083018762000a39565b62000b79602083018662000ab9565b818103604083015262000b8d818562000b12565b9050818103606083015262000ba3818462000b12565b905095945050505050565b7f4e487b7100000000000000000000000000000000000000000000000000000000600052603260045260246000fd5b6000604082019050818103600083015262000bf9818562000b12565b905062000c0a6020830184620008ca565b939250505056fe60806040523480156200001157600080fd5b5060405162002d1238038062002d128339818101604052810190620000379190620003d1565b6040518060400160405280600881526020017f446576546f6b656e0000000000000000000000000000000000000000000000008152506040518060400160405280600381526020017f44565400000000000000000000000000000000000000000000000000000000008152508160039081620000b49190620006cc565b508060049081620000c69190620006cc565b5050508361020160006101000a81548173ffffffffffffffffffffffffffffffffffffffff021916908373ffffffffffffffffffffffffffffffffffffffff16021790555082600660006101000a81548160ff02191690836002811115620001335762000132620007b3565b5b021790555060006101fc819055503361020260006101000a81548173ffffffffffffffffffffffffffffffffffffffff021916908373ffffffffffffffffffffffffffffffffffffffff1602179055508160059081620001949190620006cc565b508060079081620001a69190620006cc565b5050505050620007e2565b6000604051905090565b600080fd5b600080fd5b600073ffffffffffffffffffffffffffffffffffffffff82169050919050565b6000620001f282620001c5565b9050919050565b6200020481620001e5565b81146200021057600080fd5b50565b6000815190506200022481620001f9565b92915050565b600381106200023857600080fd5b50565b6000815190506200024c816200022a565b92915050565b600080fd5b600080fd5b6000601f19601f8301169050919050565b7f4e487b7100000000000000000000000000000000000000000000000000000000600052604160045260246000fd5b620002a7826200025c565b810181811067ffffffffffffffff82111715620002c957620002c86200026d565b5b80604052505050565b6000620002de620001b1565b9050620002ec82826200029c565b919050565b600067ffffffffffffffff8211156200030f576200030e6200026d565b5b6200031a826200025c565b9050602081019050919050565b60005b83811015620003475780820151818401526020810190506200032a565b60008484015250505050565b60006200036a6200036484620002f1565b620002d2565b90508281526020810184848401111562000389576200038862000257565b5b6200039684828562000327565b509392505050565b600082601f830112620003b657620003b562000252565b5b8151620003c884826020860162000353565b91505092915050565b60008060008060808587031215620003ee57620003ed620001bb565b5b6000620003fe8782880162000213565b945050602062000411878288016200023b565b935050604085015167ffffffffffffffff811115620004355762000434620001c0565b5b62000443878288016200039e565b925050606085015167ffffffffffffffff811115620004675762000466620001c0565b5b62000475878288016200039e565b91505092959194509250565b600081519050919050565b7f4e487b7100000000000000000000000000000000000000000000000000000000600052602260045260246000fd5b60006002820490506001821680620004d457607f821691505b602082108103620004ea57620004e96200048c565b5b50919050565b60008190508160005260206000209050919050565b60006020601f8301049050919050565b600082821b905092915050565b600060088302620005547fffffffffffffffffffffffffffffffffffffffffffffffffffffffffffffffff8262000515565b62000560868362000515565b95508019841693508086168417925050509392505050565b6000819050919050565b6000819050919050565b6000620005ad620005a7620005a18462000578565b62000582565b62000578565b9050919050565b6000819050919050565b620005c9836200058c565b620005e1620005d882620005b4565b84845462000522565b825550505050565b600090565b620005f8620005e9565b62000605818484620005be565b505050565b5b818110156200062d5762000621600082620005ee565b6001810190506200060b565b5050565b601f8211156200067c576200064681620004f0565b620006518462000505565b8101602085101562000661578190505b62000679620006708562000505565b8301826200060a565b50505b505050565b600082821c905092915050565b6000620006a16000198460080262000681565b1980831691505092915050565b6000620006bc83836200068e565b9150826002028217905092915050565b620006d78262000481565b67ffffffffffffffff811115620006f357620006f26200026d565b5b620006ff8254620004bb565b6200070c82828562000631565b600060209050601f8311600181146200074457600084156200072f578287015190505b6200073b8582620006ae565b865550620007ab565b601f1984166200075486620004f0565b60005b828110156200077e5784890151825560018201915060208501945060208101905062000757565b868310156200079e57848901516200079a601f8916826200068e565b8355505b6001600288020188555050505b505050505050565b7f4e487b7100000000000000000000000000000000000000000000000000000000600052602160045260246000fd5b61252080620007f26000396000f3fe608060405234801561001057600080fd5b50600436106101425760003560e01c806393b2e054116100b8578063a9059cbb1161007c578063a9059cbb146103c1578063aa8fb40b146103f1578063b521cc8e1461040f578063be0f13921461042b578063dd62ed3e14610447578063e74a84ea1461047757610142565b806393b2e054146102ef57806394fca80e1461032357806395d89b411461033f578063a457c2d71461035d578063a85c38ef1461038d57610142565b80632ac9e0b31161010a5780632ac9e0b314610201578063313ce56714610235578063395093511461025357806370a0823114610283578063893d20e8146102b35780638da5cb5b146102d157610142565b806306fdde0314610147578063095ea7b31461016557806318160ddd146101955780631e361901146101b357806323b872dd146101d1575b600080fd5b61014f610493565b60405161015c919061169f565b60405180910390f35b61017f600480360381019061017a9190611769565b610525565b60405161018c91906117c4565b60405180910390f35b61019d610548565b6040516101aa91906117ee565b60405180910390f35b6101bb610552565b6040516101c8919061169f565b60405180910390f35b6101eb60048036038101906101e69190611809565b6105e0565b6040516101f891906117c4565b60405180910390f35b61021b6004803603810190610216919061185c565b61060f565b60405161022c959493929190611889565b60405180910390f35b61023d610756565b60405161024a9190611906565b60405180910390f35b61026d60048036038101906102689190611769565b61075f565b60405161027a91906117c4565b60405180910390f35b61029d60048036038101906102989190611921565b610796565b6040516102aa91906117ee565b60405180910390f35b6102bb6107de565b6040516102c8919061195d565b60405180910390f35b6102d9610809565b6040516102e69190611999565b60405180910390f35b6103096004803603810190610304919061185c565b610830565b60405161031a959493929190611889565b60405180910390f35b61033d60048036038101906103389190611ae9565b610977565b005b610347610a83565b604051610354919061169f565b60405180910390f35b61037760048036038101906103729190611769565b610b15565b60405161038491906117c4565b60405180910390f35b6103a760048036038101906103a2919061185c565b610b8c565b6040516103b8959493929190611889565b60405180910390f35b6103db60048036038101906103d69190611769565b610cd8565b6040516103e891906117c4565b60405180910390f35b6103f9610cfb565b604051610406919061169f565b60405180910390f35b61042960048036038101906104249190611b9c565b610d89565b005b61044560048036038101906104409190611bf8565b610e38565b005b610461600480360381019061045c9190611c38565b610f18565b60405161046e91906117ee565b60405180910390f35b610491600480360381019061048c9190611769565b610f9f565b005b6060600380546104a290611ca7565b80601f01602080910402602001604051908101604052809291908181526020018280546104ce90611ca7565b801561051b5780601f106104f05761010080835404028352916020019161051b565b820191906000526020600020905b8154815290600101906020018083116104fe57829003601f168201915b5050505050905090565b600080610530610fad565b905061053d818585610fb5565b600191505092915050565b6000600254905090565b6005805461055f90611ca7565b80601f016020809104026020016040519081016040528092919081815260200182805461058b90611ca7565b80156105d85780601f106105ad576101008083540402835291602001916105d8565b820191906000526020600020905b8154815290600101906020018083116105bb57829003601f168201915b505050505081565b6000806105eb610fad565b90506105f885828561117e565b61060385858561120a565b60019150509392505050565b6101fd60205280600052604060002060009150905080600001805461063390611ca7565b80601f016020809104026020016040519081016040528092919081815260200182805461065f90611ca7565b80156106ac5780601f10610681576101008083540402835291602001916106ac565b820191906000526020600020905b81548152906001019060200180831161068f57829003601f168201915b5050505050908060010180546106c190611ca7565b80601f01602080910402602001604051908101604052809291908181526020018280546106ed90611ca7565b801561073a5780601f1061070f5761010080835404028352916020019161073a565b820191906000526020600020905b81548152906001019060200180831161071d57829003601f168201915b5050505050908060020154908060030154908060040154905085565b60006012905090565b60008061076a610fad565b905061078b81858561077c8589610f18565b6107869190611d07565b610fb5565b600191505092915050565b60008060008373ffffffffffffffffffffffffffffffffffffffff1673ffffffffffffffffffffffffffffffffffffffff168152602001908152602001600020549050919050565b600061020160009054906101000a900473ffffffffffffffffffffffffffffffffffffffff16905090565b61020160009054906101000a900473ffffffffffffffffffffffffffffffffffffffff1681565b6101fe60205280600052604060002060009150905080600001805461085490611ca7565b80601f016020809104026020016040519081016040528092919081815260200182805461088090611ca7565b80156108cd5780601f106108a2576101008083540402835291602001916108cd565b820191906000526020600020905b8154815290600101906020018083116108b057829003601f168201915b5050505050908060010180546108e290611ca7565b80601f016020809104026020016040519081016040528092919081815260200182805461090e90611ca7565b801561095b5780601f106109305761010080835404028352916020019161095b565b820191906000526020600020905b81548152906001019060200180831161093e57829003601f168201915b5050505050908060020154908060030154908060040154905085565b61020160009054906101000a900473ffffffffffffffffffffffffffffffffffffffff1673ffffffffffffffffffffffffffffffffffffffff163373ffffffffffffffffffffffffffffffffffffffff16146109d257600080fd5b60006040518060a00160405280878152602001848152602001868152602001858152602001838152509050806101fd60006101fc5481526020019081526020016000206000820151816000019081610a2a9190611ee7565b506020820151816001019081610a409190611ee7565b506040820151816002015560608201518160030155608082015181600401559050506101fc6000815480929190610a7690611fb9565b9190505550505050505050565b606060048054610a9290611ca7565b80601f0160208091040260200160405190810160405280929190818152602001828054610abe90611ca7565b8015610b0b5780601f10610ae057610100808354040283529160200191610b0b565b820191906000526020600020905b815481529060010190602001808311610aee57829003601f168201915b5050505050905090565b600080610b20610fad565b90506000610b2e8286610f18565b905083811015610b73576040517f08c379a0000000000000000000000000000000000000000000000000000000008152600401610b6a90612073565b60405180910390fd5b610b808286868403610fb5565b60019250505092915050565b60088160648110610b9c57600080fd5b60050201600091509050806000018054610bb590611ca7565b80601f0160208091040260200160405190810160405280929190818152602001828054610be190611ca7565b8015610c2e5780601f10610c0357610100808354040283529160200191610c2e565b820191906000526020600020905b815481529060010190602001808311610c1157829003601f168201915b505050505090806001018054610c4390611ca7565b80601f0160208091040260200160405190810160405280929190818152602001828054610c6f90611ca7565b8015610cbc5780601f10610c9157610100808354040283529160200191610cbc565b820191906000526020600020905b815481529060010190602001808311610c9f57829003601f168201915b5050505050908060020154908060030154908060040154905085565b600080610ce3610fad565b9050610cf081858561120a565b600191505092915050565b60078054610d0890611ca7565b80601f0160208091040260200160405190810160405280929190818152602001828054610d3490611ca7565b8015610d815780601f10610d5657610100808354040283529160200191610d81565b820191906000526020600020905b815481529060010190602001808311610d6457829003601f168201915b505050505081565b6064610200541015610e3457610d9d6115e0565b828160000181905250818160800181815250508060086102005460648110610dc857610dc7612093565b5b600502016000820151816000019081610de19190611ee7565b506020820151816001019081610df79190611ee7565b506040820151816002015560608201518160030155608082015181600401559050506102006000815480929190610e2d90611fb9565b9190505550505b5050565b8181806101fd60008481526020019081526020016000206004015411610e5d57600080fd5b826101fd6000868152602001908152602001600020600401541115610f125760006101fd60008681526020019081526020016000206003015484610ea191906120c2565b9050610ed13361020160009054906101000a900473ffffffffffffffffffffffffffffffffffffffff16836105e0565b50836101fd600087815260200190815260200160002060040154610ef59190612104565b6101fd600087815260200190815260200160002060040181905550505b50505050565b6000600160008473ffffffffffffffffffffffffffffffffffffffff1673ffffffffffffffffffffffffffffffffffffffff16815260200190815260200160002060008373ffffffffffffffffffffffffffffffffffffffff1673ffffffffffffffffffffffffffffffffffffffff16815260200190815260200160002054905092915050565b610fa98282611480565b5050565b600033905090565b600073ffffffffffffffffffffffffffffffffffffffff168373ffffffffffffffffffffffffffffffffffffffff1603611024576040517f08c379a000000000000000000000000000000000000000000000000000000000815260040161101b906121aa565b60405180910390fd5b600073ffffffffffffffffffffffffffffffffffffffff168273ffffffffffffffffffffffffffffffffffffffff1603611093576040517f08c379a000000000000000000000000000000000000000000000000000000000815260040161108a9061223c565b60405180910390fd5b80600160008573ffffffffffffffffffffffffffffffffffffffff1673ffffffffffffffffffffffffffffffffffffffff16815260200190815260200160002060008473ffffffffffffffffffffffffffffffffffffffff1673ffffffffffffffffffffffffffffffffffffffff168152602001908152602001600020819055508173ffffffffffffffffffffffffffffffffffffffff168373ffffffffffffffffffffffffffffffffffffffff167f8c5be1e5ebec7d5bd14f71427d1e84f3dd0314c0f7b2291e5b200ac8c7c3b9258360405161117191906117ee565b60405180910390a3505050565b600061118a8484610f18565b90507fffffffffffffffffffffffffffffffffffffffffffffffffffffffffffffffff811461120457818110156111f6576040517f08c379a00000000000000000000000000000000000000000000000000000000081526004016111ed906122a8565b60405180910390fd5b6112038484848403610fb5565b5b50505050565b600073ffffffffffffffffffffffffffffffffffffffff168373ffffffffffffffffffffffffffffffffffffffff1603611279576040517f08c379a00000000000000000000000000000000000000000000000000000000081526004016112709061233a565b60405180910390fd5b600073ffffffffffffffffffffffffffffffffffffffff168273ffffffffffffffffffffffffffffffffffffffff16036112e8576040517f08c379a00000000000000000000000000000000000000000000000000000000081526004016112df906123cc565b60405180910390fd5b6112f38383836115d6565b60008060008573ffffffffffffffffffffffffffffffffffffffff1673ffffffffffffffffffffffffffffffffffffffff16815260200190815260200160002054905081811015611379576040517f08c379a00000000000000000000000000000000000000000000000000000000081526004016113709061245e565b60405180910390fd5b8181036000808673ffffffffffffffffffffffffffffffffffffffff1673ffffffffffffffffffffffffffffffffffffffff16815260200190815260200160002081905550816000808573ffffffffffffffffffffffffffffffffffffffff1673ffffffffffffffffffffffffffffffffffffffff168152602001908152602001600020600082825401925050819055508273ffffffffffffffffffffffffffffffffffffffff168473ffffffffffffffffffffffffffffffffffffffff167fddf252ad1be2c89b69c2b068fc378daa952ba7f163c4a11628f55a4df523b3ef8460405161146791906117ee565b60405180910390a361147a8484846115db565b50505050565b600073ffffffffffffffffffffffffffffffffffffffff168273ffffffffffffffffffffffffffffffffffffffff16036114ef576040517f08c379a00000000000000000000000000000000000000000000000000000000081526004016114e6906124ca565b60405180910390fd5b6114fb600083836115d6565b806002600082825461150d9190611d07565b92505081905550806000808473ffffffffffffffffffffffffffffffffffffffff1673ffffffffffffffffffffffffffffffffffffffff168152602001908152602001600020600082825401925050819055508173ffffffffffffffffffffffffffffffffffffffff16600073ffffffffffffffffffffffffffffffffffffffff167fddf252ad1be2c89b69c2b068fc378daa952ba7f163c4a11628f55a4df523b3ef836040516115be91906117ee565b60405180910390a36115d2600083836115db565b5050565b505050565b505050565b6040518060a0016040528060608152602001606081526020016000815260200160008152602001600081525090565b600081519050919050565b600082825260208201905092915050565b60005b8381101561164957808201518184015260208101905061162e565b60008484015250505050565b6000601f19601f8301169050919050565b60006116718261160f565b61167b818561161a565b935061168b81856020860161162b565b61169481611655565b840191505092915050565b600060208201905081810360008301526116b98184611666565b905092915050565b6000604051905090565b600080fd5b600080fd5b600073ffffffffffffffffffffffffffffffffffffffff82169050919050565b6000611700826116d5565b9050919050565b611710816116f5565b811461171b57600080fd5b50565b60008135905061172d81611707565b92915050565b6000819050919050565b61174681611733565b811461175157600080fd5b50565b6000813590506117638161173d565b92915050565b600080604083850312156117805761177f6116cb565b5b600061178e8582860161171e565b925050602061179f85828601611754565b9150509250929050565b60008115159050919050565b6117be816117a9565b82525050565b60006020820190506117d960008301846117b5565b92915050565b6117e881611733565b82525050565b600060208201905061180360008301846117df565b92915050565b600080600060608486031215611822576118216116cb565b5b60006118308682870161171e565b93505060206118418682870161171e565b925050604061185286828701611754565b9150509250925092565b600060208284031215611872576118716116cb565b5b600061188084828501611754565b91505092915050565b600060a08201905081810360008301526118a38188611666565b905081810360208301526118b78187611666565b90506118c660408301866117df565b6118d360608301856117df565b6118e060808301846117df565b9695505050505050565b600060ff82169050919050565b611900816118ea565b82525050565b600060208201905061191b60008301846118f7565b92915050565b600060208284031215611937576119366116cb565b5b60006119458482850161171e565b91505092915050565b611957816116f5565b82525050565b6000602082019050611972600083018461194e565b92915050565b6000611983826116d5565b9050919050565b61199381611978565b82525050565b60006020820190506119ae600083018461198a565b92915050565b600080fd5b600080fd5b7f4e487b7100000000000000000000000000000000000000000000000000000000600052604160045260246000fd5b6119f682611655565b810181811067ffffffffffffffff82111715611a1557611a146119be565b5b80604052505050565b6000611a286116c1565b9050611a3482826119ed565b919050565b600067ffffffffffffffff821115611a5457611a536119be565b5b611a5d82611655565b9050602081019050919050565b82818337600083830152505050565b6000611a8c611a8784611a39565b611a1e565b905082815260208101848484011115611aa857611aa76119b9565b5b611ab3848285611a6a565b509392505050565b600082601f830112611ad057611acf6119b4565b5b8135611ae0848260208601611a79565b91505092915050565b600080600080600060a08688031215611b0557611b046116cb565b5b600086013567ffffffffffffffff811115611b2357611b226116d0565b5b611b2f88828901611abb565b9550506020611b4088828901611754565b9450506040611b5188828901611754565b935050606086013567ffffffffffffffff811115611b7257611b716116d0565b5b611b7e88828901611abb565b9250506080611b8f88828901611754565b9150509295509295909350565b60008060408385031215611bb357611bb26116cb565b5b600083013567ffffffffffffffff811115611bd157611bd06116d0565b5b611bdd85828601611abb565b9250506020611bee85828601611754565b9150509250929050565b60008060408385031215611c0f57611c0e6116cb565b5b6000611c1d85828601611754565b9250506020611c2e85828601611754565b9150509250929050565b60008060408385031215611c4f57611c4e6116cb565b5b6000611c5d8582860161171e565b9250506020611c6e8582860161171e565b9150509250929050565b7f4e487b7100000000000000000000000000000000000000000000000000000000600052602260045260246000fd5b60006002820490506001821680611cbf57607f821691505b602082108103611cd257611cd1611c78565b5b50919050565b7f4e487b7100000000000000000000000000000000000000000000000000000000600052601160045260246000fd5b6000611d1282611733565b9150611d1d83611733565b9250828201905080821115611d3557611d34611cd8565b5b92915050565b60008190508160005260206000209050919050565b60006020601f8301049050919050565b600082821b905092915050565b600060088302611d9d7fffffffffffffffffffffffffffffffffffffffffffffffffffffffffffffffff82611d60565b611da78683611d60565b95508019841693508086168417925050509392505050565b6000819050919050565b6000611de4611ddf611dda84611733565b611dbf565b611733565b9050919050565b6000819050919050565b611dfe83611dc9565b611e12611e0a82611deb565b848454611d6d565b825550505050565b600090565b611e27611e1a565b611e32818484611df5565b505050565b5b81811015611e5657611e4b600082611e1f565b600181019050611e38565b5050565b601f821115611e9b57611e6c81611d3b565b611e7584611d50565b81016020851015611e84578190505b611e98611e9085611d50565b830182611e37565b50505b505050565b600082821c905092915050565b6000611ebe60001984600802611ea0565b1980831691505092915050565b6000611ed78383611ead565b9150826002028217905092915050565b611ef08261160f565b67ffffffffffffffff811115611f0957611f086119be565b5b611f138254611ca7565b611f1e828285611e5a565b600060209050601f831160018114611f515760008415611f3f578287015190505b611f498582611ecb565b865550611fb1565b601f198416611f5f86611d3b565b60005b82811015611f8757848901518255600182019150602085019450602081019050611f62565b86831015611fa45784890151611fa0601f891682611ead565b8355505b6001600288020188555050505b505050505050565b6000611fc482611733565b91507fffffffffffffffffffffffffffffffffffffffffffffffffffffffffffffffff8203611ff657611ff5611cd8565b5b600182019050919050565b7f45524332303a2064656372656173656420616c6c6f77616e63652062656c6f7760008201527f207a65726f000000000000000000000000000000000000000000000000000000602082015250565b600061205d60258361161a565b915061206882612001565b604082019050919050565b6000602082019050818103600083015261208c81612050565b9050919050565b7f4e487b7100000000000000000000000000000000000000000000000000000000600052603260045260246000fd5b60006120cd82611733565b91506120d883611733565b92508282026120e681611733565b915082820484148315176120fd576120fc611cd8565b5b5092915050565b600061210f82611733565b915061211a83611733565b925082820390508181111561213257612131611cd8565b5b92915050565b7f45524332303a20617070726f76652066726f6d20746865207a65726f2061646460008201527f7265737300000000000000000000000000000000000000000000000000000000602082015250565b600061219460248361161a565b915061219f82612138565b604082019050919050565b600060208201905081810360008301526121c381612187565b9050919050565b7f45524332303a20617070726f766520746f20746865207a65726f20616464726560008201527f7373000000000000000000000000000000000000000000000000000000000000602082015250565b600061222660228361161a565b9150612231826121ca565b604082019050919050565b6000602082019050818103600083015261225581612219565b9050919050565b7f45524332303a20696e73756666696369656e7420616c6c6f77616e6365000000600082015250565b6000612292601d8361161a565b915061229d8261225c565b602082019050919050565b600060208201905081810360008301526122c181612285565b9050919050565b7f45524332303a207472616e736665722066726f6d20746865207a65726f20616460008201527f6472657373000000000000000000000000000000000000000000000000000000602082015250565b600061232460258361161a565b915061232f826122c8565b604082019050919050565b6000602082019050818103600083015261235381612317565b9050919050565b7f45524332303a207472616e7366657220746f20746865207a65726f206164647260008201527f6573730000000000000000000000000000000000000000000000000000000000602082015250565b60006123b660238361161a565b91506123c18261235a565b604082019050919050565b600060208201905081810360008301526123e5816123a9565b9050919050565b7f45524332303a207472616e7366657220616d6f756e742065786365656473206260008201527f616c616e63650000000000000000000000000000000000000000000000000000602082015250565b600061244860268361161a565b9150612453826123ec565b604082019050919050565b600060208201905081810360008301526124778161243b565b9050919050565b7f45524332303a206d696e7420746f20746865207a65726f206164647265737300600082015250565b60006124b4601f8361161a565b91506124bf8261247e565b602082019050919050565b600060208201905081810360008301526124e3816124a7565b905091905056fea2646970667358221220f918e682cfd4a912a0847ac144e1c0167f519e201aaddee54410c67f62ceb8dc64736f6c634300081100335468652061646472657373206f6620746865206372656174656420636f6e74726163742069733a20a2646970667358221220c34da57346154be8776bfcc3f0bccbe0028e956d2b63de4543a037ccfb23087364736f6c63430008110033","opcodes":"PUSH1 0x80 PUSH1 0x40 MSTORE CALLVALUE DUP1 ISZERO PUSH2 0x10 JUMPI PUSH1 0x0 DUP1 REVERT JUMPDEST POP CALLER PUSH1 0x0 DUP1 PUSH2 0x100 EXP DUP2 SLOAD DUP2 PUSH20 0xFFFFFFFFFFFFFFFFFFFFFFFFFFFFFFFFFFFFFFFF MUL NOT AND SWAP1 DUP4 PUSH20 0xFFFFFFFFFFFFFFFFFFFFFFFFFFFFFFFFFFFFFFFF AND MUL OR SWAP1 SSTORE POP PUSH2 0x3981 DUP1 PUSH2 0x60 PUSH1 0x0 CODECOPY PUSH1 0x0 RETURN INVALID PUSH1 0x80 PUSH1 0x40 MSTORE CALLVALUE DUP1 ISZERO PUSH3 0x11 JUMPI PUSH1 0x0 DUP1 REVERT JUMPDEST POP PUSH1 0x4 CALLDATASIZE LT PUSH3 0xA0 JUMPI PUSH1 0x0 CALLDATALOAD PUSH1 0xE0 SHR DUP1 PUSH4 0x770FE267 GT PUSH3 0x6F JUMPI DUP1 PUSH4 0x770FE267 EQ PUSH3 0x169 JUMPI DUP1 PUSH4 0x8DA5CB5B EQ PUSH3 0x18B JUMPI DUP1 PUSH4 0x9C9145D5 EQ PUSH3 0x1AD JUMPI DUP1 PUSH4 0xCFE7E7D7 EQ PUSH3 0x1CF JUMPI DUP1 PUSH4 0xF9C7E45E EQ PUSH3 0x205 JUMPI PUSH3 0xA0 JUMP JUMPDEST DUP1 PUSH4 0x81A5787 EQ PUSH3 0xA5 JUMPI DUP1 PUSH4 0x42A1A3A8 EQ PUSH3 0xDB JUMPI DUP1 PUSH4 0x45E1976B EQ PUSH3 0x111 JUMPI DUP1 PUSH4 0x5EA5BC73 EQ PUSH3 0x133 JUMPI JUMPDEST PUSH1 0x0 DUP1 REVERT JUMPDEST PUSH3 0xC3 PUSH1 0x4 DUP1 CALLDATASIZE SUB DUP2 ADD SWAP1 PUSH3 0xBD SWAP2 SWAP1 PUSH3 0x7FC JUMP JUMPDEST PUSH3 0x23B JUMP JUMPDEST PUSH1 0x40 MLOAD PUSH3 0xD2 SWAP2 SWAP1 PUSH3 0x8DB JUMP JUMPDEST PUSH1 0x40 MLOAD DUP1 SWAP2 SUB SWAP1 RETURN JUMPDEST PUSH3 0xF9 PUSH1 0x4 DUP1 CALLDATASIZE SUB DUP2 ADD SWAP1 PUSH3 0xF3 SWAP2 SWAP1 PUSH3 0x933 JUMP JUMPDEST PUSH3 0x446 JUMP JUMPDEST PUSH1 0x40 MLOAD PUSH3 0x108 SWAP2 SWAP1 PUSH3 0x9D0 JUMP JUMPDEST PUSH1 0x40 MLOAD DUP1 SWAP2 SUB SWAP1 RETURN JUMPDEST PUSH3 0x11B PUSH3 0x486 JUMP JUMPDEST PUSH1 0x40 MLOAD PUSH3 0x12A SWAP2 SWAP1 PUSH3 0xA08 JUMP JUMPDEST PUSH1 0x40 MLOAD DUP1 SWAP2 SUB SWAP1 RETURN JUMPDEST PUSH3 0x151 PUSH1 0x4 DUP1 CALLDATASIZE SUB DUP2 ADD SWAP1 PUSH3 0x14B SWAP2 SWAP1 PUSH3 0x933 JUMP JUMPDEST PUSH3 0x48C JUMP JUMPDEST PUSH1 0x40 MLOAD PUSH3 0x160 SWAP2 SWAP1 PUSH3 0x8DB JUMP JUMPDEST PUSH1 0x40 MLOAD DUP1 SWAP2 SUB SWAP1 RETURN JUMPDEST PUSH3 0x173 PUSH3 0x4D7 JUMP JUMPDEST PUSH1 0x40 MLOAD PUSH3 0x182 SWAP2 SWAP1 PUSH3 0xA08 JUMP JUMPDEST PUSH1 0x40 MLOAD DUP1 SWAP2 SUB SWAP1 RETURN JUMPDEST PUSH3 0x195 PUSH3 0x4DD JUMP JUMPDEST PUSH1 0x40 MLOAD PUSH3 0x1A4 SWAP2 SWAP1 PUSH3 0x8DB JUMP JUMPDEST PUSH1 0x40 MLOAD DUP1 SWAP2 SUB SWAP1 RETURN JUMPDEST PUSH3 0x1B7 PUSH3 0x501 JUMP JUMPDEST PUSH1 0x40 MLOAD PUSH3 0x1C6 SWAP2 SWAP1 PUSH3 0xA08 JUMP JUMPDEST PUSH1 0x40 MLOAD DUP1 SWAP2 SUB SWAP1 RETURN JUMPDEST PUSH3 0x1ED PUSH1 0x4 DUP1 CALLDATASIZE SUB DUP2 ADD SWAP1 PUSH3 0x1E7 SWAP2 SWAP1 PUSH3 0x933 JUMP JUMPDEST PUSH3 0x507 JUMP JUMPDEST PUSH1 0x40 MLOAD PUSH3 0x1FC SWAP2 SWAP1 PUSH3 0x9D0 JUMP JUMPDEST PUSH1 0x40 MLOAD DUP1 SWAP2 SUB SWAP1 RETURN JUMPDEST PUSH3 0x223 PUSH1 0x4 DUP1 CALLDATASIZE SUB DUP2 ADD SWAP1 PUSH3 0x21D SWAP2 SWAP1 PUSH3 0x933 JUMP JUMPDEST PUSH3 0x547 JUMP JUMPDEST PUSH1 0x40 MLOAD PUSH3 0x232 SWAP2 SWAP1 PUSH3 0x9D0 JUMP JUMPDEST PUSH1 0x40 MLOAD DUP1 SWAP2 SUB SWAP1 RETURN JUMPDEST PUSH1 0x0 DUP1 CALLER DUP6 DUP6 DUP6 PUSH1 0x40 MLOAD PUSH3 0x250 SWAP1 PUSH3 0x650 JUMP JUMPDEST PUSH3 0x25F SWAP5 SWAP4 SWAP3 SWAP2 SWAP1 PUSH3 0xB53 JUMP JUMPDEST PUSH1 0x40 MLOAD DUP1 SWAP2 SUB SWAP1 PUSH1 0x0 CREATE DUP1 ISZERO DUP1 ISZERO PUSH3 0x27C JUMPI RETURNDATASIZE PUSH1 0x0 DUP1 RETURNDATACOPY RETURNDATASIZE PUSH1 0x0 REVERT JUMPDEST POP SWAP1 POP PUSH1 0x0 PUSH1 0x2 DUP2 GT ISZERO PUSH3 0x296 JUMPI PUSH3 0x295 PUSH3 0xA4A JUMP JUMPDEST JUMPDEST DUP6 PUSH1 0x2 DUP2 GT ISZERO PUSH3 0x2AC JUMPI PUSH3 0x2AB PUSH3 0xA4A JUMP JUMPDEST JUMPDEST SUB PUSH3 0x316 JUMPI PUSH1 0x1 DUP2 SWAP1 DUP1 PUSH1 0x1 DUP2 SLOAD ADD DUP1 DUP3 SSTORE DUP1 SWAP2 POP POP PUSH1 0x1 SWAP1 SUB SWAP1 PUSH1 0x0 MSTORE PUSH1 0x20 PUSH1 0x0 KECCAK256 ADD PUSH1 0x0 SWAP1 SWAP2 SWAP1 SWAP2 SWAP1 SWAP2 PUSH2 0x100 EXP DUP2 SLOAD DUP2 PUSH20 0xFFFFFFFFFFFFFFFFFFFFFFFFFFFFFFFFFFFFFFFF MUL NOT AND SWAP1 DUP4 PUSH20 0xFFFFFFFFFFFFFFFFFFFFFFFFFFFFFFFFFFFFFFFF AND MUL OR SWAP1 SSTORE POP JUMPDEST PUSH1 0x1 PUSH1 0x2 DUP2 GT ISZERO PUSH3 0x32D JUMPI PUSH3 0x32C PUSH3 0xA4A JUMP JUMPDEST JUMPDEST DUP6 PUSH1 0x2 DUP2 GT ISZERO PUSH3 0x343 JUMPI PUSH3 0x342 PUSH3 0xA4A JUMP JUMPDEST JUMPDEST SUB PUSH3 0x3B2 JUMPI PUSH1 0x3 DUP2 SWAP1 DUP1 PUSH1 0x1 DUP2 SLOAD ADD DUP1 DUP3 SSTORE DUP1 SWAP2 POP POP PUSH1 0x1 SWAP1 SUB SWAP1 PUSH1 0x0 MSTORE PUSH1 0x20 PUSH1 0x0 KECCAK256 ADD PUSH1 0x0 SWAP1 SWAP2 SWAP1 SWAP2 SWAP1 SWAP2 PUSH2 0x100 EXP DUP2 SLOAD DUP2 PUSH20 0xFFFFFFFFFFFFFFFFFFFFFFFFFFFFFFFFFFFFFFFF MUL NOT AND SWAP1 DUP4 PUSH20 0xFFFFFFFFFFFFFFFFFFFFFFFFFFFFFFFFFFFFFFFF AND MUL OR SWAP1 SSTORE POP PUSH3 0x416 JUMP JUMPDEST PUSH1 0x5 DUP2 SWAP1 DUP1 PUSH1 0x1 DUP2 SLOAD ADD DUP1 DUP3 SSTORE DUP1 SWAP2 POP POP PUSH1 0x1 SWAP1 SUB SWAP1 PUSH1 0x0 MSTORE PUSH1 0x20 PUSH1 0x0 KECCAK256 ADD PUSH1 0x0 SWAP1 SWAP2 SWAP1 SWAP2 SWAP1 SWAP2 PUSH2 0x100 EXP DUP2 SLOAD DUP2 PUSH20 0xFFFFFFFFFFFFFFFFFFFFFFFFFFFFFFFFFFFFFFFF MUL NOT AND SWAP1 DUP4 PUSH20 0xFFFFFFFFFFFFFFFFFFFFFFFFFFFFFFFFFFFFFFFF AND MUL OR SWAP1 SSTORE POP JUMPDEST PUSH3 0x43B PUSH1 0x40 MLOAD DUP1 PUSH1 0x60 ADD PUSH1 0x40 MSTORE DUP1 PUSH1 0x28 DUP2 MSTORE PUSH1 0x20 ADD PUSH3 0x3924 PUSH1 0x28 SWAP2 CODECOPY DUP3 PUSH3 0x587 JUMP JUMPDEST DUP1 SWAP2 POP POP SWAP4 SWAP3 POP POP POP JUMP JUMPDEST PUSH1 0x3 DUP2 DUP2 SLOAD DUP2 LT PUSH3 0x457 JUMPI PUSH1 0x0 DUP1 REVERT JUMPDEST SWAP1 PUSH1 0x0 MSTORE PUSH1 0x20 PUSH1 0x0 KECCAK256 ADD PUSH1 0x0 SWAP2 POP SLOAD SWAP1 PUSH2 0x100 EXP SWAP1 DIV PUSH20 0xFFFFFFFFFFFFFFFFFFFFFFFFFFFFFFFFFFFFFFFF AND DUP2 JUMP JUMPDEST PUSH1 0x2 SLOAD DUP2 JUMP JUMPDEST PUSH1 0x0 PUSH1 0x1 DUP3 DUP2 SLOAD DUP2 LT PUSH3 0x4A5 JUMPI PUSH3 0x4A4 PUSH3 0xBAE JUMP JUMPDEST JUMPDEST SWAP1 PUSH1 0x0 MSTORE PUSH1 0x20 PUSH1 0x0 KECCAK256 ADD PUSH1 0x0 SWAP1 SLOAD SWAP1 PUSH2 0x100 EXP SWAP1 DIV PUSH20 0xFFFFFFFFFFFFFFFFFFFFFFFFFFFFFFFFFFFFFFFF AND SWAP1 POP SWAP2 SWAP1 POP JUMP JUMPDEST PUSH1 0x4 SLOAD DUP2 JUMP JUMPDEST PUSH1 0x0 DUP1 SLOAD SWAP1 PUSH2 0x100 EXP SWAP1 DIV PUSH20 0xFFFFFFFFFFFFFFFFFFFFFFFFFFFFFFFFFFFFFFFF AND DUP2 JUMP JUMPDEST PUSH1 0x6 SLOAD DUP2 JUMP JUMPDEST PUSH1 0x1 DUP2 DUP2 SLOAD DUP2 LT PUSH3 0x518 JUMPI PUSH1 0x0 DUP1 REVERT JUMPDEST SWAP1 PUSH1 0x0 MSTORE PUSH1 0x20 PUSH1 0x0 KECCAK256 ADD PUSH1 0x0 SWAP2 POP SLOAD SWAP1 PUSH2 0x100 EXP SWAP1 DIV PUSH20 0xFFFFFFFFFFFFFFFFFFFFFFFFFFFFFFFFFFFFFFFF AND DUP2 JUMP JUMPDEST PUSH1 0x5 DUP2 DUP2 SLOAD DUP2 LT PUSH3 0x558 JUMPI PUSH1 0x0 DUP1 REVERT JUMPDEST SWAP1 PUSH1 0x0 MSTORE PUSH1 0x20 PUSH1 0x0 KECCAK256 ADD PUSH1 0x0 SWAP2 POP SLOAD SWAP1 PUSH2 0x100 EXP SWAP1 DIV PUSH20 0xFFFFFFFFFFFFFFFFFFFFFFFFFFFFFFFFFFFFFFFF AND DUP2 JUMP JUMPDEST PUSH3 0x623 DUP3 DUP3 PUSH1 0x40 MLOAD PUSH1 0x24 ADD PUSH3 0x5A0 SWAP3 SWAP2 SWAP1 PUSH3 0xBDD JUMP JUMPDEST PUSH1 0x40 MLOAD PUSH1 0x20 DUP2 DUP4 SUB SUB DUP2 MSTORE SWAP1 PUSH1 0x40 MSTORE PUSH32 0x319AF33300000000000000000000000000000000000000000000000000000000 PUSH28 0xFFFFFFFFFFFFFFFFFFFFFFFFFFFFFFFFFFFFFFFFFFFFFFFFFFFFFFFF NOT AND PUSH1 0x20 DUP3 ADD DUP1 MLOAD PUSH28 0xFFFFFFFFFFFFFFFFFFFFFFFFFFFFFFFFFFFFFFFFFFFFFFFFFFFFFFFF DUP4 DUP2 DUP4 AND OR DUP4 MSTORE POP POP POP POP PUSH3 0x627 JUMP JUMPDEST POP POP JUMP JUMPDEST PUSH1 0x0 DUP2 MLOAD SWAP1 POP PUSH1 0x0 PUSH11 0x636F6E736F6C652E6C6F67 SWAP1 POP PUSH1 0x20 DUP4 ADD PUSH1 0x0 DUP1 DUP5 DUP4 DUP6 GAS STATICCALL POP POP POP POP POP JUMP JUMPDEST PUSH2 0x2D12 DUP1 PUSH3 0xC12 DUP4 CODECOPY ADD SWAP1 JUMP JUMPDEST PUSH1 0x0 PUSH1 0x40 MLOAD SWAP1 POP SWAP1 JUMP JUMPDEST PUSH1 0x0 DUP1 REVERT JUMPDEST PUSH1 0x0 DUP1 REVERT JUMPDEST PUSH1 0x3 DUP2 LT PUSH3 0x680 JUMPI PUSH1 0x0 DUP1 REVERT JUMPDEST POP JUMP JUMPDEST PUSH1 0x0 DUP2 CALLDATALOAD SWAP1 POP PUSH3 0x694 DUP2 PUSH3 0x672 JUMP JUMPDEST SWAP3 SWAP2 POP POP JUMP JUMPDEST PUSH1 0x0 DUP1 REVERT JUMPDEST PUSH1 0x0 DUP1 REVERT JUMPDEST PUSH1 0x0 PUSH1 0x1F NOT PUSH1 0x1F DUP4 ADD AND SWAP1 POP SWAP2 SWAP1 POP JUMP JUMPDEST PUSH32 0x4E487B7100000000000000000000000000000000000000000000000000000000 PUSH1 0x0 MSTORE PUSH1 0x41 PUSH1 0x4 MSTORE PUSH1 0x24 PUSH1 0x0 REVERT JUMPDEST PUSH3 0x6EF DUP3 PUSH3 0x6A4 JUMP JUMPDEST DUP2 ADD DUP2 DUP2 LT PUSH8 0xFFFFFFFFFFFFFFFF DUP3 GT OR ISZERO PUSH3 0x711 JUMPI PUSH3 0x710 PUSH3 0x6B5 JUMP JUMPDEST JUMPDEST DUP1 PUSH1 0x40 MSTORE POP POP POP JUMP JUMPDEST PUSH1 0x0 PUSH3 0x726 PUSH3 0x65E JUMP JUMPDEST SWAP1 POP PUSH3 0x734 DUP3 DUP3 PUSH3 0x6E4 JUMP JUMPDEST SWAP2 SWAP1 POP JUMP JUMPDEST PUSH1 0x0 PUSH8 0xFFFFFFFFFFFFFFFF DUP3 GT ISZERO PUSH3 0x757 JUMPI PUSH3 0x756 PUSH3 0x6B5 JUMP JUMPDEST JUMPDEST PUSH3 0x762 DUP3 PUSH3 0x6A4 JUMP JUMPDEST SWAP1 POP PUSH1 0x20 DUP2 ADD SWAP1 POP SWAP2 SWAP1 POP JUMP JUMPDEST DUP3 DUP2 DUP4 CALLDATACOPY PUSH1 0x0 DUP4 DUP4 ADD MSTORE POP POP POP JUMP JUMPDEST PUSH1 0x0 PUSH3 0x795 PUSH3 0x78F DUP5 PUSH3 0x739 JUMP JUMPDEST PUSH3 0x71A JUMP JUMPDEST SWAP1 POP DUP3 DUP2 MSTORE PUSH1 0x20 DUP2 ADD DUP5 DUP5 DUP5 ADD GT ISZERO PUSH3 0x7B4 JUMPI PUSH3 0x7B3 PUSH3 0x69F JUMP JUMPDEST JUMPDEST PUSH3 0x7C1 DUP5 DUP3 DUP6 PUSH3 0x76F JUMP JUMPDEST POP SWAP4 SWAP3 POP POP POP JUMP JUMPDEST PUSH1 0x0 DUP3 PUSH1 0x1F DUP4 ADD SLT PUSH3 0x7E1 JUMPI PUSH3 0x7E0 PUSH3 0x69A JUMP JUMPDEST JUMPDEST DUP2 CALLDATALOAD PUSH3 0x7F3 DUP5 DUP3 PUSH1 0x20 DUP7 ADD PUSH3 0x77E JUMP JUMPDEST SWAP2 POP POP SWAP3 SWAP2 POP POP JUMP JUMPDEST PUSH1 0x0 DUP1 PUSH1 0x0 PUSH1 0x60 DUP5 DUP7 SUB SLT ISZERO PUSH3 0x818 JUMPI PUSH3 0x817 PUSH3 0x668 JUMP JUMPDEST JUMPDEST PUSH1 0x0 PUSH3 0x828 DUP7 DUP3 DUP8 ADD PUSH3 0x683 JUMP JUMPDEST SWAP4 POP POP PUSH1 0x20 DUP5 ADD CALLDATALOAD PUSH8 0xFFFFFFFFFFFFFFFF DUP2 GT ISZERO PUSH3 0x84C JUMPI PUSH3 0x84B PUSH3 0x66D JUMP JUMPDEST JUMPDEST PUSH3 0x85A DUP7 DUP3 DUP8 ADD PUSH3 0x7C9 JUMP JUMPDEST SWAP3 POP POP PUSH1 0x40 DUP5 ADD CALLDATALOAD PUSH8 0xFFFFFFFFFFFFFFFF DUP2 GT ISZERO PUSH3 0x87E JUMPI PUSH3 0x87D PUSH3 0x66D JUMP JUMPDEST JUMPDEST PUSH3 0x88C DUP7 DUP3 DUP8 ADD PUSH3 0x7C9 JUMP JUMPDEST SWAP2 POP POP SWAP3 POP SWAP3 POP SWAP3 JUMP JUMPDEST PUSH1 0x0 PUSH20 0xFFFFFFFFFFFFFFFFFFFFFFFFFFFFFFFFFFFFFFFF DUP3 AND SWAP1 POP SWAP2 SWAP1 POP JUMP JUMPDEST PUSH1 0x0 PUSH3 0x8C3 DUP3 PUSH3 0x896 JUMP JUMPDEST SWAP1 POP SWAP2 SWAP1 POP JUMP JUMPDEST PUSH3 0x8D5 DUP2 PUSH3 0x8B6 JUMP JUMPDEST DUP3 MSTORE POP POP JUMP JUMPDEST PUSH1 0x0 PUSH1 0x20 DUP3 ADD SWAP1 POP PUSH3 0x8F2 PUSH1 0x0 DUP4 ADD DUP5 PUSH3 0x8CA JUMP JUMPDEST SWAP3 SWAP2 POP POP JUMP JUMPDEST PUSH1 0x0 DUP2 SWAP1 POP SWAP2 SWAP1 POP JUMP JUMPDEST PUSH3 0x90D DUP2 PUSH3 0x8F8 JUMP JUMPDEST DUP2 EQ PUSH3 0x919 JUMPI PUSH1 0x0 DUP1 REVERT JUMPDEST POP JUMP JUMPDEST PUSH1 0x0 DUP2 CALLDATALOAD SWAP1 POP PUSH3 0x92D DUP2 PUSH3 0x902 JUMP JUMPDEST SWAP3 SWAP2 POP POP JUMP JUMPDEST PUSH1 0x0 PUSH1 0x20 DUP3 DUP5 SUB SLT ISZERO PUSH3 0x94C JUMPI PUSH3 0x94B PUSH3 0x668 JUMP JUMPDEST JUMPDEST PUSH1 0x0 PUSH3 0x95C DUP5 DUP3 DUP6 ADD PUSH3 0x91C JUMP JUMPDEST SWAP2 POP POP SWAP3 SWAP2 POP POP JUMP JUMPDEST PUSH1 0x0 DUP2 SWAP1 POP SWAP2 SWAP1 POP JUMP JUMPDEST PUSH1 0x0 PUSH3 0x990 PUSH3 0x98A PUSH3 0x984 DUP5 PUSH3 0x896 JUMP JUMPDEST PUSH3 0x965 JUMP JUMPDEST PUSH3 0x896 JUMP JUMPDEST SWAP1 POP SWAP2 SWAP1 POP JUMP JUMPDEST PUSH1 0x0 PUSH3 0x9A4 DUP3 PUSH3 0x96F JUMP JUMPDEST SWAP1 POP SWAP2 SWAP1 POP JUMP JUMPDEST PUSH1 0x0 PUSH3 0x9B8 DUP3 PUSH3 0x997 JUMP JUMPDEST SWAP1 POP SWAP2 SWAP1 POP JUMP JUMPDEST PUSH3 0x9CA DUP2 PUSH3 0x9AB JUMP JUMPDEST DUP3 MSTORE POP POP JUMP JUMPDEST PUSH1 0x0 PUSH1 0x20 DUP3 ADD SWAP1 POP PUSH3 0x9E7 PUSH1 0x0 DUP4 ADD DUP5 PUSH3 0x9BF JUMP JUMPDEST SWAP3 SWAP2 POP POP JUMP JUMPDEST PUSH1 0x0 DUP2 SWAP1 POP SWAP2 SWAP1 POP JUMP JUMPDEST PUSH3 0xA02 DUP2 PUSH3 0x9ED JUMP JUMPDEST DUP3 MSTORE POP POP JUMP JUMPDEST PUSH1 0x0 PUSH1 0x20 DUP3 ADD SWAP1 POP PUSH3 0xA1F PUSH1 0x0 DUP4 ADD DUP5 PUSH3 0x9F7 JUMP JUMPDEST SWAP3 SWAP2 POP POP JUMP JUMPDEST PUSH1 0x0 PUSH3 0xA32 DUP3 PUSH3 0x896 JUMP JUMPDEST SWAP1 POP SWAP2 SWAP1 POP JUMP JUMPDEST PUSH3 0xA44 DUP2 PUSH3 0xA25 JUMP JUMPDEST DUP3 MSTORE POP POP JUMP JUMPDEST PUSH32 0x4E487B7100000000000000000000000000000000000000000000000000000000 PUSH1 0x0 MSTORE PUSH1 0x21 PUSH1 0x4 MSTORE PUSH1 0x24 PUSH1 0x0 REVERT JUMPDEST PUSH1 0x3 DUP2 LT PUSH3 0xA8D JUMPI PUSH3 0xA8C PUSH3 0xA4A JUMP JUMPDEST JUMPDEST POP JUMP JUMPDEST PUSH1 0x0 DUP2 SWAP1 POP PUSH3 0xAA0 DUP3 PUSH3 0xA79 JUMP JUMPDEST SWAP2 SWAP1 POP JUMP JUMPDEST PUSH1 0x0 PUSH3 0xAB2 DUP3 PUSH3 0xA90 JUMP JUMPDEST SWAP1 POP SWAP2 SWAP1 POP JUMP JUMPDEST PUSH3 0xAC4 DUP2 PUSH3 0xAA5 JUMP JUMPDEST DUP3 MSTORE POP POP JUMP JUMPDEST PUSH1 0x0 DUP2 MLOAD SWAP1 POP SWAP2 SWAP1 POP JUMP JUMPDEST PUSH1 0x0 DUP3 DUP3 MSTORE PUSH1 0x20 DUP3 ADD SWAP1 POP SWAP3 SWAP2 POP POP JUMP JUMPDEST PUSH1 0x0 JUMPDEST DUP4 DUP2 LT ISZERO PUSH3 0xB06 JUMPI DUP1 DUP3 ADD MLOAD DUP2 DUP5 ADD MSTORE PUSH1 0x20 DUP2 ADD SWAP1 POP PUSH3 0xAE9 JUMP JUMPDEST PUSH1 0x0 DUP5 DUP5 ADD MSTORE POP POP POP POP JUMP JUMPDEST PUSH1 0x0 PUSH3 0xB1F DUP3 PUSH3 0xACA JUMP JUMPDEST PUSH3 0xB2B DUP2 DUP6 PUSH3 0xAD5 JUMP JUMPDEST SWAP4 POP PUSH3 0xB3D DUP2 DUP6 PUSH1 0x20 DUP7 ADD PUSH3 0xAE6 JUMP JUMPDEST PUSH3 0xB48 DUP2 PUSH3 0x6A4 JUMP JUMPDEST DUP5 ADD SWAP2 POP POP SWAP3 SWAP2 POP POP JUMP JUMPDEST PUSH1 0x0 PUSH1 0x80 DUP3 ADD SWAP1 POP PUSH3 0xB6A PUSH1 0x0 DUP4 ADD DUP8 PUSH3 0xA39 JUMP JUMPDEST PUSH3 0xB79 PUSH1 0x20 DUP4 ADD DUP7 PUSH3 0xAB9 JUMP JUMPDEST DUP2 DUP2 SUB PUSH1 0x40 DUP4 ADD MSTORE PUSH3 0xB8D DUP2 DUP6 PUSH3 0xB12 JUMP JUMPDEST SWAP1 POP DUP2 DUP2 SUB PUSH1 0x60 DUP4 ADD MSTORE PUSH3 0xBA3 DUP2 DUP5 PUSH3 0xB12 JUMP JUMPDEST SWAP1 POP SWAP6 SWAP5 POP POP POP POP POP JUMP JUMPDEST PUSH32 0x4E487B7100000000000000000000000000000000000000000000000000000000 PUSH1 0x0 MSTORE PUSH1 0x32 PUSH1 0x4 MSTORE PUSH1 0x24 PUSH1 0x0 REVERT JUMPDEST PUSH1 0x0 PUSH1 0x40 DUP3 ADD SWAP1 POP DUP2 DUP2 SUB PUSH1 0x0 DUP4 ADD MSTORE PUSH3 0xBF9 DUP2 DUP6 PUSH3 0xB12 JUMP JUMPDEST SWAP1 POP PUSH3 0xC0A PUSH1 0x20 DUP4 ADD DUP5 PUSH3 0x8CA JUMP JUMPDEST SWAP4 SWAP3 POP POP POP JUMP INVALID PUSH1 0x80 PUSH1 0x40 MSTORE CALLVALUE DUP1 ISZERO PUSH3 0x11 JUMPI PUSH1 0x0 DUP1 REVERT JUMPDEST POP PUSH1 0x40 MLOAD PUSH3 0x2D12 CODESIZE SUB DUP1 PUSH3 0x2D12 DUP4 CODECOPY DUP2 DUP2 ADD PUSH1 0x40 MSTORE DUP2 ADD SWAP1 PUSH3 0x37 SWAP2 SWAP1 PUSH3 0x3D1 JUMP JUMPDEST PUSH1 0x40 MLOAD DUP1 PUSH1 0x40 ADD PUSH1 0x40 MSTORE DUP1 PUSH1 0x8 DUP2 MSTORE PUSH1 0x20 ADD PUSH32 0x446576546F6B656E000000000000000000000000000000000000000000000000 DUP2 MSTORE POP PUSH1 0x40 MLOAD DUP1 PUSH1 0x40 ADD PUSH1 0x40 MSTORE DUP1 PUSH1 0x3 DUP2 MSTORE PUSH1 0x20 ADD PUSH32 0x4456540000000000000000000000000000000000000000000000000000000000 DUP2 MSTORE POP DUP2 PUSH1 0x3 SWAP1 DUP2 PUSH3 0xB4 SWAP2 SWAP1 PUSH3 0x6CC JUMP JUMPDEST POP DUP1 PUSH1 0x4 SWAP1 DUP2 PUSH3 0xC6 SWAP2 SWAP1 PUSH3 0x6CC JUMP JUMPDEST POP POP POP DUP4 PUSH2 0x201 PUSH1 0x0 PUSH2 0x100 EXP DUP2 SLOAD DUP2 PUSH20 0xFFFFFFFFFFFFFFFFFFFFFFFFFFFFFFFFFFFFFFFF MUL NOT AND SWAP1 DUP4 PUSH20 0xFFFFFFFFFFFFFFFFFFFFFFFFFFFFFFFFFFFFFFFF AND MUL OR SWAP1 SSTORE POP DUP3 PUSH1 0x6 PUSH1 0x0 PUSH2 0x100 EXP DUP2 SLOAD DUP2 PUSH1 0xFF MUL NOT AND SWAP1 DUP4 PUSH1 0x2 DUP2 GT ISZERO PUSH3 0x133 JUMPI PUSH3 0x132 PUSH3 0x7B3 JUMP JUMPDEST JUMPDEST MUL OR SWAP1 SSTORE POP PUSH1 0x0 PUSH2 0x1FC DUP2 SWAP1 SSTORE POP CALLER PUSH2 0x202 PUSH1 0x0 PUSH2 0x100 EXP DUP2 SLOAD DUP2 PUSH20 0xFFFFFFFFFFFFFFFFFFFFFFFFFFFFFFFFFFFFFFFF MUL NOT AND SWAP1 DUP4 PUSH20 0xFFFFFFFFFFFFFFFFFFFFFFFFFFFFFFFFFFFFFFFF AND MUL OR SWAP1 SSTORE POP DUP2 PUSH1 0x5 SWAP1 DUP2 PUSH3 0x194 SWAP2 SWAP1 PUSH3 0x6CC JUMP JUMPDEST POP DUP1 PUSH1 0x7 SWAP1 DUP2 PUSH3 0x1A6 SWAP2 SWAP1 PUSH3 0x6CC JUMP JUMPDEST POP POP POP POP POP PUSH3 0x7E2 JUMP JUMPDEST PUSH1 0x0 PUSH1 0x40 MLOAD SWAP1 POP SWAP1 JUMP JUMPDEST PUSH1 0x0 DUP1 REVERT JUMPDEST PUSH1 0x0 DUP1 REVERT JUMPDEST PUSH1 0x0 PUSH20 0xFFFFFFFFFFFFFFFFFFFFFFFFFFFFFFFFFFFFFFFF DUP3 AND SWAP1 POP SWAP2 SWAP1 POP JUMP JUMPDEST PUSH1 0x0 PUSH3 0x1F2 DUP3 PUSH3 0x1C5 JUMP JUMPDEST SWAP1 POP SWAP2 SWAP1 POP JUMP JUMPDEST PUSH3 0x204 DUP2 PUSH3 0x1E5 JUMP JUMPDEST DUP2 EQ PUSH3 0x210 JUMPI PUSH1 0x0 DUP1 REVERT JUMPDEST POP JUMP JUMPDEST PUSH1 0x0 DUP2 MLOAD SWAP1 POP PUSH3 0x224 DUP2 PUSH3 0x1F9 JUMP JUMPDEST SWAP3 SWAP2 POP POP JUMP JUMPDEST PUSH1 0x3 DUP2 LT PUSH3 0x238 JUMPI PUSH1 0x0 DUP1 REVERT JUMPDEST POP JUMP JUMPDEST PUSH1 0x0 DUP2 MLOAD SWAP1 POP PUSH3 0x24C DUP2 PUSH3 0x22A JUMP JUMPDEST SWAP3 SWAP2 POP POP JUMP JUMPDEST PUSH1 0x0 DUP1 REVERT JUMPDEST PUSH1 0x0 DUP1 REVERT JUMPDEST PUSH1 0x0 PUSH1 0x1F NOT PUSH1 0x1F DUP4 ADD AND SWAP1 POP SWAP2 SWAP1 POP JUMP JUMPDEST PUSH32 0x4E487B7100000000000000000000000000000000000000000000000000000000 PUSH1 0x0 MSTORE PUSH1 0x41 PUSH1 0x4 MSTORE PUSH1 0x24 PUSH1 0x0 REVERT JUMPDEST PUSH3 0x2A7 DUP3 PUSH3 0x25C JUMP JUMPDEST DUP2 ADD DUP2 DUP2 LT PUSH8 0xFFFFFFFFFFFFFFFF DUP3 GT OR ISZERO PUSH3 0x2C9 JUMPI PUSH3 0x2C8 PUSH3 0x26D JUMP JUMPDEST JUMPDEST DUP1 PUSH1 0x40 MSTORE POP POP POP JUMP JUMPDEST PUSH1 0x0 PUSH3 0x2DE PUSH3 0x1B1 JUMP JUMPDEST SWAP1 POP PUSH3 0x2EC DUP3 DUP3 PUSH3 0x29C JUMP JUMPDEST SWAP2 SWAP1 POP JUMP JUMPDEST PUSH1 0x0 PUSH8 0xFFFFFFFFFFFFFFFF DUP3 GT ISZERO PUSH3 0x30F JUMPI PUSH3 0x30E PUSH3 0x26D JUMP JUMPDEST JUMPDEST PUSH3 0x31A DUP3 PUSH3 0x25C JUMP JUMPDEST SWAP1 POP PUSH1 0x20 DUP2 ADD SWAP1 POP SWAP2 SWAP1 POP JUMP JUMPDEST PUSH1 0x0 JUMPDEST DUP4 DUP2 LT ISZERO PUSH3 0x347 JUMPI DUP1 DUP3 ADD MLOAD DUP2 DUP5 ADD MSTORE PUSH1 0x20 DUP2 ADD SWAP1 POP PUSH3 0x32A JUMP JUMPDEST PUSH1 0x0 DUP5 DUP5 ADD MSTORE POP POP POP POP JUMP JUMPDEST PUSH1 0x0 PUSH3 0x36A PUSH3 0x364 DUP5 PUSH3 0x2F1 JUMP JUMPDEST PUSH3 0x2D2 JUMP JUMPDEST SWAP1 POP DUP3 DUP2 MSTORE PUSH1 0x20 DUP2 ADD DUP5 DUP5 DUP5 ADD GT ISZERO PUSH3 0x389 JUMPI PUSH3 0x388 PUSH3 0x257 JUMP JUMPDEST JUMPDEST PUSH3 0x396 DUP5 DUP3 DUP6 PUSH3 0x327 JUMP JUMPDEST POP SWAP4 SWAP3 POP POP POP JUMP JUMPDEST PUSH1 0x0 DUP3 PUSH1 0x1F DUP4 ADD SLT PUSH3 0x3B6 JUMPI PUSH3 0x3B5 PUSH3 0x252 JUMP JUMPDEST JUMPDEST DUP2 MLOAD PUSH3 0x3C8 DUP5 DUP3 PUSH1 0x20 DUP7 ADD PUSH3 0x353 JUMP JUMPDEST SWAP2 POP POP SWAP3 SWAP2 POP POP JUMP JUMPDEST PUSH1 0x0 DUP1 PUSH1 0x0 DUP1 PUSH1 0x80 DUP6 DUP8 SUB SLT ISZERO PUSH3 0x3EE JUMPI PUSH3 0x3ED PUSH3 0x1BB JUMP JUMPDEST JUMPDEST PUSH1 0x0 PUSH3 0x3FE DUP8 DUP3 DUP9 ADD PUSH3 0x213 JUMP JUMPDEST SWAP5 POP POP PUSH1 0x20 PUSH3 0x411 DUP8 DUP3 DUP9 ADD PUSH3 0x23B JUMP JUMPDEST SWAP4 POP POP PUSH1 0x40 DUP6 ADD MLOAD PUSH8 0xFFFFFFFFFFFFFFFF DUP2 GT ISZERO PUSH3 0x435 JUMPI PUSH3 0x434 PUSH3 0x1C0 JUMP JUMPDEST JUMPDEST PUSH3 0x443 DUP8 DUP3 DUP9 ADD PUSH3 0x39E JUMP JUMPDEST SWAP3 POP POP PUSH1 0x60 DUP6 ADD MLOAD PUSH8 0xFFFFFFFFFFFFFFFF DUP2 GT ISZERO PUSH3 0x467 JUMPI PUSH3 0x466 PUSH3 0x1C0 JUMP JUMPDEST JUMPDEST PUSH3 0x475 DUP8 DUP3 DUP9 ADD PUSH3 0x39E JUMP JUMPDEST SWAP2 POP POP SWAP3 SWAP6 SWAP2 SWAP5 POP SWAP3 POP JUMP JUMPDEST PUSH1 0x0 DUP2 MLOAD SWAP1 POP SWAP2 SWAP1 POP JUMP JUMPDEST PUSH32 0x4E487B7100000000000000000000000000000000000000000000000000000000 PUSH1 0x0 MSTORE PUSH1 0x22 PUSH1 0x4 MSTORE PUSH1 0x24 PUSH1 0x0 REVERT JUMPDEST PUSH1 0x0 PUSH1 0x2 DUP3 DIV SWAP1 POP PUSH1 0x1 DUP3 AND DUP1 PUSH3 0x4D4 JUMPI PUSH1 0x7F DUP3 AND SWAP2 POP JUMPDEST PUSH1 0x20 DUP3 LT DUP2 SUB PUSH3 0x4EA JUMPI PUSH3 0x4E9 PUSH3 0x48C JUMP JUMPDEST JUMPDEST POP SWAP2 SWAP1 POP JUMP JUMPDEST PUSH1 0x0 DUP2 SWAP1 POP DUP2 PUSH1 0x0 MSTORE PUSH1 0x20 PUSH1 0x0 KECCAK256 SWAP1 POP SWAP2 SWAP1 POP JUMP JUMPDEST PUSH1 0x0 PUSH1 0x20 PUSH1 0x1F DUP4 ADD DIV SWAP1 POP SWAP2 SWAP1 POP JUMP JUMPDEST PUSH1 0x0 DUP3 DUP3 SHL SWAP1 POP SWAP3 SWAP2 POP POP JUMP JUMPDEST PUSH1 0x0 PUSH1 0x8 DUP4 MUL PUSH3 0x554 PUSH32 0xFFFFFFFFFFFFFFFFFFFFFFFFFFFFFFFFFFFFFFFFFFFFFFFFFFFFFFFFFFFFFFFF DUP3 PUSH3 0x515 JUMP JUMPDEST PUSH3 0x560 DUP7 DUP4 PUSH3 0x515 JUMP JUMPDEST SWAP6 POP DUP1 NOT DUP5 AND SWAP4 POP DUP1 DUP7 AND DUP5 OR SWAP3 POP POP POP SWAP4 SWAP3 POP POP POP JUMP JUMPDEST PUSH1 0x0 DUP2 SWAP1 POP SWAP2 SWAP1 POP JUMP JUMPDEST PUSH1 0x0 DUP2 SWAP1 POP SWAP2 SWAP1 POP JUMP JUMPDEST PUSH1 0x0 PUSH3 0x5AD PUSH3 0x5A7 PUSH3 0x5A1 DUP5 PUSH3 0x578 JUMP JUMPDEST PUSH3 0x582 JUMP JUMPDEST PUSH3 0x578 JUMP JUMPDEST SWAP1 POP SWAP2 SWAP1 POP JUMP JUMPDEST PUSH1 0x0 DUP2 SWAP1 POP SWAP2 SWAP1 POP JUMP JUMPDEST PUSH3 0x5C9 DUP4 PUSH3 0x58C JUMP JUMPDEST PUSH3 0x5E1 PUSH3 0x5D8 DUP3 PUSH3 0x5B4 JUMP JUMPDEST DUP5 DUP5 SLOAD PUSH3 0x522 JUMP JUMPDEST DUP3 SSTORE POP POP POP POP JUMP JUMPDEST PUSH1 0x0 SWAP1 JUMP JUMPDEST PUSH3 0x5F8 PUSH3 0x5E9 JUMP JUMPDEST PUSH3 0x605 DUP2 DUP5 DUP5 PUSH3 0x5BE JUMP JUMPDEST POP POP POP JUMP JUMPDEST JUMPDEST DUP2 DUP2 LT ISZERO PUSH3 0x62D JUMPI PUSH3 0x621 PUSH1 0x0 DUP3 PUSH3 0x5EE JUMP JUMPDEST PUSH1 0x1 DUP2 ADD SWAP1 POP PUSH3 0x60B JUMP JUMPDEST POP POP JUMP JUMPDEST PUSH1 0x1F DUP3 GT ISZERO PUSH3 0x67C JUMPI PUSH3 0x646 DUP2 PUSH3 0x4F0 JUMP JUMPDEST PUSH3 0x651 DUP5 PUSH3 0x505 JUMP JUMPDEST DUP2 ADD PUSH1 0x20 DUP6 LT ISZERO PUSH3 0x661 JUMPI DUP2 SWAP1 POP JUMPDEST PUSH3 0x679 PUSH3 0x670 DUP6 PUSH3 0x505 JUMP JUMPDEST DUP4 ADD DUP3 PUSH3 0x60A JUMP JUMPDEST POP POP JUMPDEST POP POP POP JUMP JUMPDEST PUSH1 0x0 DUP3 DUP3 SHR SWAP1 POP SWAP3 SWAP2 POP POP JUMP JUMPDEST PUSH1 0x0 PUSH3 0x6A1 PUSH1 0x0 NOT DUP5 PUSH1 0x8 MUL PUSH3 0x681 JUMP JUMPDEST NOT DUP1 DUP4 AND SWAP2 POP POP SWAP3 SWAP2 POP POP JUMP JUMPDEST PUSH1 0x0 PUSH3 0x6BC DUP4 DUP4 PUSH3 0x68E JUMP JUMPDEST SWAP2 POP DUP3 PUSH1 0x2 MUL DUP3 OR SWAP1 POP SWAP3 SWAP2 POP POP JUMP JUMPDEST PUSH3 0x6D7 DUP3 PUSH3 0x481 JUMP JUMPDEST PUSH8 0xFFFFFFFFFFFFFFFF DUP2 GT ISZERO PUSH3 0x6F3 JUMPI PUSH3 0x6F2 PUSH3 0x26D JUMP JUMPDEST JUMPDEST PUSH3 0x6FF DUP3 SLOAD PUSH3 0x4BB JUMP JUMPDEST PUSH3 0x70C DUP3 DUP3 DUP6 PUSH3 0x631 JUMP JUMPDEST PUSH1 0x0 PUSH1 0x20 SWAP1 POP PUSH1 0x1F DUP4 GT PUSH1 0x1 DUP2 EQ PUSH3 0x744 JUMPI PUSH1 0x0 DUP5 ISZERO PUSH3 0x72F JUMPI DUP3 DUP8 ADD MLOAD SWAP1 POP JUMPDEST PUSH3 0x73B DUP6 DUP3 PUSH3 0x6AE JUMP JUMPDEST DUP7 SSTORE POP PUSH3 0x7AB JUMP JUMPDEST PUSH1 0x1F NOT DUP5 AND PUSH3 0x754 DUP7 PUSH3 0x4F0 JUMP JUMPDEST PUSH1 0x0 JUMPDEST DUP3 DUP2 LT ISZERO PUSH3 0x77E JUMPI DUP5 DUP10 ADD MLOAD DUP3 SSTORE PUSH1 0x1 DUP3 ADD SWAP2 POP PUSH1 0x20 DUP6 ADD SWAP5 POP PUSH1 0x20 DUP2 ADD SWAP1 POP PUSH3 0x757 JUMP JUMPDEST DUP7 DUP4 LT ISZERO PUSH3 0x79E JUMPI DUP5 DUP10 ADD MLOAD PUSH3 0x79A PUSH1 0x1F DUP10 AND DUP3 PUSH3 0x68E JUMP JUMPDEST DUP4 SSTORE POP JUMPDEST PUSH1 0x1 PUSH1 0x2 DUP9 MUL ADD DUP9 SSTORE POP POP POP JUMPDEST POP POP POP POP POP POP JUMP JUMPDEST PUSH32 0x4E487B7100000000000000000000000000000000000000000000000000000000 PUSH1 0x0 MSTORE PUSH1 0x21 PUSH1 0x4 MSTORE PUSH1 0x24 PUSH1 0x0 REVERT JUMPDEST PUSH2 0x2520 DUP1 PUSH3 0x7F2 PUSH1 0x0 CODECOPY PUSH1 0x0 RETURN INVALID PUSH1 0x80 PUSH1 0x40 MSTORE CALLVALUE DUP1 ISZERO PUSH2 0x10 JUMPI PUSH1 0x0 DUP1 REVERT JUMPDEST POP PUSH1 0x4 CALLDATASIZE LT PUSH2 0x142 JUMPI PUSH1 0x0 CALLDATALOAD PUSH1 0xE0 SHR DUP1 PUSH4 0x93B2E054 GT PUSH2 0xB8 JUMPI DUP1 PUSH4 0xA9059CBB GT PUSH2 0x7C JUMPI DUP1 PUSH4 0xA9059CBB EQ PUSH2 0x3C1 JUMPI DUP1 PUSH4 0xAA8FB40B EQ PUSH2 0x3F1 JUMPI DUP1 PUSH4 0xB521CC8E EQ PUSH2 0x40F JUMPI DUP1 PUSH4 0xBE0F1392 EQ PUSH2 0x42B JUMPI DUP1 PUSH4 0xDD62ED3E EQ PUSH2 0x447 JUMPI DUP1 PUSH4 0xE74A84EA EQ PUSH2 0x477 JUMPI PUSH2 0x142 JUMP JUMPDEST DUP1 PUSH4 0x93B2E054 EQ PUSH2 0x2EF JUMPI DUP1 PUSH4 0x94FCA80E EQ PUSH2 0x323 JUMPI DUP1 PUSH4 0x95D89B41 EQ PUSH2 0x33F JUMPI DUP1 PUSH4 0xA457C2D7 EQ PUSH2 0x35D JUMPI DUP1 PUSH4 0xA85C38EF EQ PUSH2 0x38D JUMPI PUSH2 0x142 JUMP JUMPDEST DUP1 PUSH4 0x2AC9E0B3 GT PUSH2 0x10A JUMPI DUP1 PUSH4 0x2AC9E0B3 EQ PUSH2 0x201 JUMPI DUP1 PUSH4 0x313CE567 EQ PUSH2 0x235 JUMPI DUP1 PUSH4 0x39509351 EQ PUSH2 0x253 JUMPI DUP1 PUSH4 0x70A08231 EQ PUSH2 0x283 JUMPI DUP1 PUSH4 0x893D20E8 EQ PUSH2 0x2B3 JUMPI DUP1 PUSH4 0x8DA5CB5B EQ PUSH2 0x2D1 JUMPI PUSH2 0x142 JUMP JUMPDEST DUP1 PUSH4 0x6FDDE03 EQ PUSH2 0x147 JUMPI DUP1 PUSH4 0x95EA7B3 EQ PUSH2 0x165 JUMPI DUP1 PUSH4 0x18160DDD EQ PUSH2 0x195 JUMPI DUP1 PUSH4 0x1E361901 EQ PUSH2 0x1B3 JUMPI DUP1 PUSH4 0x23B872DD EQ PUSH2 0x1D1 JUMPI JUMPDEST PUSH1 0x0 DUP1 REVERT JUMPDEST PUSH2 0x14F PUSH2 0x493 JUMP JUMPDEST PUSH1 0x40 MLOAD PUSH2 0x15C SWAP2 SWAP1 PUSH2 0x169F JUMP JUMPDEST PUSH1 0x40 MLOAD DUP1 SWAP2 SUB SWAP1 RETURN JUMPDEST PUSH2 0x17F PUSH1 0x4 DUP1 CALLDATASIZE SUB DUP2 ADD SWAP1 PUSH2 0x17A SWAP2 SWAP1 PUSH2 0x1769 JUMP JUMPDEST PUSH2 0x525 JUMP JUMPDEST PUSH1 0x40 MLOAD PUSH2 0x18C SWAP2 SWAP1 PUSH2 0x17C4 JUMP JUMPDEST PUSH1 0x40 MLOAD DUP1 SWAP2 SUB SWAP1 RETURN JUMPDEST PUSH2 0x19D PUSH2 0x548 JUMP JUMPDEST PUSH1 0x40 MLOAD PUSH2 0x1AA SWAP2 SWAP1 PUSH2 0x17EE JUMP JUMPDEST PUSH1 0x40 MLOAD DUP1 SWAP2 SUB SWAP1 RETURN JUMPDEST PUSH2 0x1BB PUSH2 0x552 JUMP JUMPDEST PUSH1 0x40 MLOAD PUSH2 0x1C8 SWAP2 SWAP1 PUSH2 0x169F JUMP JUMPDEST PUSH1 0x40 MLOAD DUP1 SWAP2 SUB SWAP1 RETURN JUMPDEST PUSH2 0x1EB PUSH1 0x4 DUP1 CALLDATASIZE SUB DUP2 ADD SWAP1 PUSH2 0x1E6 SWAP2 SWAP1 PUSH2 0x1809 JUMP JUMPDEST PUSH2 0x5E0 JUMP JUMPDEST PUSH1 0x40 MLOAD PUSH2 0x1F8 SWAP2 SWAP1 PUSH2 0x17C4 JUMP JUMPDEST PUSH1 0x40 MLOAD DUP1 SWAP2 SUB SWAP1 RETURN JUMPDEST PUSH2 0x21B PUSH1 0x4 DUP1 CALLDATASIZE SUB DUP2 ADD SWAP1 PUSH2 0x216 SWAP2 SWAP1 PUSH2 0x185C JUMP JUMPDEST PUSH2 0x60F JUMP JUMPDEST PUSH1 0x40 MLOAD PUSH2 0x22C SWAP6 SWAP5 SWAP4 SWAP3 SWAP2 SWAP1 PUSH2 0x1889 JUMP JUMPDEST PUSH1 0x40 MLOAD DUP1 SWAP2 SUB SWAP1 RETURN JUMPDEST PUSH2 0x23D PUSH2 0x756 JUMP JUMPDEST PUSH1 0x40 MLOAD PUSH2 0x24A SWAP2 SWAP1 PUSH2 0x1906 JUMP JUMPDEST PUSH1 0x40 MLOAD DUP1 SWAP2 SUB SWAP1 RETURN JUMPDEST PUSH2 0x26D PUSH1 0x4 DUP1 CALLDATASIZE SUB DUP2 ADD SWAP1 PUSH2 0x268 SWAP2 SWAP1 PUSH2 0x1769 JUMP JUMPDEST PUSH2 0x75F JUMP JUMPDEST PUSH1 0x40 MLOAD PUSH2 0x27A SWAP2 SWAP1 PUSH2 0x17C4 JUMP JUMPDEST PUSH1 0x40 MLOAD DUP1 SWAP2 SUB SWAP1 RETURN JUMPDEST PUSH2 0x29D PUSH1 0x4 DUP1 CALLDATASIZE SUB DUP2 ADD SWAP1 PUSH2 0x298 SWAP2 SWAP1 PUSH2 0x1921 JUMP JUMPDEST PUSH2 0x796 JUMP JUMPDEST PUSH1 0x40 MLOAD PUSH2 0x2AA SWAP2 SWAP1 PUSH2 0x17EE JUMP JUMPDEST PUSH1 0x40 MLOAD DUP1 SWAP2 SUB SWAP1 RETURN JUMPDEST PUSH2 0x2BB PUSH2 0x7DE JUMP JUMPDEST PUSH1 0x40 MLOAD PUSH2 0x2C8 SWAP2 SWAP1 PUSH2 0x195D JUMP JUMPDEST PUSH1 0x40 MLOAD DUP1 SWAP2 SUB SWAP1 RETURN JUMPDEST PUSH2 0x2D9 PUSH2 0x809 JUMP JUMPDEST PUSH1 0x40 MLOAD PUSH2 0x2E6 SWAP2 SWAP1 PUSH2 0x1999 JUMP JUMPDEST PUSH1 0x40 MLOAD DUP1 SWAP2 SUB SWAP1 RETURN JUMPDEST PUSH2 0x309 PUSH1 0x4 DUP1 CALLDATASIZE SUB DUP2 ADD SWAP1 PUSH2 0x304 SWAP2 SWAP1 PUSH2 0x185C JUMP JUMPDEST PUSH2 0x830 JUMP JUMPDEST PUSH1 0x40 MLOAD PUSH2 0x31A SWAP6 SWAP5 SWAP4 SWAP3 SWAP2 SWAP1 PUSH2 0x1889 JUMP JUMPDEST PUSH1 0x40 MLOAD DUP1 SWAP2 SUB SWAP1 RETURN JUMPDEST PUSH2 0x33D PUSH1 0x4 DUP1 CALLDATASIZE SUB DUP2 ADD SWAP1 PUSH2 0x338 SWAP2 SWAP1 PUSH2 0x1AE9 JUMP JUMPDEST PUSH2 0x977 JUMP JUMPDEST STOP JUMPDEST PUSH2 0x347 PUSH2 0xA83 JUMP JUMPDEST PUSH1 0x40 MLOAD PUSH2 0x354 SWAP2 SWAP1 PUSH2 0x169F JUMP JUMPDEST PUSH1 0x40 MLOAD DUP1 SWAP2 SUB SWAP1 RETURN JUMPDEST PUSH2 0x377 PUSH1 0x4 DUP1 CALLDATASIZE SUB DUP2 ADD SWAP1 PUSH2 0x372 SWAP2 SWAP1 PUSH2 0x1769 JUMP JUMPDEST PUSH2 0xB15 JUMP JUMPDEST PUSH1 0x40 MLOAD PUSH2 0x384 SWAP2 SWAP1 PUSH2 0x17C4 JUMP JUMPDEST PUSH1 0x40 MLOAD DUP1 SWAP2 SUB SWAP1 RETURN JUMPDEST PUSH2 0x3A7 PUSH1 0x4 DUP1 CALLDATASIZE SUB DUP2 ADD SWAP1 PUSH2 0x3A2 SWAP2 SWAP1 PUSH2 0x185C JUMP JUMPDEST PUSH2 0xB8C JUMP JUMPDEST PUSH1 0x40 MLOAD PUSH2 0x3B8 SWAP6 SWAP5 SWAP4 SWAP3 SWAP2 SWAP1 PUSH2 0x1889 JUMP JUMPDEST PUSH1 0x40 MLOAD DUP1 SWAP2 SUB SWAP1 RETURN JUMPDEST PUSH2 0x3DB PUSH1 0x4 DUP1 CALLDATASIZE SUB DUP2 ADD SWAP1 PUSH2 0x3D6 SWAP2 SWAP1 PUSH2 0x1769 JUMP JUMPDEST PUSH2 0xCD8 JUMP JUMPDEST PUSH1 0x40 MLOAD PUSH2 0x3E8 SWAP2 SWAP1 PUSH2 0x17C4 JUMP JUMPDEST PUSH1 0x40 MLOAD DUP1 SWAP2 SUB SWAP1 RETURN JUMPDEST PUSH2 0x3F9 PUSH2 0xCFB JUMP JUMPDEST PUSH1 0x40 MLOAD PUSH2 0x406 SWAP2 SWAP1 PUSH2 0x169F JUMP JUMPDEST PUSH1 0x40 MLOAD DUP1 SWAP2 SUB SWAP1 RETURN JUMPDEST PUSH2 0x429 PUSH1 0x4 DUP1 CALLDATASIZE SUB DUP2 ADD SWAP1 PUSH2 0x424 SWAP2 SWAP1 PUSH2 0x1B9C JUMP JUMPDEST PUSH2 0xD89 JUMP JUMPDEST STOP JUMPDEST PUSH2 0x445 PUSH1 0x4 DUP1 CALLDATASIZE SUB DUP2 ADD SWAP1 PUSH2 0x440 SWAP2 SWAP1 PUSH2 0x1BF8 JUMP JUMPDEST PUSH2 0xE38 JUMP JUMPDEST STOP JUMPDEST PUSH2 0x461 PUSH1 0x4 DUP1 CALLDATASIZE SUB DUP2 ADD SWAP1 PUSH2 0x45C SWAP2 SWAP1 PUSH2 0x1C38 JUMP JUMPDEST PUSH2 0xF18 JUMP JUMPDEST PUSH1 0x40 MLOAD PUSH2 0x46E SWAP2 SWAP1 PUSH2 0x17EE JUMP JUMPDEST PUSH1 0x40 MLOAD DUP1 SWAP2 SUB SWAP1 RETURN JUMPDEST PUSH2 0x491 PUSH1 0x4 DUP1 CALLDATASIZE SUB DUP2 ADD SWAP1 PUSH2 0x48C SWAP2 SWAP1 PUSH2 0x1769 JUMP JUMPDEST PUSH2 0xF9F JUMP JUMPDEST STOP JUMPDEST PUSH1 0x60 PUSH1 0x3 DUP1 SLOAD PUSH2 0x4A2 SWAP1 PUSH2 0x1CA7 JUMP JUMPDEST DUP1 PUSH1 0x1F ADD PUSH1 0x20 DUP1 SWAP2 DIV MUL PUSH1 0x20 ADD PUSH1 0x40 MLOAD SWAP1 DUP2 ADD PUSH1 0x40 MSTORE DUP1 SWAP3 SWAP2 SWAP1 DUP2 DUP2 MSTORE PUSH1 0x20 ADD DUP3 DUP1 SLOAD PUSH2 0x4CE SWAP1 PUSH2 0x1CA7 JUMP JUMPDEST DUP1 ISZERO PUSH2 0x51B JUMPI DUP1 PUSH1 0x1F LT PUSH2 0x4F0 JUMPI PUSH2 0x100 DUP1 DUP4 SLOAD DIV MUL DUP4 MSTORE SWAP2 PUSH1 0x20 ADD SWAP2 PUSH2 0x51B JUMP JUMPDEST DUP3 ADD SWAP2 SWAP1 PUSH1 0x0 MSTORE PUSH1 0x20 PUSH1 0x0 KECCAK256 SWAP1 JUMPDEST DUP2 SLOAD DUP2 MSTORE SWAP1 PUSH1 0x1 ADD SWAP1 PUSH1 0x20 ADD DUP1 DUP4 GT PUSH2 0x4FE JUMPI DUP3 SWAP1 SUB PUSH1 0x1F AND DUP3 ADD SWAP2 JUMPDEST POP POP POP POP POP SWAP1 POP SWAP1 JUMP JUMPDEST PUSH1 0x0 DUP1 PUSH2 0x530 PUSH2 0xFAD JUMP JUMPDEST SWAP1 POP PUSH2 0x53D DUP2 DUP6 DUP6 PUSH2 0xFB5 JUMP JUMPDEST PUSH1 0x1 SWAP2 POP POP SWAP3 SWAP2 POP POP JUMP JUMPDEST PUSH1 0x0 PUSH1 0x2 SLOAD SWAP1 POP SWAP1 JUMP JUMPDEST PUSH1 0x5 DUP1 SLOAD PUSH2 0x55F SWAP1 PUSH2 0x1CA7 JUMP JUMPDEST DUP1 PUSH1 0x1F ADD PUSH1 0x20 DUP1 SWAP2 DIV MUL PUSH1 0x20 ADD PUSH1 0x40 MLOAD SWAP1 DUP2 ADD PUSH1 0x40 MSTORE DUP1 SWAP3 SWAP2 SWAP1 DUP2 DUP2 MSTORE PUSH1 0x20 ADD DUP3 DUP1 SLOAD PUSH2 0x58B SWAP1 PUSH2 0x1CA7 JUMP JUMPDEST DUP1 ISZERO PUSH2 0x5D8 JUMPI DUP1 PUSH1 0x1F LT PUSH2 0x5AD JUMPI PUSH2 0x100 DUP1 DUP4 SLOAD DIV MUL DUP4 MSTORE SWAP2 PUSH1 0x20 ADD SWAP2 PUSH2 0x5D8 JUMP JUMPDEST DUP3 ADD SWAP2 SWAP1 PUSH1 0x0 MSTORE PUSH1 0x20 PUSH1 0x0 KECCAK256 SWAP1 JUMPDEST DUP2 SLOAD DUP2 MSTORE SWAP1 PUSH1 0x1 ADD SWAP1 PUSH1 0x20 ADD DUP1 DUP4 GT PUSH2 0x5BB JUMPI DUP3 SWAP1 SUB PUSH1 0x1F AND DUP3 ADD SWAP2 JUMPDEST POP POP POP POP POP DUP2 JUMP JUMPDEST PUSH1 0x0 DUP1 PUSH2 0x5EB PUSH2 0xFAD JUMP JUMPDEST SWAP1 POP PUSH2 0x5F8 DUP6 DUP3 DUP6 PUSH2 0x117E JUMP JUMPDEST PUSH2 0x603 DUP6 DUP6 DUP6 PUSH2 0x120A JUMP JUMPDEST PUSH1 0x1 SWAP2 POP POP SWAP4 SWAP3 POP POP POP JUMP JUMPDEST PUSH2 0x1FD PUSH1 0x20 MSTORE DUP1 PUSH1 0x0 MSTORE PUSH1 0x40 PUSH1 0x0 KECCAK256 PUSH1 0x0 SWAP2 POP SWAP1 POP DUP1 PUSH1 0x0 ADD DUP1 SLOAD PUSH2 0x633 SWAP1 PUSH2 0x1CA7 JUMP JUMPDEST DUP1 PUSH1 0x1F ADD PUSH1 0x20 DUP1 SWAP2 DIV MUL PUSH1 0x20 ADD PUSH1 0x40 MLOAD SWAP1 DUP2 ADD PUSH1 0x40 MSTORE DUP1 SWAP3 SWAP2 SWAP1 DUP2 DUP2 MSTORE PUSH1 0x20 ADD DUP3 DUP1 SLOAD PUSH2 0x65F SWAP1 PUSH2 0x1CA7 JUMP JUMPDEST DUP1 ISZERO PUSH2 0x6AC JUMPI DUP1 PUSH1 0x1F LT PUSH2 0x681 JUMPI PUSH2 0x100 DUP1 DUP4 SLOAD DIV MUL DUP4 MSTORE SWAP2 PUSH1 0x20 ADD SWAP2 PUSH2 0x6AC JUMP JUMPDEST DUP3 ADD SWAP2 SWAP1 PUSH1 0x0 MSTORE PUSH1 0x20 PUSH1 0x0 KECCAK256 SWAP1 JUMPDEST DUP2 SLOAD DUP2 MSTORE SWAP1 PUSH1 0x1 ADD SWAP1 PUSH1 0x20 ADD DUP1 DUP4 GT PUSH2 0x68F JUMPI DUP3 SWAP1 SUB PUSH1 0x1F AND DUP3 ADD SWAP2 JUMPDEST POP POP POP POP POP SWAP1 DUP1 PUSH1 0x1 ADD DUP1 SLOAD PUSH2 0x6C1 SWAP1 PUSH2 0x1CA7 JUMP JUMPDEST DUP1 PUSH1 0x1F ADD PUSH1 0x20 DUP1 SWAP2 DIV MUL PUSH1 0x20 ADD PUSH1 0x40 MLOAD SWAP1 DUP2 ADD PUSH1 0x40 MSTORE DUP1 SWAP3 SWAP2 SWAP1 DUP2 DUP2 MSTORE PUSH1 0x20 ADD DUP3 DUP1 SLOAD PUSH2 0x6ED SWAP1 PUSH2 0x1CA7 JUMP JUMPDEST DUP1 ISZERO PUSH2 0x73A JUMPI DUP1 PUSH1 0x1F LT PUSH2 0x70F JUMPI PUSH2 0x100 DUP1 DUP4 SLOAD DIV MUL DUP4 MSTORE SWAP2 PUSH1 0x20 ADD SWAP2 PUSH2 0x73A JUMP JUMPDEST DUP3 ADD SWAP2 SWAP1 PUSH1 0x0 MSTORE PUSH1 0x20 PUSH1 0x0 KECCAK256 SWAP1 JUMPDEST DUP2 SLOAD DUP2 MSTORE SWAP1 PUSH1 0x1 ADD SWAP1 PUSH1 0x20 ADD DUP1 DUP4 GT PUSH2 0x71D JUMPI DUP3 SWAP1 SUB PUSH1 0x1F AND DUP3 ADD SWAP2 JUMPDEST POP POP POP POP POP SWAP1 DUP1 PUSH1 0x2 ADD SLOAD SWAP1 DUP1 PUSH1 0x3 ADD SLOAD SWAP1 DUP1 PUSH1 0x4 ADD SLOAD SWAP1 POP DUP6 JUMP JUMPDEST PUSH1 0x0 PUSH1 0x12 SWAP1 POP SWAP1 JUMP JUMPDEST PUSH1 0x0 DUP1 PUSH2 0x76A PUSH2 0xFAD JUMP JUMPDEST SWAP1 POP PUSH2 0x78B DUP2 DUP6 DUP6 PUSH2 0x77C DUP6 DUP10 PUSH2 0xF18 JUMP JUMPDEST PUSH2 0x786 SWAP2 SWAP1 PUSH2 0x1D07 JUMP JUMPDEST PUSH2 0xFB5 JUMP JUMPDEST PUSH1 0x1 SWAP2 POP POP SWAP3 SWAP2 POP POP JUMP JUMPDEST PUSH1 0x0 DUP1 PUSH1 0x0 DUP4 PUSH20 0xFFFFFFFFFFFFFFFFFFFFFFFFFFFFFFFFFFFFFFFF AND PUSH20 0xFFFFFFFFFFFFFFFFFFFFFFFFFFFFFFFFFFFFFFFF AND DUP2 MSTORE PUSH1 0x20 ADD SWAP1 DUP2 MSTORE PUSH1 0x20 ADD PUSH1 0x0 KECCAK256 SLOAD SWAP1 POP SWAP2 SWAP1 POP JUMP JUMPDEST PUSH1 0x0 PUSH2 0x201 PUSH1 0x0 SWAP1 SLOAD SWAP1 PUSH2 0x100 EXP SWAP1 DIV PUSH20 0xFFFFFFFFFFFFFFFFFFFFFFFFFFFFFFFFFFFFFFFF AND SWAP1 POP SWAP1 JUMP JUMPDEST PUSH2 0x201 PUSH1 0x0 SWAP1 SLOAD SWAP1 PUSH2 0x100 EXP SWAP1 DIV PUSH20 0xFFFFFFFFFFFFFFFFFFFFFFFFFFFFFFFFFFFFFFFF AND DUP2 JUMP JUMPDEST PUSH2 0x1FE PUSH1 0x20 MSTORE DUP1 PUSH1 0x0 MSTORE PUSH1 0x40 PUSH1 0x0 KECCAK256 PUSH1 0x0 SWAP2 POP SWAP1 POP DUP1 PUSH1 0x0 ADD DUP1 SLOAD PUSH2 0x854 SWAP1 PUSH2 0x1CA7 JUMP JUMPDEST DUP1 PUSH1 0x1F ADD PUSH1 0x20 DUP1 SWAP2 DIV MUL PUSH1 0x20 ADD PUSH1 0x40 MLOAD SWAP1 DUP2 ADD PUSH1 0x40 MSTORE DUP1 SWAP3 SWAP2 SWAP1 DUP2 DUP2 MSTORE PUSH1 0x20 ADD DUP3 DUP1 SLOAD PUSH2 0x880 SWAP1 PUSH2 0x1CA7 JUMP JUMPDEST DUP1 ISZERO PUSH2 0x8CD JUMPI DUP1 PUSH1 0x1F LT PUSH2 0x8A2 JUMPI PUSH2 0x100 DUP1 DUP4 SLOAD DIV MUL DUP4 MSTORE SWAP2 PUSH1 0x20 ADD SWAP2 PUSH2 0x8CD JUMP JUMPDEST DUP3 ADD SWAP2 SWAP1 PUSH1 0x0 MSTORE PUSH1 0x20 PUSH1 0x0 KECCAK256 SWAP1 JUMPDEST DUP2 SLOAD DUP2 MSTORE SWAP1 PUSH1 0x1 ADD SWAP1 PUSH1 0x20 ADD DUP1 DUP4 GT PUSH2 0x8B0 JUMPI DUP3 SWAP1 SUB PUSH1 0x1F AND DUP3 ADD SWAP2 JUMPDEST POP POP POP POP POP SWAP1 DUP1 PUSH1 0x1 ADD DUP1 SLOAD PUSH2 0x8E2 SWAP1 PUSH2 0x1CA7 JUMP JUMPDEST DUP1 PUSH1 0x1F ADD PUSH1 0x20 DUP1 SWAP2 DIV MUL PUSH1 0x20 ADD PUSH1 0x40 MLOAD SWAP1 DUP2 ADD PUSH1 0x40 MSTORE DUP1 SWAP3 SWAP2 SWAP1 DUP2 DUP2 MSTORE PUSH1 0x20 ADD DUP3 DUP1 SLOAD PUSH2 0x90E SWAP1 PUSH2 0x1CA7 JUMP JUMPDEST DUP1 ISZERO PUSH2 0x95B JUMPI DUP1 PUSH1 0x1F LT PUSH2 0x930 JUMPI PUSH2 0x100 DUP1 DUP4 SLOAD DIV MUL DUP4 MSTORE SWAP2 PUSH1 0x20 ADD SWAP2 PUSH2 0x95B JUMP JUMPDEST DUP3 ADD SWAP2 SWAP1 PUSH1 0x0 MSTORE PUSH1 0x20 PUSH1 0x0 KECCAK256 SWAP1 JUMPDEST DUP2 SLOAD DUP2 MSTORE SWAP1 PUSH1 0x1 ADD SWAP1 PUSH1 0x20 ADD DUP1 DUP4 GT PUSH2 0x93E JUMPI DUP3 SWAP1 SUB PUSH1 0x1F AND DUP3 ADD SWAP2 JUMPDEST POP POP POP POP POP SWAP1 DUP1 PUSH1 0x2 ADD SLOAD SWAP1 DUP1 PUSH1 0x3 ADD SLOAD SWAP1 DUP1 PUSH1 0x4 ADD SLOAD SWAP1 POP DUP6 JUMP JUMPDEST PUSH2 0x201 PUSH1 0x0 SWAP1 SLOAD SWAP1 PUSH2 0x100 EXP SWAP1 DIV PUSH20 0xFFFFFFFFFFFFFFFFFFFFFFFFFFFFFFFFFFFFFFFF AND PUSH20 0xFFFFFFFFFFFFFFFFFFFFFFFFFFFFFFFFFFFFFFFF AND CALLER PUSH20 0xFFFFFFFFFFFFFFFFFFFFFFFFFFFFFFFFFFFFFFFF AND EQ PUSH2 0x9D2 JUMPI PUSH1 0x0 DUP1 REVERT JUMPDEST PUSH1 0x0 PUSH1 0x40 MLOAD DUP1 PUSH1 0xA0 ADD PUSH1 0x40 MSTORE DUP1 DUP8 DUP2 MSTORE PUSH1 0x20 ADD DUP5 DUP2 MSTORE PUSH1 0x20 ADD DUP7 DUP2 MSTORE PUSH1 0x20 ADD DUP6 DUP2 MSTORE PUSH1 0x20 ADD DUP4 DUP2 MSTORE POP SWAP1 POP DUP1 PUSH2 0x1FD PUSH1 0x0 PUSH2 0x1FC SLOAD DUP2 MSTORE PUSH1 0x20 ADD SWAP1 DUP2 MSTORE PUSH1 0x20 ADD PUSH1 0x0 KECCAK256 PUSH1 0x0 DUP3 ADD MLOAD DUP2 PUSH1 0x0 ADD SWAP1 DUP2 PUSH2 0xA2A SWAP2 SWAP1 PUSH2 0x1EE7 JUMP JUMPDEST POP PUSH1 0x20 DUP3 ADD MLOAD DUP2 PUSH1 0x1 ADD SWAP1 DUP2 PUSH2 0xA40 SWAP2 SWAP1 PUSH2 0x1EE7 JUMP JUMPDEST POP PUSH1 0x40 DUP3 ADD MLOAD DUP2 PUSH1 0x2 ADD SSTORE PUSH1 0x60 DUP3 ADD MLOAD DUP2 PUSH1 0x3 ADD SSTORE PUSH1 0x80 DUP3 ADD MLOAD DUP2 PUSH1 0x4 ADD SSTORE SWAP1 POP POP PUSH2 0x1FC PUSH1 0x0 DUP2 SLOAD DUP1 SWAP3 SWAP2 SWAP1 PUSH2 0xA76 SWAP1 PUSH2 0x1FB9 JUMP JUMPDEST SWAP2 SWAP1 POP SSTORE POP POP POP POP POP POP POP JUMP JUMPDEST PUSH1 0x60 PUSH1 0x4 DUP1 SLOAD PUSH2 0xA92 SWAP1 PUSH2 0x1CA7 JUMP JUMPDEST DUP1 PUSH1 0x1F ADD PUSH1 0x20 DUP1 SWAP2 DIV MUL PUSH1 0x20 ADD PUSH1 0x40 MLOAD SWAP1 DUP2 ADD PUSH1 0x40 MSTORE DUP1 SWAP3 SWAP2 SWAP1 DUP2 DUP2 MSTORE PUSH1 0x20 ADD DUP3 DUP1 SLOAD PUSH2 0xABE SWAP1 PUSH2 0x1CA7 JUMP JUMPDEST DUP1 ISZERO PUSH2 0xB0B JUMPI DUP1 PUSH1 0x1F LT PUSH2 0xAE0 JUMPI PUSH2 0x100 DUP1 DUP4 SLOAD DIV MUL DUP4 MSTORE SWAP2 PUSH1 0x20 ADD SWAP2 PUSH2 0xB0B JUMP JUMPDEST DUP3 ADD SWAP2 SWAP1 PUSH1 0x0 MSTORE PUSH1 0x20 PUSH1 0x0 KECCAK256 SWAP1 JUMPDEST DUP2 SLOAD DUP2 MSTORE SWAP1 PUSH1 0x1 ADD SWAP1 PUSH1 0x20 ADD DUP1 DUP4 GT PUSH2 0xAEE JUMPI DUP3 SWAP1 SUB PUSH1 0x1F AND DUP3 ADD SWAP2 JUMPDEST POP POP POP POP POP SWAP1 POP SWAP1 JUMP JUMPDEST PUSH1 0x0 DUP1 PUSH2 0xB20 PUSH2 0xFAD JUMP JUMPDEST SWAP1 POP PUSH1 0x0 PUSH2 0xB2E DUP3 DUP7 PUSH2 0xF18 JUMP JUMPDEST SWAP1 POP DUP4 DUP2 LT ISZERO PUSH2 0xB73 JUMPI PUSH1 0x40 MLOAD PUSH32 0x8C379A000000000000000000000000000000000000000000000000000000000 DUP2 MSTORE PUSH1 0x4 ADD PUSH2 0xB6A SWAP1 PUSH2 0x2073 JUMP JUMPDEST PUSH1 0x40 MLOAD DUP1 SWAP2 SUB SWAP1 REVERT JUMPDEST PUSH2 0xB80 DUP3 DUP7 DUP7 DUP5 SUB PUSH2 0xFB5 JUMP JUMPDEST PUSH1 0x1 SWAP3 POP POP POP SWAP3 SWAP2 POP POP JUMP JUMPDEST PUSH1 0x8 DUP2 PUSH1 0x64 DUP2 LT PUSH2 0xB9C JUMPI PUSH1 0x0 DUP1 REVERT JUMPDEST PUSH1 0x5 MUL ADD PUSH1 0x0 SWAP2 POP SWAP1 POP DUP1 PUSH1 0x0 ADD DUP1 SLOAD PUSH2 0xBB5 SWAP1 PUSH2 0x1CA7 JUMP JUMPDEST DUP1 PUSH1 0x1F ADD PUSH1 0x20 DUP1 SWAP2 DIV MUL PUSH1 0x20 ADD PUSH1 0x40 MLOAD SWAP1 DUP2 ADD PUSH1 0x40 MSTORE DUP1 SWAP3 SWAP2 SWAP1 DUP2 DUP2 MSTORE PUSH1 0x20 ADD DUP3 DUP1 SLOAD PUSH2 0xBE1 SWAP1 PUSH2 0x1CA7 JUMP JUMPDEST DUP1 ISZERO PUSH2 0xC2E JUMPI DUP1 PUSH1 0x1F LT PUSH2 0xC03 JUMPI PUSH2 0x100 DUP1 DUP4 SLOAD DIV MUL DUP4 MSTORE SWAP2 PUSH1 0x20 ADD SWAP2 PUSH2 0xC2E JUMP JUMPDEST DUP3 ADD SWAP2 SWAP1 PUSH1 0x0 MSTORE PUSH1 0x20 PUSH1 0x0 KECCAK256 SWAP1 JUMPDEST DUP2 SLOAD DUP2 MSTORE SWAP1 PUSH1 0x1 ADD SWAP1 PUSH1 0x20 ADD DUP1 DUP4 GT PUSH2 0xC11 JUMPI DUP3 SWAP1 SUB PUSH1 0x1F AND DUP3 ADD SWAP2 JUMPDEST POP POP POP POP POP SWAP1 DUP1 PUSH1 0x1 ADD DUP1 SLOAD PUSH2 0xC43 SWAP1 PUSH2 0x1CA7 JUMP JUMPDEST DUP1 PUSH1 0x1F ADD PUSH1 0x20 DUP1 SWAP2 DIV MUL PUSH1 0x20 ADD PUSH1 0x40 MLOAD SWAP1 DUP2 ADD PUSH1 0x40 MSTORE DUP1 SWAP3 SWAP2 SWAP1 DUP2 DUP2 MSTORE PUSH1 0x20 ADD DUP3 DUP1 SLOAD PUSH2 0xC6F SWAP1 PUSH2 0x1CA7 JUMP JUMPDEST DUP1 ISZERO PUSH2 0xCBC JUMPI DUP1 PUSH1 0x1F LT PUSH2 0xC91 JUMPI PUSH2 0x100 DUP1 DUP4 SLOAD DIV MUL DUP4 MSTORE SWAP2 PUSH1 0x20 ADD SWAP2 PUSH2 0xCBC JUMP JUMPDEST DUP3 ADD SWAP2 SWAP1 PUSH1 0x0 MSTORE PUSH1 0x20 PUSH1 0x0 KECCAK256 SWAP1 JUMPDEST DUP2 SLOAD DUP2 MSTORE SWAP1 PUSH1 0x1 ADD SWAP1 PUSH1 0x20 ADD DUP1 DUP4 GT PUSH2 0xC9F JUMPI DUP3 SWAP1 SUB PUSH1 0x1F AND DUP3 ADD SWAP2 JUMPDEST POP POP POP POP POP SWAP1 DUP1 PUSH1 0x2 ADD SLOAD SWAP1 DUP1 PUSH1 0x3 ADD SLOAD SWAP1 DUP1 PUSH1 0x4 ADD SLOAD SWAP1 POP DUP6 JUMP JUMPDEST PUSH1 0x0 DUP1 PUSH2 0xCE3 PUSH2 0xFAD JUMP JUMPDEST SWAP1 POP PUSH2 0xCF0 DUP2 DUP6 DUP6 PUSH2 0x120A JUMP JUMPDEST PUSH1 0x1 SWAP2 POP POP SWAP3 SWAP2 POP POP JUMP JUMPDEST PUSH1 0x7 DUP1 SLOAD PUSH2 0xD08 SWAP1 PUSH2 0x1CA7 JUMP JUMPDEST DUP1 PUSH1 0x1F ADD PUSH1 0x20 DUP1 SWAP2 DIV MUL PUSH1 0x20 ADD PUSH1 0x40 MLOAD SWAP1 DUP2 ADD PUSH1 0x40 MSTORE DUP1 SWAP3 SWAP2 SWAP1 DUP2 DUP2 MSTORE PUSH1 0x20 ADD DUP3 DUP1 SLOAD PUSH2 0xD34 SWAP1 PUSH2 0x1CA7 JUMP JUMPDEST DUP1 ISZERO PUSH2 0xD81 JUMPI DUP1 PUSH1 0x1F LT PUSH2 0xD56 JUMPI PUSH2 0x100 DUP1 DUP4 SLOAD DIV MUL DUP4 MSTORE SWAP2 PUSH1 0x20 ADD SWAP2 PUSH2 0xD81 JUMP JUMPDEST DUP3 ADD SWAP2 SWAP1 PUSH1 0x0 MSTORE PUSH1 0x20 PUSH1 0x0 KECCAK256 SWAP1 JUMPDEST DUP2 SLOAD DUP2 MSTORE SWAP1 PUSH1 0x1 ADD SWAP1 PUSH1 0x20 ADD DUP1 DUP4 GT PUSH2 0xD64 JUMPI DUP3 SWAP1 SUB PUSH1 0x1F AND DUP3 ADD SWAP2 JUMPDEST POP POP POP POP POP DUP2 JUMP JUMPDEST PUSH1 0x64 PUSH2 0x200 SLOAD LT ISZERO PUSH2 0xE34 JUMPI PUSH2 0xD9D PUSH2 0x15E0 JUMP JUMPDEST DUP3 DUP2 PUSH1 0x0 ADD DUP2 SWAP1 MSTORE POP DUP2 DUP2 PUSH1 0x80 ADD DUP2 DUP2 MSTORE POP POP DUP1 PUSH1 0x8 PUSH2 0x200 SLOAD PUSH1 0x64 DUP2 LT PUSH2 0xDC8 JUMPI PUSH2 0xDC7 PUSH2 0x2093 JUMP JUMPDEST JUMPDEST PUSH1 0x5 MUL ADD PUSH1 0x0 DUP3 ADD MLOAD DUP2 PUSH1 0x0 ADD SWAP1 DUP2 PUSH2 0xDE1 SWAP2 SWAP1 PUSH2 0x1EE7 JUMP JUMPDEST POP PUSH1 0x20 DUP3 ADD MLOAD DUP2 PUSH1 0x1 ADD SWAP1 DUP2 PUSH2 0xDF7 SWAP2 SWAP1 PUSH2 0x1EE7 JUMP JUMPDEST POP PUSH1 0x40 DUP3 ADD MLOAD DUP2 PUSH1 0x2 ADD SSTORE PUSH1 0x60 DUP3 ADD MLOAD DUP2 PUSH1 0x3 ADD SSTORE PUSH1 0x80 DUP3 ADD MLOAD DUP2 PUSH1 0x4 ADD SSTORE SWAP1 POP POP PUSH2 0x200 PUSH1 0x0 DUP2 SLOAD DUP1 SWAP3 SWAP2 SWAP1 PUSH2 0xE2D SWAP1 PUSH2 0x1FB9 JUMP JUMPDEST SWAP2 SWAP1 POP SSTORE POP POP JUMPDEST POP POP JUMP JUMPDEST DUP2 DUP2 DUP1 PUSH2 0x1FD PUSH1 0x0 DUP5 DUP2 MSTORE PUSH1 0x20 ADD SWAP1 DUP2 MSTORE PUSH1 0x20 ADD PUSH1 0x0 KECCAK256 PUSH1 0x4 ADD SLOAD GT PUSH2 0xE5D JUMPI PUSH1 0x0 DUP1 REVERT JUMPDEST DUP3 PUSH2 0x1FD PUSH1 0x0 DUP7 DUP2 MSTORE PUSH1 0x20 ADD SWAP1 DUP2 MSTORE PUSH1 0x20 ADD PUSH1 0x0 KECCAK256 PUSH1 0x4 ADD SLOAD GT ISZERO PUSH2 0xF12 JUMPI PUSH1 0x0 PUSH2 0x1FD PUSH1 0x0 DUP7 DUP2 MSTORE PUSH1 0x20 ADD SWAP1 DUP2 MSTORE PUSH1 0x20 ADD PUSH1 0x0 KECCAK256 PUSH1 0x3 ADD SLOAD DUP5 PUSH2 0xEA1 SWAP2 SWAP1 PUSH2 0x20C2 JUMP JUMPDEST SWAP1 POP PUSH2 0xED1 CALLER PUSH2 0x201 PUSH1 0x0 SWAP1 SLOAD SWAP1 PUSH2 0x100 EXP SWAP1 DIV PUSH20 0xFFFFFFFFFFFFFFFFFFFFFFFFFFFFFFFFFFFFFFFF AND DUP4 PUSH2 0x5E0 JUMP JUMPDEST POP DUP4 PUSH2 0x1FD PUSH1 0x0 DUP8 DUP2 MSTORE PUSH1 0x20 ADD SWAP1 DUP2 MSTORE PUSH1 0x20 ADD PUSH1 0x0 KECCAK256 PUSH1 0x4 ADD SLOAD PUSH2 0xEF5 SWAP2 SWAP1 PUSH2 0x2104 JUMP JUMPDEST PUSH2 0x1FD PUSH1 0x0 DUP8 DUP2 MSTORE PUSH1 0x20 ADD SWAP1 DUP2 MSTORE PUSH1 0x20 ADD PUSH1 0x0 KECCAK256 PUSH1 0x4 ADD DUP2 SWAP1 SSTORE POP POP JUMPDEST POP POP POP POP JUMP JUMPDEST PUSH1 0x0 PUSH1 0x1 PUSH1 0x0 DUP5 PUSH20 0xFFFFFFFFFFFFFFFFFFFFFFFFFFFFFFFFFFFFFFFF AND PUSH20 0xFFFFFFFFFFFFFFFFFFFFFFFFFFFFFFFFFFFFFFFF AND DUP2 MSTORE PUSH1 0x20 ADD SWAP1 DUP2 MSTORE PUSH1 0x20 ADD PUSH1 0x0 KECCAK256 PUSH1 0x0 DUP4 PUSH20 0xFFFFFFFFFFFFFFFFFFFFFFFFFFFFFFFFFFFFFFFF AND PUSH20 0xFFFFFFFFFFFFFFFFFFFFFFFFFFFFFFFFFFFFFFFF AND DUP2 MSTORE PUSH1 0x20 ADD SWAP1 DUP2 MSTORE PUSH1 0x20 ADD PUSH1 0x0 KECCAK256 SLOAD SWAP1 POP SWAP3 SWAP2 POP POP JUMP JUMPDEST PUSH2 0xFA9 DUP3 DUP3 PUSH2 0x1480 JUMP JUMPDEST POP POP JUMP JUMPDEST PUSH1 0x0 CALLER SWAP1 POP SWAP1 JUMP JUMPDEST PUSH1 0x0 PUSH20 0xFFFFFFFFFFFFFFFFFFFFFFFFFFFFFFFFFFFFFFFF AND DUP4 PUSH20 0xFFFFFFFFFFFFFFFFFFFFFFFFFFFFFFFFFFFFFFFF AND SUB PUSH2 0x1024 JUMPI PUSH1 0x40 MLOAD PUSH32 0x8C379A000000000000000000000000000000000000000000000000000000000 DUP2 MSTORE PUSH1 0x4 ADD PUSH2 0x101B SWAP1 PUSH2 0x21AA JUMP JUMPDEST PUSH1 0x40 MLOAD DUP1 SWAP2 SUB SWAP1 REVERT JUMPDEST PUSH1 0x0 PUSH20 0xFFFFFFFFFFFFFFFFFFFFFFFFFFFFFFFFFFFFFFFF AND DUP3 PUSH20 0xFFFFFFFFFFFFFFFFFFFFFFFFFFFFFFFFFFFFFFFF AND SUB PUSH2 0x1093 JUMPI PUSH1 0x40 MLOAD PUSH32 0x8C379A000000000000000000000000000000000000000000000000000000000 DUP2 MSTORE PUSH1 0x4 ADD PUSH2 0x108A SWAP1 PUSH2 0x223C JUMP JUMPDEST PUSH1 0x40 MLOAD DUP1 SWAP2 SUB SWAP1 REVERT JUMPDEST DUP1 PUSH1 0x1 PUSH1 0x0 DUP6 PUSH20 0xFFFFFFFFFFFFFFFFFFFFFFFFFFFFFFFFFFFFFFFF AND PUSH20 0xFFFFFFFFFFFFFFFFFFFFFFFFFFFFFFFFFFFFFFFF AND DUP2 MSTORE PUSH1 0x20 ADD SWAP1 DUP2 MSTORE PUSH1 0x20 ADD PUSH1 0x0 KECCAK256 PUSH1 0x0 DUP5 PUSH20 0xFFFFFFFFFFFFFFFFFFFFFFFFFFFFFFFFFFFFFFFF AND PUSH20 0xFFFFFFFFFFFFFFFFFFFFFFFFFFFFFFFFFFFFFFFF AND DUP2 MSTORE PUSH1 0x20 ADD SWAP1 DUP2 MSTORE PUSH1 0x20 ADD PUSH1 0x0 KECCAK256 DUP2 SWAP1 SSTORE POP DUP2 PUSH20 0xFFFFFFFFFFFFFFFFFFFFFFFFFFFFFFFFFFFFFFFF AND DUP4 PUSH20 0xFFFFFFFFFFFFFFFFFFFFFFFFFFFFFFFFFFFFFFFF AND PUSH32 0x8C5BE1E5EBEC7D5BD14F71427D1E84F3DD0314C0F7B2291E5B200AC8C7C3B925 DUP4 PUSH1 0x40 MLOAD PUSH2 0x1171 SWAP2 SWAP1 PUSH2 0x17EE JUMP JUMPDEST PUSH1 0x40 MLOAD DUP1 SWAP2 SUB SWAP1 LOG3 POP POP POP JUMP JUMPDEST PUSH1 0x0 PUSH2 0x118A DUP5 DUP5 PUSH2 0xF18 JUMP JUMPDEST SWAP1 POP PUSH32 0xFFFFFFFFFFFFFFFFFFFFFFFFFFFFFFFFFFFFFFFFFFFFFFFFFFFFFFFFFFFFFFFF DUP2 EQ PUSH2 0x1204 JUMPI DUP2 DUP2 LT ISZERO PUSH2 0x11F6 JUMPI PUSH1 0x40 MLOAD PUSH32 0x8C379A000000000000000000000000000000000000000000000000000000000 DUP2 MSTORE PUSH1 0x4 ADD PUSH2 0x11ED SWAP1 PUSH2 0x22A8 JUMP JUMPDEST PUSH1 0x40 MLOAD DUP1 SWAP2 SUB SWAP1 REVERT JUMPDEST PUSH2 0x1203 DUP5 DUP5 DUP5 DUP5 SUB PUSH2 0xFB5 JUMP JUMPDEST JUMPDEST POP POP POP POP JUMP JUMPDEST PUSH1 0x0 PUSH20 0xFFFFFFFFFFFFFFFFFFFFFFFFFFFFFFFFFFFFFFFF AND DUP4 PUSH20 0xFFFFFFFFFFFFFFFFFFFFFFFFFFFFFFFFFFFFFFFF AND SUB PUSH2 0x1279 JUMPI PUSH1 0x40 MLOAD PUSH32 0x8C379A000000000000000000000000000000000000000000000000000000000 DUP2 MSTORE PUSH1 0x4 ADD PUSH2 0x1270 SWAP1 PUSH2 0x233A JUMP JUMPDEST PUSH1 0x40 MLOAD DUP1 SWAP2 SUB SWAP1 REVERT JUMPDEST PUSH1 0x0 PUSH20 0xFFFFFFFFFFFFFFFFFFFFFFFFFFFFFFFFFFFFFFFF AND DUP3 PUSH20 0xFFFFFFFFFFFFFFFFFFFFFFFFFFFFFFFFFFFFFFFF AND SUB PUSH2 0x12E8 JUMPI PUSH1 0x40 MLOAD PUSH32 0x8C379A000000000000000000000000000000000000000000000000000000000 DUP2 MSTORE PUSH1 0x4 ADD PUSH2 0x12DF SWAP1 PUSH2 0x23CC JUMP JUMPDEST PUSH1 0x40 MLOAD DUP1 SWAP2 SUB SWAP1 REVERT JUMPDEST PUSH2 0x12F3 DUP4 DUP4 DUP4 PUSH2 0x15D6 JUMP JUMPDEST PUSH1 0x0 DUP1 PUSH1 0x0 DUP6 PUSH20 0xFFFFFFFFFFFFFFFFFFFFFFFFFFFFFFFFFFFFFFFF AND PUSH20 0xFFFFFFFFFFFFFFFFFFFFFFFFFFFFFFFFFFFFFFFF AND DUP2 MSTORE PUSH1 0x20 ADD SWAP1 DUP2 MSTORE PUSH1 0x20 ADD PUSH1 0x0 KECCAK256 SLOAD SWAP1 POP DUP2 DUP2 LT ISZERO PUSH2 0x1379 JUMPI PUSH1 0x40 MLOAD PUSH32 0x8C379A000000000000000000000000000000000000000000000000000000000 DUP2 MSTORE PUSH1 0x4 ADD PUSH2 0x1370 SWAP1 PUSH2 0x245E JUMP JUMPDEST PUSH1 0x40 MLOAD DUP1 SWAP2 SUB SWAP1 REVERT JUMPDEST DUP2 DUP2 SUB PUSH1 0x0 DUP1 DUP7 PUSH20 0xFFFFFFFFFFFFFFFFFFFFFFFFFFFFFFFFFFFFFFFF AND PUSH20 0xFFFFFFFFFFFFFFFFFFFFFFFFFFFFFFFFFFFFFFFF AND DUP2 MSTORE PUSH1 0x20 ADD SWAP1 DUP2 MSTORE PUSH1 0x20 ADD PUSH1 0x0 KECCAK256 DUP2 SWAP1 SSTORE POP DUP2 PUSH1 0x0 DUP1 DUP6 PUSH20 0xFFFFFFFFFFFFFFFFFFFFFFFFFFFFFFFFFFFFFFFF AND PUSH20 0xFFFFFFFFFFFFFFFFFFFFFFFFFFFFFFFFFFFFFFFF AND DUP2 MSTORE PUSH1 0x20 ADD SWAP1 DUP2 MSTORE PUSH1 0x20 ADD PUSH1 0x0 KECCAK256 PUSH1 0x0 DUP3 DUP3 SLOAD ADD SWAP3 POP POP DUP2 SWAP1 SSTORE POP DUP3 PUSH20 0xFFFFFFFFFFFFFFFFFFFFFFFFFFFFFFFFFFFFFFFF AND DUP5 PUSH20 0xFFFFFFFFFFFFFFFFFFFFFFFFFFFFFFFFFFFFFFFF AND PUSH32 0xDDF252AD1BE2C89B69C2B068FC378DAA952BA7F163C4A11628F55A4DF523B3EF DUP5 PUSH1 0x40 MLOAD PUSH2 0x1467 SWAP2 SWAP1 PUSH2 0x17EE JUMP JUMPDEST PUSH1 0x40 MLOAD DUP1 SWAP2 SUB SWAP1 LOG3 PUSH2 0x147A DUP5 DUP5 DUP5 PUSH2 0x15DB JUMP JUMPDEST POP POP POP POP JUMP JUMPDEST PUSH1 0x0 PUSH20 0xFFFFFFFFFFFFFFFFFFFFFFFFFFFFFFFFFFFFFFFF AND DUP3 PUSH20 0xFFFFFFFFFFFFFFFFFFFFFFFFFFFFFFFFFFFFFFFF AND SUB PUSH2 0x14EF JUMPI PUSH1 0x40 MLOAD PUSH32 0x8C379A000000000000000000000000000000000000000000000000000000000 DUP2 MSTORE PUSH1 0x4 ADD PUSH2 0x14E6 SWAP1 PUSH2 0x24CA JUMP JUMPDEST PUSH1 0x40 MLOAD DUP1 SWAP2 SUB SWAP1 REVERT JUMPDEST PUSH2 0x14FB PUSH1 0x0 DUP4 DUP4 PUSH2 0x15D6 JUMP JUMPDEST DUP1 PUSH1 0x2 PUSH1 0x0 DUP3 DUP3 SLOAD PUSH2 0x150D SWAP2 SWAP1 PUSH2 0x1D07 JUMP JUMPDEST SWAP3 POP POP DUP2 SWAP1 SSTORE POP DUP1 PUSH1 0x0 DUP1 DUP5 PUSH20 0xFFFFFFFFFFFFFFFFFFFFFFFFFFFFFFFFFFFFFFFF AND PUSH20 0xFFFFFFFFFFFFFFFFFFFFFFFFFFFFFFFFFFFFFFFF AND DUP2 MSTORE PUSH1 0x20 ADD SWAP1 DUP2 MSTORE PUSH1 0x20 ADD PUSH1 0x0 KECCAK256 PUSH1 0x0 DUP3 DUP3 SLOAD ADD SWAP3 POP POP DUP2 SWAP1 SSTORE POP DUP2 PUSH20 0xFFFFFFFFFFFFFFFFFFFFFFFFFFFFFFFFFFFFFFFF AND PUSH1 0x0 PUSH20 0xFFFFFFFFFFFFFFFFFFFFFFFFFFFFFFFFFFFFFFFF AND PUSH32 0xDDF252AD1BE2C89B69C2B068FC378DAA952BA7F163C4A11628F55A4DF523B3EF DUP4 PUSH1 0x40 MLOAD PUSH2 0x15BE SWAP2 SWAP1 PUSH2 0x17EE JUMP JUMPDEST PUSH1 0x40 MLOAD DUP1 SWAP2 SUB SWAP1 LOG3 PUSH2 0x15D2 PUSH1 0x0 DUP4 DUP4 PUSH2 0x15DB JUMP JUMPDEST POP POP JUMP JUMPDEST POP POP POP JUMP JUMPDEST POP POP POP JUMP JUMPDEST PUSH1 0x40 MLOAD DUP1 PUSH1 0xA0 ADD PUSH1 0x40 MSTORE DUP1 PUSH1 0x60 DUP2 MSTORE PUSH1 0x20 ADD PUSH1 0x60 DUP2 MSTORE PUSH1 0x20 ADD PUSH1 0x0 DUP2 MSTORE PUSH1 0x20 ADD PUSH1 0x0 DUP2 MSTORE PUSH1 0x20 ADD PUSH1 0x0 DUP2 MSTORE POP SWAP1 JUMP JUMPDEST PUSH1 0x0 DUP2 MLOAD SWAP1 POP SWAP2 SWAP1 POP JUMP JUMPDEST PUSH1 0x0 DUP3 DUP3 MSTORE PUSH1 0x20 DUP3 ADD SWAP1 POP SWAP3 SWAP2 POP POP JUMP JUMPDEST PUSH1 0x0 JUMPDEST DUP4 DUP2 LT ISZERO PUSH2 0x1649 JUMPI DUP1 DUP3 ADD MLOAD DUP2 DUP5 ADD MSTORE PUSH1 0x20 DUP2 ADD SWAP1 POP PUSH2 0x162E JUMP JUMPDEST PUSH1 0x0 DUP5 DUP5 ADD MSTORE POP POP POP POP JUMP JUMPDEST PUSH1 0x0 PUSH1 0x1F NOT PUSH1 0x1F DUP4 ADD AND SWAP1 POP SWAP2 SWAP1 POP JUMP JUMPDEST PUSH1 0x0 PUSH2 0x1671 DUP3 PUSH2 0x160F JUMP JUMPDEST PUSH2 0x167B DUP2 DUP6 PUSH2 0x161A JUMP JUMPDEST SWAP4 POP PUSH2 0x168B DUP2 DUP6 PUSH1 0x20 DUP7 ADD PUSH2 0x162B JUMP JUMPDEST PUSH2 0x1694 DUP2 PUSH2 0x1655 JUMP JUMPDEST DUP5 ADD SWAP2 POP POP SWAP3 SWAP2 POP POP JUMP JUMPDEST PUSH1 0x0 PUSH1 0x20 DUP3 ADD SWAP1 POP DUP2 DUP2 SUB PUSH1 0x0 DUP4 ADD MSTORE PUSH2 0x16B9 DUP2 DUP5 PUSH2 0x1666 JUMP JUMPDEST SWAP1 POP SWAP3 SWAP2 POP POP JUMP JUMPDEST PUSH1 0x0 PUSH1 0x40 MLOAD SWAP1 POP SWAP1 JUMP JUMPDEST PUSH1 0x0 DUP1 REVERT JUMPDEST PUSH1 0x0 DUP1 REVERT JUMPDEST PUSH1 0x0 PUSH20 0xFFFFFFFFFFFFFFFFFFFFFFFFFFFFFFFFFFFFFFFF DUP3 AND SWAP1 POP SWAP2 SWAP1 POP JUMP JUMPDEST PUSH1 0x0 PUSH2 0x1700 DUP3 PUSH2 0x16D5 JUMP JUMPDEST SWAP1 POP SWAP2 SWAP1 POP JUMP JUMPDEST PUSH2 0x1710 DUP2 PUSH2 0x16F5 JUMP JUMPDEST DUP2 EQ PUSH2 0x171B JUMPI PUSH1 0x0 DUP1 REVERT JUMPDEST POP JUMP JUMPDEST PUSH1 0x0 DUP2 CALLDATALOAD SWAP1 POP PUSH2 0x172D DUP2 PUSH2 0x1707 JUMP JUMPDEST SWAP3 SWAP2 POP POP JUMP JUMPDEST PUSH1 0x0 DUP2 SWAP1 POP SWAP2 SWAP1 POP JUMP JUMPDEST PUSH2 0x1746 DUP2 PUSH2 0x1733 JUMP JUMPDEST DUP2 EQ PUSH2 0x1751 JUMPI PUSH1 0x0 DUP1 REVERT JUMPDEST POP JUMP JUMPDEST PUSH1 0x0 DUP2 CALLDATALOAD SWAP1 POP PUSH2 0x1763 DUP2 PUSH2 0x173D JUMP JUMPDEST SWAP3 SWAP2 POP POP JUMP JUMPDEST PUSH1 0x0 DUP1 PUSH1 0x40 DUP4 DUP6 SUB SLT ISZERO PUSH2 0x1780 JUMPI PUSH2 0x177F PUSH2 0x16CB JUMP JUMPDEST JUMPDEST PUSH1 0x0 PUSH2 0x178E DUP6 DUP3 DUP7 ADD PUSH2 0x171E JUMP JUMPDEST SWAP3 POP POP PUSH1 0x20 PUSH2 0x179F DUP6 DUP3 DUP7 ADD PUSH2 0x1754 JUMP JUMPDEST SWAP2 POP POP SWAP3 POP SWAP3 SWAP1 POP JUMP JUMPDEST PUSH1 0x0 DUP2 ISZERO ISZERO SWAP1 POP SWAP2 SWAP1 POP JUMP JUMPDEST PUSH2 0x17BE DUP2 PUSH2 0x17A9 JUMP JUMPDEST DUP3 MSTORE POP POP JUMP JUMPDEST PUSH1 0x0 PUSH1 0x20 DUP3 ADD SWAP1 POP PUSH2 0x17D9 PUSH1 0x0 DUP4 ADD DUP5 PUSH2 0x17B5 JUMP JUMPDEST SWAP3 SWAP2 POP POP JUMP JUMPDEST PUSH2 0x17E8 DUP2 PUSH2 0x1733 JUMP JUMPDEST DUP3 MSTORE POP POP JUMP JUMPDEST PUSH1 0x0 PUSH1 0x20 DUP3 ADD SWAP1 POP PUSH2 0x1803 PUSH1 0x0 DUP4 ADD DUP5 PUSH2 0x17DF JUMP JUMPDEST SWAP3 SWAP2 POP POP JUMP JUMPDEST PUSH1 0x0 DUP1 PUSH1 0x0 PUSH1 0x60 DUP5 DUP7 SUB SLT ISZERO PUSH2 0x1822 JUMPI PUSH2 0x1821 PUSH2 0x16CB JUMP JUMPDEST JUMPDEST PUSH1 0x0 PUSH2 0x1830 DUP7 DUP3 DUP8 ADD PUSH2 0x171E JUMP JUMPDEST SWAP4 POP POP PUSH1 0x20 PUSH2 0x1841 DUP7 DUP3 DUP8 ADD PUSH2 0x171E JUMP JUMPDEST SWAP3 POP POP PUSH1 0x40 PUSH2 0x1852 DUP7 DUP3 DUP8 ADD PUSH2 0x1754 JUMP JUMPDEST SWAP2 POP POP SWAP3 POP SWAP3 POP SWAP3 JUMP JUMPDEST PUSH1 0x0 PUSH1 0x20 DUP3 DUP5 SUB SLT ISZERO PUSH2 0x1872 JUMPI PUSH2 0x1871 PUSH2 0x16CB JUMP JUMPDEST JUMPDEST PUSH1 0x0 PUSH2 0x1880 DUP5 DUP3 DUP6 ADD PUSH2 0x1754 JUMP JUMPDEST SWAP2 POP POP SWAP3 SWAP2 POP POP JUMP JUMPDEST PUSH1 0x0 PUSH1 0xA0 DUP3 ADD SWAP1 POP DUP2 DUP2 SUB PUSH1 0x0 DUP4 ADD MSTORE PUSH2 0x18A3 DUP2 DUP9 PUSH2 0x1666 JUMP JUMPDEST SWAP1 POP DUP2 DUP2 SUB PUSH1 0x20 DUP4 ADD MSTORE PUSH2 0x18B7 DUP2 DUP8 PUSH2 0x1666 JUMP JUMPDEST SWAP1 POP PUSH2 0x18C6 PUSH1 0x40 DUP4 ADD DUP7 PUSH2 0x17DF JUMP JUMPDEST PUSH2 0x18D3 PUSH1 0x60 DUP4 ADD DUP6 PUSH2 0x17DF JUMP JUMPDEST PUSH2 0x18E0 PUSH1 0x80 DUP4 ADD DUP5 PUSH2 0x17DF JUMP JUMPDEST SWAP7 SWAP6 POP POP POP POP POP POP JUMP JUMPDEST PUSH1 0x0 PUSH1 0xFF DUP3 AND SWAP1 POP SWAP2 SWAP1 POP JUMP JUMPDEST PUSH2 0x1900 DUP2 PUSH2 0x18EA JUMP JUMPDEST DUP3 MSTORE POP POP JUMP JUMPDEST PUSH1 0x0 PUSH1 0x20 DUP3 ADD SWAP1 POP PUSH2 0x191B PUSH1 0x0 DUP4 ADD DUP5 PUSH2 0x18F7 JUMP JUMPDEST SWAP3 SWAP2 POP POP JUMP JUMPDEST PUSH1 0x0 PUSH1 0x20 DUP3 DUP5 SUB SLT ISZERO PUSH2 0x1937 JUMPI PUSH2 0x1936 PUSH2 0x16CB JUMP JUMPDEST JUMPDEST PUSH1 0x0 PUSH2 0x1945 DUP5 DUP3 DUP6 ADD PUSH2 0x171E JUMP JUMPDEST SWAP2 POP POP SWAP3 SWAP2 POP POP JUMP JUMPDEST PUSH2 0x1957 DUP2 PUSH2 0x16F5 JUMP JUMPDEST DUP3 MSTORE POP POP JUMP JUMPDEST PUSH1 0x0 PUSH1 0x20 DUP3 ADD SWAP1 POP PUSH2 0x1972 PUSH1 0x0 DUP4 ADD DUP5 PUSH2 0x194E JUMP JUMPDEST SWAP3 SWAP2 POP POP JUMP JUMPDEST PUSH1 0x0 PUSH2 0x1983 DUP3 PUSH2 0x16D5 JUMP JUMPDEST SWAP1 POP SWAP2 SWAP1 POP JUMP JUMPDEST PUSH2 0x1993 DUP2 PUSH2 0x1978 JUMP JUMPDEST DUP3 MSTORE POP POP JUMP JUMPDEST PUSH1 0x0 PUSH1 0x20 DUP3 ADD SWAP1 POP PUSH2 0x19AE PUSH1 0x0 DUP4 ADD DUP5 PUSH2 0x198A JUMP JUMPDEST SWAP3 SWAP2 POP POP JUMP JUMPDEST PUSH1 0x0 DUP1 REVERT JUMPDEST PUSH1 0x0 DUP1 REVERT JUMPDEST PUSH32 0x4E487B7100000000000000000000000000000000000000000000000000000000 PUSH1 0x0 MSTORE PUSH1 0x41 PUSH1 0x4 MSTORE PUSH1 0x24 PUSH1 0x0 REVERT JUMPDEST PUSH2 0x19F6 DUP3 PUSH2 0x1655 JUMP JUMPDEST DUP2 ADD DUP2 DUP2 LT PUSH8 0xFFFFFFFFFFFFFFFF DUP3 GT OR ISZERO PUSH2 0x1A15 JUMPI PUSH2 0x1A14 PUSH2 0x19BE JUMP JUMPDEST JUMPDEST DUP1 PUSH1 0x40 MSTORE POP POP POP JUMP JUMPDEST PUSH1 0x0 PUSH2 0x1A28 PUSH2 0x16C1 JUMP JUMPDEST SWAP1 POP PUSH2 0x1A34 DUP3 DUP3 PUSH2 0x19ED JUMP JUMPDEST SWAP2 SWAP1 POP JUMP JUMPDEST PUSH1 0x0 PUSH8 0xFFFFFFFFFFFFFFFF DUP3 GT ISZERO PUSH2 0x1A54 JUMPI PUSH2 0x1A53 PUSH2 0x19BE JUMP JUMPDEST JUMPDEST PUSH2 0x1A5D DUP3 PUSH2 0x1655 JUMP JUMPDEST SWAP1 POP PUSH1 0x20 DUP2 ADD SWAP1 POP SWAP2 SWAP1 POP JUMP JUMPDEST DUP3 DUP2 DUP4 CALLDATACOPY PUSH1 0x0 DUP4 DUP4 ADD MSTORE POP POP POP JUMP JUMPDEST PUSH1 0x0 PUSH2 0x1A8C PUSH2 0x1A87 DUP5 PUSH2 0x1A39 JUMP JUMPDEST PUSH2 0x1A1E JUMP JUMPDEST SWAP1 POP DUP3 DUP2 MSTORE PUSH1 0x20 DUP2 ADD DUP5 DUP5 DUP5 ADD GT ISZERO PUSH2 0x1AA8 JUMPI PUSH2 0x1AA7 PUSH2 0x19B9 JUMP JUMPDEST JUMPDEST PUSH2 0x1AB3 DUP5 DUP3 DUP6 PUSH2 0x1A6A JUMP JUMPDEST POP SWAP4 SWAP3 POP POP POP JUMP JUMPDEST PUSH1 0x0 DUP3 PUSH1 0x1F DUP4 ADD SLT PUSH2 0x1AD0 JUMPI PUSH2 0x1ACF PUSH2 0x19B4 JUMP JUMPDEST JUMPDEST DUP2 CALLDATALOAD PUSH2 0x1AE0 DUP5 DUP3 PUSH1 0x20 DUP7 ADD PUSH2 0x1A79 JUMP JUMPDEST SWAP2 POP POP SWAP3 SWAP2 POP POP JUMP JUMPDEST PUSH1 0x0 DUP1 PUSH1 0x0 DUP1 PUSH1 0x0 PUSH1 0xA0 DUP7 DUP9 SUB SLT ISZERO PUSH2 0x1B05 JUMPI PUSH2 0x1B04 PUSH2 0x16CB JUMP JUMPDEST JUMPDEST PUSH1 0x0 DUP7 ADD CALLDATALOAD PUSH8 0xFFFFFFFFFFFFFFFF DUP2 GT ISZERO PUSH2 0x1B23 JUMPI PUSH2 0x1B22 PUSH2 0x16D0 JUMP JUMPDEST JUMPDEST PUSH2 0x1B2F DUP9 DUP3 DUP10 ADD PUSH2 0x1ABB JUMP JUMPDEST SWAP6 POP POP PUSH1 0x20 PUSH2 0x1B40 DUP9 DUP3 DUP10 ADD PUSH2 0x1754 JUMP JUMPDEST SWAP5 POP POP PUSH1 0x40 PUSH2 0x1B51 DUP9 DUP3 DUP10 ADD PUSH2 0x1754 JUMP JUMPDEST SWAP4 POP POP PUSH1 0x60 DUP7 ADD CALLDATALOAD PUSH8 0xFFFFFFFFFFFFFFFF DUP2 GT ISZERO PUSH2 0x1B72 JUMPI PUSH2 0x1B71 PUSH2 0x16D0 JUMP JUMPDEST JUMPDEST PUSH2 0x1B7E DUP9 DUP3 DUP10 ADD PUSH2 0x1ABB JUMP JUMPDEST SWAP3 POP POP PUSH1 0x80 PUSH2 0x1B8F DUP9 DUP3 DUP10 ADD PUSH2 0x1754 JUMP JUMPDEST SWAP2 POP POP SWAP3 SWAP6 POP SWAP3 SWAP6 SWAP1 SWAP4 POP JUMP JUMPDEST PUSH1 0x0 DUP1 PUSH1 0x40 DUP4 DUP6 SUB SLT ISZERO PUSH2 0x1BB3 JUMPI PUSH2 0x1BB2 PUSH2 0x16CB JUMP JUMPDEST JUMPDEST PUSH1 0x0 DUP4 ADD CALLDATALOAD PUSH8 0xFFFFFFFFFFFFFFFF DUP2 GT ISZERO PUSH2 0x1BD1 JUMPI PUSH2 0x1BD0 PUSH2 0x16D0 JUMP JUMPDEST JUMPDEST PUSH2 0x1BDD DUP6 DUP3 DUP7 ADD PUSH2 0x1ABB JUMP JUMPDEST SWAP3 POP POP PUSH1 0x20 PUSH2 0x1BEE DUP6 DUP3 DUP7 ADD PUSH2 0x1754 JUMP JUMPDEST SWAP2 POP POP SWAP3 POP SWAP3 SWAP1 POP JUMP JUMPDEST PUSH1 0x0 DUP1 PUSH1 0x40 DUP4 DUP6 SUB SLT ISZERO PUSH2 0x1C0F JUMPI PUSH2 0x1C0E PUSH2 0x16CB JUMP JUMPDEST JUMPDEST PUSH1 0x0 PUSH2 0x1C1D DUP6 DUP3 DUP7 ADD PUSH2 0x1754 JUMP JUMPDEST SWAP3 POP POP PUSH1 0x20 PUSH2 0x1C2E DUP6 DUP3 DUP7 ADD PUSH2 0x1754 JUMP JUMPDEST SWAP2 POP POP SWAP3 POP SWAP3 SWAP1 POP JUMP JUMPDEST PUSH1 0x0 DUP1 PUSH1 0x40 DUP4 DUP6 SUB SLT ISZERO PUSH2 0x1C4F JUMPI PUSH2 0x1C4E PUSH2 0x16CB JUMP JUMPDEST JUMPDEST PUSH1 0x0 PUSH2 0x1C5D DUP6 DUP3 DUP7 ADD PUSH2 0x171E JUMP JUMPDEST SWAP3 POP POP PUSH1 0x20 PUSH2 0x1C6E DUP6 DUP3 DUP7 ADD PUSH2 0x171E JUMP JUMPDEST SWAP2 POP POP SWAP3 POP SWAP3 SWAP1 POP JUMP JUMPDEST PUSH32 0x4E487B7100000000000000000000000000000000000000000000000000000000 PUSH1 0x0 MSTORE PUSH1 0x22 PUSH1 0x4 MSTORE PUSH1 0x24 PUSH1 0x0 REVERT JUMPDEST PUSH1 0x0 PUSH1 0x2 DUP3 DIV SWAP1 POP PUSH1 0x1 DUP3 AND DUP1 PUSH2 0x1CBF JUMPI PUSH1 0x7F DUP3 AND SWAP2 POP JUMPDEST PUSH1 0x20 DUP3 LT DUP2 SUB PUSH2 0x1CD2 JUMPI PUSH2 0x1CD1 PUSH2 0x1C78 JUMP JUMPDEST JUMPDEST POP SWAP2 SWAP1 POP JUMP JUMPDEST PUSH32 0x4E487B7100000000000000000000000000000000000000000000000000000000 PUSH1 0x0 MSTORE PUSH1 0x11 PUSH1 0x4 MSTORE PUSH1 0x24 PUSH1 0x0 REVERT JUMPDEST PUSH1 0x0 PUSH2 0x1D12 DUP3 PUSH2 0x1733 JUMP JUMPDEST SWAP2 POP PUSH2 0x1D1D DUP4 PUSH2 0x1733 JUMP JUMPDEST SWAP3 POP DUP3 DUP3 ADD SWAP1 POP DUP1 DUP3 GT ISZERO PUSH2 0x1D35 JUMPI PUSH2 0x1D34 PUSH2 0x1CD8 JUMP JUMPDEST JUMPDEST SWAP3 SWAP2 POP POP JUMP JUMPDEST PUSH1 0x0 DUP2 SWAP1 POP DUP2 PUSH1 0x0 MSTORE PUSH1 0x20 PUSH1 0x0 KECCAK256 SWAP1 POP SWAP2 SWAP1 POP JUMP JUMPDEST PUSH1 0x0 PUSH1 0x20 PUSH1 0x1F DUP4 ADD DIV SWAP1 POP SWAP2 SWAP1 POP JUMP JUMPDEST PUSH1 0x0 DUP3 DUP3 SHL SWAP1 POP SWAP3 SWAP2 POP POP JUMP JUMPDEST PUSH1 0x0 PUSH1 0x8 DUP4 MUL PUSH2 0x1D9D PUSH32 0xFFFFFFFFFFFFFFFFFFFFFFFFFFFFFFFFFFFFFFFFFFFFFFFFFFFFFFFFFFFFFFFF DUP3 PUSH2 0x1D60 JUMP JUMPDEST PUSH2 0x1DA7 DUP7 DUP4 PUSH2 0x1D60 JUMP JUMPDEST SWAP6 POP DUP1 NOT DUP5 AND SWAP4 POP DUP1 DUP7 AND DUP5 OR SWAP3 POP POP POP SWAP4 SWAP3 POP POP POP JUMP JUMPDEST PUSH1 0x0 DUP2 SWAP1 POP SWAP2 SWAP1 POP JUMP JUMPDEST PUSH1 0x0 PUSH2 0x1DE4 PUSH2 0x1DDF PUSH2 0x1DDA DUP5 PUSH2 0x1733 JUMP JUMPDEST PUSH2 0x1DBF JUMP JUMPDEST PUSH2 0x1733 JUMP JUMPDEST SWAP1 POP SWAP2 SWAP1 POP JUMP JUMPDEST PUSH1 0x0 DUP2 SWAP1 POP SWAP2 SWAP1 POP JUMP JUMPDEST PUSH2 0x1DFE DUP4 PUSH2 0x1DC9 JUMP JUMPDEST PUSH2 0x1E12 PUSH2 0x1E0A DUP3 PUSH2 0x1DEB JUMP JUMPDEST DUP5 DUP5 SLOAD PUSH2 0x1D6D JUMP JUMPDEST DUP3 SSTORE POP POP POP POP JUMP JUMPDEST PUSH1 0x0 SWAP1 JUMP JUMPDEST PUSH2 0x1E27 PUSH2 0x1E1A JUMP JUMPDEST PUSH2 0x1E32 DUP2 DUP5 DUP5 PUSH2 0x1DF5 JUMP JUMPDEST POP POP POP JUMP JUMPDEST JUMPDEST DUP2 DUP2 LT ISZERO PUSH2 0x1E56 JUMPI PUSH2 0x1E4B PUSH1 0x0 DUP3 PUSH2 0x1E1F JUMP JUMPDEST PUSH1 0x1 DUP2 ADD SWAP1 POP PUSH2 0x1E38 JUMP JUMPDEST POP POP JUMP JUMPDEST PUSH1 0x1F DUP3 GT ISZERO PUSH2 0x1E9B JUMPI PUSH2 0x1E6C DUP2 PUSH2 0x1D3B JUMP JUMPDEST PUSH2 0x1E75 DUP5 PUSH2 0x1D50 JUMP JUMPDEST DUP2 ADD PUSH1 0x20 DUP6 LT ISZERO PUSH2 0x1E84 JUMPI DUP2 SWAP1 POP JUMPDEST PUSH2 0x1E98 PUSH2 0x1E90 DUP6 PUSH2 0x1D50 JUMP JUMPDEST DUP4 ADD DUP3 PUSH2 0x1E37 JUMP JUMPDEST POP POP JUMPDEST POP POP POP JUMP JUMPDEST PUSH1 0x0 DUP3 DUP3 SHR SWAP1 POP SWAP3 SWAP2 POP POP JUMP JUMPDEST PUSH1 0x0 PUSH2 0x1EBE PUSH1 0x0 NOT DUP5 PUSH1 0x8 MUL PUSH2 0x1EA0 JUMP JUMPDEST NOT DUP1 DUP4 AND SWAP2 POP POP SWAP3 SWAP2 POP POP JUMP JUMPDEST PUSH1 0x0 PUSH2 0x1ED7 DUP4 DUP4 PUSH2 0x1EAD JUMP JUMPDEST SWAP2 POP DUP3 PUSH1 0x2 MUL DUP3 OR SWAP1 POP SWAP3 SWAP2 POP POP JUMP JUMPDEST PUSH2 0x1EF0 DUP3 PUSH2 0x160F JUMP JUMPDEST PUSH8 0xFFFFFFFFFFFFFFFF DUP2 GT ISZERO PUSH2 0x1F09 JUMPI PUSH2 0x1F08 PUSH2 0x19BE JUMP JUMPDEST JUMPDEST PUSH2 0x1F13 DUP3 SLOAD PUSH2 0x1CA7 JUMP JUMPDEST PUSH2 0x1F1E DUP3 DUP3 DUP6 PUSH2 0x1E5A JUMP JUMPDEST PUSH1 0x0 PUSH1 0x20 SWAP1 POP PUSH1 0x1F DUP4 GT PUSH1 0x1 DUP2 EQ PUSH2 0x1F51 JUMPI PUSH1 0x0 DUP5 ISZERO PUSH2 0x1F3F JUMPI DUP3 DUP8 ADD MLOAD SWAP1 POP JUMPDEST PUSH2 0x1F49 DUP6 DUP3 PUSH2 0x1ECB JUMP JUMPDEST DUP7 SSTORE POP PUSH2 0x1FB1 JUMP JUMPDEST PUSH1 0x1F NOT DUP5 AND PUSH2 0x1F5F DUP7 PUSH2 0x1D3B JUMP JUMPDEST PUSH1 0x0 JUMPDEST DUP3 DUP2 LT ISZERO PUSH2 0x1F87 JUMPI DUP5 DUP10 ADD MLOAD DUP3 SSTORE PUSH1 0x1 DUP3 ADD SWAP2 POP PUSH1 0x20 DUP6 ADD SWAP5 POP PUSH1 0x20 DUP2 ADD SWAP1 POP PUSH2 0x1F62 JUMP JUMPDEST DUP7 DUP4 LT ISZERO PUSH2 0x1FA4 JUMPI DUP5 DUP10 ADD MLOAD PUSH2 0x1FA0 PUSH1 0x1F DUP10 AND DUP3 PUSH2 0x1EAD JUMP JUMPDEST DUP4 SSTORE POP JUMPDEST PUSH1 0x1 PUSH1 0x2 DUP9 MUL ADD DUP9 SSTORE POP POP POP JUMPDEST POP POP POP POP POP POP JUMP JUMPDEST PUSH1 0x0 PUSH2 0x1FC4 DUP3 PUSH2 0x1733 JUMP JUMPDEST SWAP2 POP PUSH32 0xFFFFFFFFFFFFFFFFFFFFFFFFFFFFFFFFFFFFFFFFFFFFFFFFFFFFFFFFFFFFFFFF DUP3 SUB PUSH2 0x1FF6 JUMPI PUSH2 0x1FF5 PUSH2 0x1CD8 JUMP JUMPDEST JUMPDEST PUSH1 0x1 DUP3 ADD SWAP1 POP SWAP2 SWAP1 POP JUMP JUMPDEST PUSH32 0x45524332303A2064656372656173656420616C6C6F77616E63652062656C6F77 PUSH1 0x0 DUP3 ADD MSTORE PUSH32 0x207A65726F000000000000000000000000000000000000000000000000000000 PUSH1 0x20 DUP3 ADD MSTORE POP JUMP JUMPDEST PUSH1 0x0 PUSH2 0x205D PUSH1 0x25 DUP4 PUSH2 0x161A JUMP JUMPDEST SWAP2 POP PUSH2 0x2068 DUP3 PUSH2 0x2001 JUMP JUMPDEST PUSH1 0x40 DUP3 ADD SWAP1 POP SWAP2 SWAP1 POP JUMP JUMPDEST PUSH1 0x0 PUSH1 0x20 DUP3 ADD SWAP1 POP DUP2 DUP2 SUB PUSH1 0x0 DUP4 ADD MSTORE PUSH2 0x208C DUP2 PUSH2 0x2050 JUMP JUMPDEST SWAP1 POP SWAP2 SWAP1 POP JUMP JUMPDEST PUSH32 0x4E487B7100000000000000000000000000000000000000000000000000000000 PUSH1 0x0 MSTORE PUSH1 0x32 PUSH1 0x4 MSTORE PUSH1 0x24 PUSH1 0x0 REVERT JUMPDEST PUSH1 0x0 PUSH2 0x20CD DUP3 PUSH2 0x1733 JUMP JUMPDEST SWAP2 POP PUSH2 0x20D8 DUP4 PUSH2 0x1733 JUMP JUMPDEST SWAP3 POP DUP3 DUP3 MUL PUSH2 0x20E6 DUP2 PUSH2 0x1733 JUMP JUMPDEST SWAP2 POP DUP3 DUP3 DIV DUP5 EQ DUP4 ISZERO OR PUSH2 0x20FD JUMPI PUSH2 0x20FC PUSH2 0x1CD8 JUMP JUMPDEST JUMPDEST POP SWAP3 SWAP2 POP POP JUMP JUMPDEST PUSH1 0x0 PUSH2 0x210F DUP3 PUSH2 0x1733 JUMP JUMPDEST SWAP2 POP PUSH2 0x211A DUP4 PUSH2 0x1733 JUMP JUMPDEST SWAP3 POP DUP3 DUP3 SUB SWAP1 POP DUP2 DUP2 GT ISZERO PUSH2 0x2132 JUMPI PUSH2 0x2131 PUSH2 0x1CD8 JUMP JUMPDEST JUMPDEST SWAP3 SWAP2 POP POP JUMP JUMPDEST PUSH32 0x45524332303A20617070726F76652066726F6D20746865207A65726F20616464 PUSH1 0x0 DUP3 ADD MSTORE PUSH32 0x7265737300000000000000000000000000000000000000000000000000000000 PUSH1 0x20 DUP3 ADD MSTORE POP JUMP JUMPDEST PUSH1 0x0 PUSH2 0x2194 PUSH1 0x24 DUP4 PUSH2 0x161A JUMP JUMPDEST SWAP2 POP PUSH2 0x219F DUP3 PUSH2 0x2138 JUMP JUMPDEST PUSH1 0x40 DUP3 ADD SWAP1 POP SWAP2 SWAP1 POP JUMP JUMPDEST PUSH1 0x0 PUSH1 0x20 DUP3 ADD SWAP1 POP DUP2 DUP2 SUB PUSH1 0x0 DUP4 ADD MSTORE PUSH2 0x21C3 DUP2 PUSH2 0x2187 JUMP JUMPDEST SWAP1 POP SWAP2 SWAP1 POP JUMP JUMPDEST PUSH32 0x45524332303A20617070726F766520746F20746865207A65726F206164647265 PUSH1 0x0 DUP3 ADD MSTORE PUSH32 0x7373000000000000000000000000000000000000000000000000000000000000 PUSH1 0x20 DUP3 ADD MSTORE POP JUMP JUMPDEST PUSH1 0x0 PUSH2 0x2226 PUSH1 0x22 DUP4 PUSH2 0x161A JUMP JUMPDEST SWAP2 POP PUSH2 0x2231 DUP3 PUSH2 0x21CA JUMP JUMPDEST PUSH1 0x40 DUP3 ADD SWAP1 POP SWAP2 SWAP1 POP JUMP JUMPDEST PUSH1 0x0 PUSH1 0x20 DUP3 ADD SWAP1 POP DUP2 DUP2 SUB PUSH1 0x0 DUP4 ADD MSTORE PUSH2 0x2255 DUP2 PUSH2 0x2219 JUMP JUMPDEST SWAP1 POP SWAP2 SWAP1 POP JUMP JUMPDEST PUSH32 0x45524332303A20696E73756666696369656E7420616C6C6F77616E6365000000 PUSH1 0x0 DUP3 ADD MSTORE POP JUMP JUMPDEST PUSH1 0x0 PUSH2 0x2292 PUSH1 0x1D DUP4 PUSH2 0x161A JUMP JUMPDEST SWAP2 POP PUSH2 0x229D DUP3 PUSH2 0x225C JUMP JUMPDEST PUSH1 0x20 DUP3 ADD SWAP1 POP SWAP2 SWAP1 POP JUMP JUMPDEST PUSH1 0x0 PUSH1 0x20 DUP3 ADD SWAP1 POP DUP2 DUP2 SUB PUSH1 0x0 DUP4 ADD MSTORE PUSH2 0x22C1 DUP2 PUSH2 0x2285 JUMP JUMPDEST SWAP1 POP SWAP2 SWAP1 POP JUMP JUMPDEST PUSH32 0x45524332303A207472616E736665722066726F6D20746865207A65726F206164 PUSH1 0x0 DUP3 ADD MSTORE PUSH32 0x6472657373000000000000000000000000000000000000000000000000000000 PUSH1 0x20 DUP3 ADD MSTORE POP JUMP JUMPDEST PUSH1 0x0 PUSH2 0x2324 PUSH1 0x25 DUP4 PUSH2 0x161A JUMP JUMPDEST SWAP2 POP PUSH2 0x232F DUP3 PUSH2 0x22C8 JUMP JUMPDEST PUSH1 0x40 DUP3 ADD SWAP1 POP SWAP2 SWAP1 POP JUMP JUMPDEST PUSH1 0x0 PUSH1 0x20 DUP3 ADD SWAP1 POP DUP2 DUP2 SUB PUSH1 0x0 DUP4 ADD MSTORE PUSH2 0x2353 DUP2 PUSH2 0x2317 JUMP JUMPDEST SWAP1 POP SWAP2 SWAP1 POP JUMP JUMPDEST PUSH32 0x45524332303A207472616E7366657220746F20746865207A65726F2061646472 PUSH1 0x0 DUP3 ADD MSTORE PUSH32 0x6573730000000000000000000000000000000000000000000000000000000000 PUSH1 0x20 DUP3 ADD MSTORE POP JUMP JUMPDEST PUSH1 0x0 PUSH2 0x23B6 PUSH1 0x23 DUP4 PUSH2 0x161A JUMP JUMPDEST SWAP2 POP PUSH2 0x23C1 DUP3 PUSH2 0x235A JUMP JUMPDEST PUSH1 0x40 DUP3 ADD SWAP1 POP SWAP2 SWAP1 POP JUMP JUMPDEST PUSH1 0x0 PUSH1 0x20 DUP3 ADD SWAP1 POP DUP2 DUP2 SUB PUSH1 0x0 DUP4 ADD MSTORE PUSH2 0x23E5 DUP2 PUSH2 0x23A9 JUMP JUMPDEST SWAP1 POP SWAP2 SWAP1 POP JUMP JUMPDEST PUSH32 0x45524332303A207472616E7366657220616D6F756E7420657863656564732062 PUSH1 0x0 DUP3 ADD MSTORE PUSH32 0x616C616E63650000000000000000000000000000000000000000000000000000 PUSH1 0x20 DUP3 ADD MSTORE POP JUMP JUMPDEST PUSH1 0x0 PUSH2 0x2448 PUSH1 0x26 DUP4 PUSH2 0x161A JUMP JUMPDEST SWAP2 POP PUSH2 0x2453 DUP3 PUSH2 0x23EC JUMP JUMPDEST PUSH1 0x40 DUP3 ADD SWAP1 POP SWAP2 SWAP1 POP JUMP JUMPDEST PUSH1 0x0 PUSH1 0x20 DUP3 ADD SWAP1 POP DUP2 DUP2 SUB PUSH1 0x0 DUP4 ADD MSTORE PUSH2 0x2477 DUP2 PUSH2 0x243B JUMP JUMPDEST SWAP1 POP SWAP2 SWAP1 POP JUMP JUMPDEST PUSH32 0x45524332303A206D696E7420746F20746865207A65726F206164647265737300 PUSH1 0x0 DUP3 ADD MSTORE POP JUMP JUMPDEST PUSH1 0x0 PUSH2 0x24B4 PUSH1 0x1F DUP4 PUSH2 0x161A JUMP JUMPDEST SWAP2 POP PUSH2 0x24BF DUP3 PUSH2 0x247E JUMP JUMPDEST PUSH1 0x20 DUP3 ADD SWAP1 POP SWAP2 SWAP1 POP JUMP JUMPDEST PUSH1 0x0 PUSH1 0x20 DUP3 ADD SWAP1 POP DUP2 DUP2 SUB PUSH1 0x0 DUP4 ADD MSTORE PUSH2 0x24E3 DUP2 PUSH2 0x24A7 JUMP JUMPDEST SWAP1 POP SWAP2 SWAP1 POP JUMP INVALID LOG2 PUSH5 0x6970667358 0x22 SLT KECCAK256 0xF9 XOR 0xE6 DUP3 0xCF 0xD4 0xA9 SLT LOG0 DUP5 PUSH27 0xC144E1C0167F519E201AADDEE54410C67F62CEB8DC64736F6C6343 STOP ADDMOD GT STOP CALLER SLOAD PUSH9 0x652061646472657373 KECCAK256 PUSH16 0x6620746865206372656174656420636F PUSH15 0x74726163742069733A20A264697066 PUSH20 0x58221220C34DA57346154BE8776BFCC3F0BCCBE0 MUL DUP15 SWAP6 PUSH14 0x2B63DE4543A037CCFB2308736473 PUSH16 0x6C634300081100330000000000000000 "},"methodIdentifiers":{"ContractArrayTypeF(uint256)":"42a1a3a8","ContractArrayTypeP(uint256)":"cfe7e7d7","ContractArrayTypeS(uint256)":"f9c7e45e","CreateNewContract(uint8,string,string)":"081a5787","getContractP(uint256)":"5ea5bc73","numberOfFactories()":"770fe267","numberOfProducers()":"45e1976b","numberOfShops()":"9c9145d5","owner()":"8da5cb5b"}}}}}