{"contracts/Factory.sol":{"Contract":{"abi":[{"inputs":[{"internalType":"address payable","name":"own","type":"address"},{"internalType":"enum VendorType","name":"value","type":"uint8"},{"internalType":"string","name":"name","type":"string"},{"internalType":"string","name":"g","type":"string"}],"stateMutability":"nonpayable","type":"constructor"},{"anonymous":false,"inputs":[{"indexed":true,"internalType":"address","name":"owner","type":"address"},{"indexed":true,"internalType":"address","name":"spender","type":"address"},{"indexed":false,"internalType":"uint256","name":"value","type":"uint256"}],"name":"Approval","type":"event"},{"anonymous":false,"inputs":[{"indexed":true,"internalType":"address","name":"from","type":"address"},{"indexed":true,"internalType":"address","name":"to","type":"address"},{"indexed":false,"internalType":"uint256","name":"value","type":"uint256"}],"name":"Transfer","type":"event"},{"inputs":[{"internalType":"address","name":"owner","type":"address"},{"internalType":"address","name":"spender","type":"address"}],"name":"allowance","outputs":[{"internalType":"uint256","name":"","type":"uint256"}],"stateMutability":"view","type":"function"},{"inputs":[{"internalType":"address","name":"spender","type":"address"},{"internalType":"uint256","name":"amount","type":"uint256"}],"name":"approve","outputs":[{"internalType":"bool","name":"","type":"bool"}],"stateMutability":"nonpayable","type":"function"},{"inputs":[{"internalType":"address","name":"account","type":"address"}],"name":"balanceOf","outputs":[{"internalType":"uint256","name":"","type":"uint256"}],"stateMutability":"view","type":"function"},{"inputs":[{"internalType":"string","name":"name","type":"string"},{"internalType":"uint256","name":"impact","type":"uint256"},{"internalType":"uint256","name":"price","type":"uint256"},{"internalType":"string","name":"country","type":"string"},{"internalType":"uint256","name":"quantity","type":"uint256"}],"name":"createGoods","outputs":[],"stateMutability":"nonpayable","type":"function"},{"inputs":[],"name":"decimals","outputs":[{"internalType":"uint8","name":"","type":"uint8"}],"stateMutability":"view","type":"function"},{"inputs":[{"internalType":"address","name":"spender","type":"address"},{"internalType":"uint256","name":"subtractedValue","type":"uint256"}],"name":"decreaseAllowance","outputs":[{"internalType":"bool","name":"","type":"bool"}],"stateMutability":"nonpayable","type":"function"},{"inputs":[],"name":"getOwner","outputs":[{"internalType":"address","name":"","type":"address"}],"stateMutability":"view","type":"function"},{"inputs":[],"name":"good","outputs":[{"internalType":"string","name":"","type":"string"}],"stateMutability":"view","type":"function"},{"inputs":[{"internalType":"uint256","name":"","type":"uint256"}],"name":"goodsBought","outputs":[{"internalType":"string","name":"name","type":"string"},{"internalType":"string","name":"country","type":"string"},{"internalType":"uint256","name":"impact","type":"uint256"},{"internalType":"uint256","name":"price","type":"uint256"},{"internalType":"uint256","name":"quantity","type":"uint256"}],"stateMutability":"view","type":"function"},{"inputs":[{"internalType":"uint256","name":"","type":"uint256"}],"name":"goodsProduced","outputs":[{"internalType":"string","name":"name","type":"string"},{"internalType":"string","name":"country","type":"string"},{"internalType":"uint256","name":"impact","type":"uint256"},{"internalType":"uint256","name":"price","type":"uint256"},{"internalType":"uint256","name":"quantity","type":"uint256"}],"stateMutability":"view","type":"function"},{"inputs":[{"internalType":"address","name":"spender","type":"address"},{"internalType":"uint256","name":"addedValue","type":"uint256"}],"name":"increaseAllowance","outputs":[{"internalType":"bool","name":"","type":"bool"}],"stateMutability":"nonpayable","type":"function"},{"inputs":[{"internalType":"address","name":"receiver","type":"address"},{"internalType":"uint256","name":"amount","type":"uint256"}],"name":"issueToken","outputs":[],"stateMutability":"nonpayable","type":"function"},{"inputs":[],"name":"name","outputs":[{"internalType":"string","name":"","type":"string"}],"stateMutability":"view","type":"function"},{"inputs":[],"name":"nameOfTheContract","outputs":[{"internalType":"string","name":"","type":"string"}],"stateMutability":"view","type":"function"},{"inputs":[{"internalType":"uint256","name":"id","type":"uint256"},{"internalType":"uint256","name":"quantity","type":"uint256"}],"name":"orderGoods","outputs":[],"stateMutability":"nonpayable","type":"function"},{"inputs":[{"internalType":"uint256","name":"","type":"uint256"}],"name":"orders","outputs":[{"internalType":"string","name":"name","type":"string"},{"internalType":"string","name":"country","type":"string"},{"internalType":"uint256","name":"impact","type":"uint256"},{"internalType":"uint256","name":"price","type":"uint256"},{"internalType":"uint256","name":"quantity","type":"uint256"}],"stateMutability":"view","type":"function"},{"inputs":[],"name":"owner","outputs":[{"internalType":"address payable","name":"","type":"address"}],"stateMutability":"view","type":"function"},{"inputs":[{"internalType":"string","name":"name","type":"string"},{"internalType":"uint256","name":"quantity","type":"uint256"}],"name":"requestNewGoods","outputs":[],"stateMutability":"nonpayable","type":"function"},{"inputs":[],"name":"symbol","outputs":[{"internalType":"string","name":"","type":"string"}],"stateMutability":"view","type":"function"},{"inputs":[],"name":"totalSupply","outputs":[{"internalType":"uint256","name":"","type":"uint256"}],"stateMutability":"view","type":"function"},{"inputs":[{"internalType":"address","name":"to","type":"address"},{"internalType":"uint256","name":"amount","type":"uint256"}],"name":"transfer","outputs":[{"internalType":"bool","name":"","type":"bool"}],"stateMutability":"nonpayable","type":"function"},{"inputs":[{"internalType":"address","name":"from","type":"address"},{"internalType":"address","name":"to","type":"address"},{"internalType":"uint256","name":"amount","type":"uint256"}],"name":"transferFrom","outputs":[{"internalType":"bool","name":"","type":"bool"}],"stateMutability":"nonpayable","type":"function"},{"inputs":[],"name":"vendor","outputs":[{"internalType":"enum VendorType","name":"","type":"uint8"}],"stateMutability":"view","type":"function"}],"evm":{"bytecode":{"linkReferences":{},"object":"60806040523480156200001157600080fd5b5060405162002de038038062002de08339818101604052810190620000379190620003d1565b6040518060400160405280600881526020017f446576546f6b656e0000000000000000000000000000000000000000000000008152506040518060400160405280600381526020017f44565400000000000000000000000000000000000000000000000000000000008152508160039081620000b49190620006cc565b508060049081620000c69190620006cc565b5050508361020160006101000a81548173ffffffffffffffffffffffffffffffffffffffff021916908373ffffffffffffffffffffffffffffffffffffffff16021790555082600660006101000a81548160ff02191690836002811115620001335762000132620007b3565b5b021790555060006101fc819055503361020260006101000a81548173ffffffffffffffffffffffffffffffffffffffff021916908373ffffffffffffffffffffffffffffffffffffffff1602179055508160059081620001949190620006cc565b508060079081620001a69190620006cc565b5050505050620007e2565b6000604051905090565b600080fd5b600080fd5b600073ffffffffffffffffffffffffffffffffffffffff82169050919050565b6000620001f282620001c5565b9050919050565b6200020481620001e5565b81146200021057600080fd5b50565b6000815190506200022481620001f9565b92915050565b600381106200023857600080fd5b50565b6000815190506200024c816200022a565b92915050565b600080fd5b600080fd5b6000601f19601f8301169050919050565b7f4e487b7100000000000000000000000000000000000000000000000000000000600052604160045260246000fd5b620002a7826200025c565b810181811067ffffffffffffffff82111715620002c957620002c86200026d565b5b80604052505050565b6000620002de620001b1565b9050620002ec82826200029c565b919050565b600067ffffffffffffffff8211156200030f576200030e6200026d565b5b6200031a826200025c565b9050602081019050919050565b60005b83811015620003475780820151818401526020810190506200032a565b60008484015250505050565b60006200036a6200036484620002f1565b620002d2565b90508281526020810184848401111562000389576200038862000257565b5b6200039684828562000327565b509392505050565b600082601f830112620003b657620003b562000252565b5b8151620003c884826020860162000353565b91505092915050565b60008060008060808587031215620003ee57620003ed620001bb565b5b6000620003fe8782880162000213565b945050602062000411878288016200023b565b935050604085015167ffffffffffffffff811115620004355762000434620001c0565b5b62000443878288016200039e565b925050606085015167ffffffffffffffff811115620004675762000466620001c0565b5b62000475878288016200039e565b91505092959194509250565b600081519050919050565b7f4e487b7100000000000000000000000000000000000000000000000000000000600052602260045260246000fd5b60006002820490506001821680620004d457607f821691505b602082108103620004ea57620004e96200048c565b5b50919050565b60008190508160005260206000209050919050565b60006020601f8301049050919050565b600082821b905092915050565b600060088302620005547fffffffffffffffffffffffffffffffffffffffffffffffffffffffffffffffff8262000515565b62000560868362000515565b95508019841693508086168417925050509392505050565b6000819050919050565b6000819050919050565b6000620005ad620005a7620005a18462000578565b62000582565b62000578565b9050919050565b6000819050919050565b620005c9836200058c565b620005e1620005d882620005b4565b84845462000522565b825550505050565b600090565b620005f8620005e9565b62000605818484620005be565b505050565b5b818110156200062d5762000621600082620005ee565b6001810190506200060b565b5050565b601f8211156200067c576200064681620004f0565b620006518462000505565b8101602085101562000661578190505b62000679620006708562000505565b8301826200060a565b50505b505050565b600082821c905092915050565b6000620006a16000198460080262000681565b1980831691505092915050565b6000620006bc83836200068e565b9150826002028217905092915050565b620006d78262000481565b67ffffffffffffffff811115620006f357620006f26200026d565b5b620006ff8254620004bb565b6200070c82828562000631565b600060209050601f8311600181146200074457600084156200072f578287015190505b6200073b8582620006ae565b865550620007ab565b601f1984166200075486620004f0565b60005b828110156200077e5784890151825560018201915060208501945060208101905062000757565b868310156200079e57848901516200079a601f8916826200068e565b8355505b6001600288020188555050505b505050505050565b7f4e487b7100000000000000000000000000000000000000000000000000000000600052602160045260246000fd5b6125ee80620007f26000396000f3fe608060405234801561001057600080fd5b506004361061014d5760003560e01c80638da5cb5b116100c3578063a9059cbb1161007c578063a9059cbb146103ea578063aa8fb40b1461041a578063b521cc8e14610438578063be0f139214610454578063dd62ed3e14610470578063e74a84ea146104a05761014d565b80638da5cb5b146102fa57806393b2e0541461031857806394fca80e1461034c57806395d89b4114610368578063a457c2d714610386578063a85c38ef146103b65761014d565b806323b872dd1161011557806323b872dd146101fa5780632ac9e0b31461022a578063313ce5671461025e578063395093511461027c57806370a08231146102ac578063893d20e8146102dc5761014d565b806306fdde0314610152578063095ea7b3146101705780631385a6f2146101a057806318160ddd146101be5780631e361901146101dc575b600080fd5b61015a6104bc565b60405161016791906116db565b60405180910390f35b61018a600480360381019061018591906117a5565b61054e565b6040516101979190611800565b60405180910390f35b6101a8610571565b6040516101b59190611892565b60405180910390f35b6101c6610584565b6040516101d391906118bc565b60405180910390f35b6101e461058e565b6040516101f191906116db565b60405180910390f35b610214600480360381019061020f91906118d7565b61061c565b6040516102219190611800565b60405180910390f35b610244600480360381019061023f919061192a565b61064b565b604051610255959493929190611957565b60405180910390f35b610266610792565b60405161027391906119d4565b60405180910390f35b610296600480360381019061029191906117a5565b61079b565b6040516102a39190611800565b60405180910390f35b6102c660048036038101906102c191906119ef565b6107d2565b6040516102d391906118bc565b60405180910390f35b6102e461081a565b6040516102f19190611a2b565b60405180910390f35b610302610845565b60405161030f9190611a67565b60405180910390f35b610332600480360381019061032d919061192a565b61086c565b604051610343959493929190611957565b60405180910390f35b61036660048036038101906103619190611bb7565b6109b3565b005b610370610abf565b60405161037d91906116db565b60405180910390f35b6103a0600480360381019061039b91906117a5565b610b51565b6040516103ad9190611800565b60405180910390f35b6103d060048036038101906103cb919061192a565b610bc8565b6040516103e1959493929190611957565b60405180910390f35b61040460048036038101906103ff91906117a5565b610d14565b6040516104119190611800565b60405180910390f35b610422610d37565b60405161042f91906116db565b60405180910390f35b610452600480360381019061044d9190611c6a565b610dc5565b005b61046e60048036038101906104699190611cc6565b610e74565b005b61048a60048036038101906104859190611d06565b610f54565b60405161049791906118bc565b60405180910390f35b6104ba60048036038101906104b591906117a5565b610fdb565b005b6060600380546104cb90611d75565b80601f01602080910402602001604051908101604052809291908181526020018280546104f790611d75565b80156105445780601f1061051957610100808354040283529160200191610544565b820191906000526020600020905b81548152906001019060200180831161052757829003601f168201915b5050505050905090565b600080610559610fe9565b9050610566818585610ff1565b600191505092915050565b600660009054906101000a900460ff1681565b6000600254905090565b6005805461059b90611d75565b80601f01602080910402602001604051908101604052809291908181526020018280546105c790611d75565b80156106145780601f106105e957610100808354040283529160200191610614565b820191906000526020600020905b8154815290600101906020018083116105f757829003601f168201915b505050505081565b600080610627610fe9565b90506106348582856111ba565b61063f858585611246565b60019150509392505050565b6101fd60205280600052604060002060009150905080600001805461066f90611d75565b80601f016020809104026020016040519081016040528092919081815260200182805461069b90611d75565b80156106e85780601f106106bd576101008083540402835291602001916106e8565b820191906000526020600020905b8154815290600101906020018083116106cb57829003601f168201915b5050505050908060010180546106fd90611d75565b80601f016020809104026020016040519081016040528092919081815260200182805461072990611d75565b80156107765780601f1061074b57610100808354040283529160200191610776565b820191906000526020600020905b81548152906001019060200180831161075957829003601f168201915b5050505050908060020154908060030154908060040154905085565b60006012905090565b6000806107a6610fe9565b90506107c78185856107b88589610f54565b6107c29190611dd5565b610ff1565b600191505092915050565b60008060008373ffffffffffffffffffffffffffffffffffffffff1673ffffffffffffffffffffffffffffffffffffffff168152602001908152602001600020549050919050565b600061020160009054906101000a900473ffffffffffffffffffffffffffffffffffffffff16905090565b61020160009054906101000a900473ffffffffffffffffffffffffffffffffffffffff1681565b6101fe60205280600052604060002060009150905080600001805461089090611d75565b80601f01602080910402602001604051908101604052809291908181526020018280546108bc90611d75565b80156109095780601f106108de57610100808354040283529160200191610909565b820191906000526020600020905b8154815290600101906020018083116108ec57829003601f168201915b50505050509080600101805461091e90611d75565b80601f016020809104026020016040519081016040528092919081815260200182805461094a90611d75565b80156109975780601f1061096c57610100808354040283529160200191610997565b820191906000526020600020905b81548152906001019060200180831161097a57829003601f168201915b5050505050908060020154908060030154908060040154905085565b61020160009054906101000a900473ffffffffffffffffffffffffffffffffffffffff1673ffffffffffffffffffffffffffffffffffffffff163373ffffffffffffffffffffffffffffffffffffffff1614610a0e57600080fd5b60006040518060a00160405280878152602001848152602001868152602001858152602001838152509050806101fd60006101fc5481526020019081526020016000206000820151816000019081610a669190611fb5565b506020820151816001019081610a7c9190611fb5565b506040820151816002015560608201518160030155608082015181600401559050506101fc6000815480929190610ab290612087565b9190505550505050505050565b606060048054610ace90611d75565b80601f0160208091040260200160405190810160405280929190818152602001828054610afa90611d75565b8015610b475780601f10610b1c57610100808354040283529160200191610b47565b820191906000526020600020905b815481529060010190602001808311610b2a57829003601f168201915b5050505050905090565b600080610b5c610fe9565b90506000610b6a8286610f54565b905083811015610baf576040517f08c379a0000000000000000000000000000000000000000000000000000000008152600401610ba690612141565b60405180910390fd5b610bbc8286868403610ff1565b60019250505092915050565b60088160648110610bd857600080fd5b60050201600091509050806000018054610bf190611d75565b80601f0160208091040260200160405190810160405280929190818152602001828054610c1d90611d75565b8015610c6a5780601f10610c3f57610100808354040283529160200191610c6a565b820191906000526020600020905b815481529060010190602001808311610c4d57829003601f168201915b505050505090806001018054610c7f90611d75565b80601f0160208091040260200160405190810160405280929190818152602001828054610cab90611d75565b8015610cf85780601f10610ccd57610100808354040283529160200191610cf8565b820191906000526020600020905b815481529060010190602001808311610cdb57829003601f168201915b5050505050908060020154908060030154908060040154905085565b600080610d1f610fe9565b9050610d2c818585611246565b600191505092915050565b60078054610d4490611d75565b80601f0160208091040260200160405190810160405280929190818152602001828054610d7090611d75565b8015610dbd5780601f10610d9257610100808354040283529160200191610dbd565b820191906000526020600020905b815481529060010190602001808311610da057829003601f168201915b505050505081565b6064610200541015610e7057610dd961161c565b828160000181905250818160800181815250508060086102005460648110610e0457610e03612161565b5b600502016000820151816000019081610e1d9190611fb5565b506020820151816001019081610e339190611fb5565b506040820151816002015560608201518160030155608082015181600401559050506102006000815480929190610e6990612087565b9190505550505b5050565b8181806101fd60008481526020019081526020016000206004015411610e9957600080fd5b826101fd6000868152602001908152602001600020600401541115610f4e5760006101fd60008681526020019081526020016000206003015484610edd9190612190565b9050610f0d3361020160009054906101000a900473ffffffffffffffffffffffffffffffffffffffff168361061c565b50836101fd600087815260200190815260200160002060040154610f3191906121d2565b6101fd600087815260200190815260200160002060040181905550505b50505050565b6000600160008473ffffffffffffffffffffffffffffffffffffffff1673ffffffffffffffffffffffffffffffffffffffff16815260200190815260200160002060008373ffffffffffffffffffffffffffffffffffffffff1673ffffffffffffffffffffffffffffffffffffffff16815260200190815260200160002054905092915050565b610fe582826114bc565b5050565b600033905090565b600073ffffffffffffffffffffffffffffffffffffffff168373ffffffffffffffffffffffffffffffffffffffff1603611060576040517f08c379a000000000000000000000000000000000000000000000000000000000815260040161105790612278565b60405180910390fd5b600073ffffffffffffffffffffffffffffffffffffffff168273ffffffffffffffffffffffffffffffffffffffff16036110cf576040517f08c379a00000000000000000000000000000000000000000000000000000000081526004016110c69061230a565b60405180910390fd5b80600160008573ffffffffffffffffffffffffffffffffffffffff1673ffffffffffffffffffffffffffffffffffffffff16815260200190815260200160002060008473ffffffffffffffffffffffffffffffffffffffff1673ffffffffffffffffffffffffffffffffffffffff168152602001908152602001600020819055508173ffffffffffffffffffffffffffffffffffffffff168373ffffffffffffffffffffffffffffffffffffffff167f8c5be1e5ebec7d5bd14f71427d1e84f3dd0314c0f7b2291e5b200ac8c7c3b925836040516111ad91906118bc565b60405180910390a3505050565b60006111c68484610f54565b90507fffffffffffffffffffffffffffffffffffffffffffffffffffffffffffffffff81146112405781811015611232576040517f08c379a000000000000000000000000000000000000000000000000000000000815260040161122990612376565b60405180910390fd5b61123f8484848403610ff1565b5b50505050565b600073ffffffffffffffffffffffffffffffffffffffff168373ffffffffffffffffffffffffffffffffffffffff16036112b5576040517f08c379a00000000000000000000000000000000000000000000000000000000081526004016112ac90612408565b60405180910390fd5b600073ffffffffffffffffffffffffffffffffffffffff168273ffffffffffffffffffffffffffffffffffffffff1603611324576040517f08c379a000000000000000000000000000000000000000000000000000000000815260040161131b9061249a565b60405180910390fd5b61132f838383611612565b60008060008573ffffffffffffffffffffffffffffffffffffffff1673ffffffffffffffffffffffffffffffffffffffff168152602001908152602001600020549050818110156113b5576040517f08c379a00000000000000000000000000000000000000000000000000000000081526004016113ac9061252c565b60405180910390fd5b8181036000808673ffffffffffffffffffffffffffffffffffffffff1673ffffffffffffffffffffffffffffffffffffffff16815260200190815260200160002081905550816000808573ffffffffffffffffffffffffffffffffffffffff1673ffffffffffffffffffffffffffffffffffffffff168152602001908152602001600020600082825401925050819055508273ffffffffffffffffffffffffffffffffffffffff168473ffffffffffffffffffffffffffffffffffffffff167fddf252ad1be2c89b69c2b068fc378daa952ba7f163c4a11628f55a4df523b3ef846040516114a391906118bc565b60405180910390a36114b6848484611617565b50505050565b600073ffffffffffffffffffffffffffffffffffffffff168273ffffffffffffffffffffffffffffffffffffffff160361152b576040517f08c379a000000000000000000000000000000000000000000000000000000000815260040161152290612598565b60405180910390fd5b61153760008383611612565b80600260008282546115499190611dd5565b92505081905550806000808473ffffffffffffffffffffffffffffffffffffffff1673ffffffffffffffffffffffffffffffffffffffff168152602001908152602001600020600082825401925050819055508173ffffffffffffffffffffffffffffffffffffffff16600073ffffffffffffffffffffffffffffffffffffffff167fddf252ad1be2c89b69c2b068fc378daa952ba7f163c4a11628f55a4df523b3ef836040516115fa91906118bc565b60405180910390a361160e60008383611617565b5050565b505050565b505050565b6040518060a0016040528060608152602001606081526020016000815260200160008152602001600081525090565b600081519050919050565b600082825260208201905092915050565b60005b8381101561168557808201518184015260208101905061166a565b60008484015250505050565b6000601f19601f8301169050919050565b60006116ad8261164b565b6116b78185611656565b93506116c7818560208601611667565b6116d081611691565b840191505092915050565b600060208201905081810360008301526116f581846116a2565b905092915050565b6000604051905090565b600080fd5b600080fd5b600073ffffffffffffffffffffffffffffffffffffffff82169050919050565b600061173c82611711565b9050919050565b61174c81611731565b811461175757600080fd5b50565b60008135905061176981611743565b92915050565b6000819050919050565b6117828161176f565b811461178d57600080fd5b50565b60008135905061179f81611779565b92915050565b600080604083850312156117bc576117bb611707565b5b60006117ca8582860161175a565b92505060206117db85828601611790565b9150509250929050565b60008115159050919050565b6117fa816117e5565b82525050565b600060208201905061181560008301846117f1565b92915050565b7f4e487b7100000000000000000000000000000000000000000000000000000000600052602160045260246000fd5b6003811061185b5761185a61181b565b5b50565b600081905061186c8261184a565b919050565b600061187c8261185e565b9050919050565b61188c81611871565b82525050565b60006020820190506118a76000830184611883565b92915050565b6118b68161176f565b82525050565b60006020820190506118d160008301846118ad565b92915050565b6000806000606084860312156118f0576118ef611707565b5b60006118fe8682870161175a565b935050602061190f8682870161175a565b925050604061192086828701611790565b9150509250925092565b6000602082840312156119405761193f611707565b5b600061194e84828501611790565b91505092915050565b600060a082019050818103600083015261197181886116a2565b9050818103602083015261198581876116a2565b905061199460408301866118ad565b6119a160608301856118ad565b6119ae60808301846118ad565b9695505050505050565b600060ff82169050919050565b6119ce816119b8565b82525050565b60006020820190506119e960008301846119c5565b92915050565b600060208284031215611a0557611a04611707565b5b6000611a138482850161175a565b91505092915050565b611a2581611731565b82525050565b6000602082019050611a406000830184611a1c565b92915050565b6000611a5182611711565b9050919050565b611a6181611a46565b82525050565b6000602082019050611a7c6000830184611a58565b92915050565b600080fd5b600080fd5b7f4e487b7100000000000000000000000000000000000000000000000000000000600052604160045260246000fd5b611ac482611691565b810181811067ffffffffffffffff82111715611ae357611ae2611a8c565b5b80604052505050565b6000611af66116fd565b9050611b028282611abb565b919050565b600067ffffffffffffffff821115611b2257611b21611a8c565b5b611b2b82611691565b9050602081019050919050565b82818337600083830152505050565b6000611b5a611b5584611b07565b611aec565b905082815260208101848484011115611b7657611b75611a87565b5b611b81848285611b38565b509392505050565b600082601f830112611b9e57611b9d611a82565b5b8135611bae848260208601611b47565b91505092915050565b600080600080600060a08688031215611bd357611bd2611707565b5b600086013567ffffffffffffffff811115611bf157611bf061170c565b5b611bfd88828901611b89565b9550506020611c0e88828901611790565b9450506040611c1f88828901611790565b935050606086013567ffffffffffffffff811115611c4057611c3f61170c565b5b611c4c88828901611b89565b9250506080611c5d88828901611790565b9150509295509295909350565b60008060408385031215611c8157611c80611707565b5b600083013567ffffffffffffffff811115611c9f57611c9e61170c565b5b611cab85828601611b89565b9250506020611cbc85828601611790565b9150509250929050565b60008060408385031215611cdd57611cdc611707565b5b6000611ceb85828601611790565b9250506020611cfc85828601611790565b9150509250929050565b60008060408385031215611d1d57611d1c611707565b5b6000611d2b8582860161175a565b9250506020611d3c8582860161175a565b9150509250929050565b7f4e487b7100000000000000000000000000000000000000000000000000000000600052602260045260246000fd5b60006002820490506001821680611d8d57607f821691505b602082108103611da057611d9f611d46565b5b50919050565b7f4e487b7100000000000000000000000000000000000000000000000000000000600052601160045260246000fd5b6000611de08261176f565b9150611deb8361176f565b9250828201905080821115611e0357611e02611da6565b5b92915050565b60008190508160005260206000209050919050565b60006020601f8301049050919050565b600082821b905092915050565b600060088302611e6b7fffffffffffffffffffffffffffffffffffffffffffffffffffffffffffffffff82611e2e565b611e758683611e2e565b95508019841693508086168417925050509392505050565b6000819050919050565b6000611eb2611ead611ea88461176f565b611e8d565b61176f565b9050919050565b6000819050919050565b611ecc83611e97565b611ee0611ed882611eb9565b848454611e3b565b825550505050565b600090565b611ef5611ee8565b611f00818484611ec3565b505050565b5b81811015611f2457611f19600082611eed565b600181019050611f06565b5050565b601f821115611f6957611f3a81611e09565b611f4384611e1e565b81016020851015611f52578190505b611f66611f5e85611e1e565b830182611f05565b50505b505050565b600082821c905092915050565b6000611f8c60001984600802611f6e565b1980831691505092915050565b6000611fa58383611f7b565b9150826002028217905092915050565b611fbe8261164b565b67ffffffffffffffff811115611fd757611fd6611a8c565b5b611fe18254611d75565b611fec828285611f28565b600060209050601f83116001811461201f576000841561200d578287015190505b6120178582611f99565b86555061207f565b601f19841661202d86611e09565b60005b8281101561205557848901518255600182019150602085019450602081019050612030565b86831015612072578489015161206e601f891682611f7b565b8355505b6001600288020188555050505b505050505050565b60006120928261176f565b91507fffffffffffffffffffffffffffffffffffffffffffffffffffffffffffffffff82036120c4576120c3611da6565b5b600182019050919050565b7f45524332303a2064656372656173656420616c6c6f77616e63652062656c6f7760008201527f207a65726f000000000000000000000000000000000000000000000000000000602082015250565b600061212b602583611656565b9150612136826120cf565b604082019050919050565b6000602082019050818103600083015261215a8161211e565b9050919050565b7f4e487b7100000000000000000000000000000000000000000000000000000000600052603260045260246000fd5b600061219b8261176f565b91506121a68361176f565b92508282026121b48161176f565b915082820484148315176121cb576121ca611da6565b5b5092915050565b60006121dd8261176f565b91506121e88361176f565b9250828203905081811115612200576121ff611da6565b5b92915050565b7f45524332303a20617070726f76652066726f6d20746865207a65726f2061646460008201527f7265737300000000000000000000000000000000000000000000000000000000602082015250565b6000612262602483611656565b915061226d82612206565b604082019050919050565b6000602082019050818103600083015261229181612255565b9050919050565b7f45524332303a20617070726f766520746f20746865207a65726f20616464726560008201527f7373000000000000000000000000000000000000000000000000000000000000602082015250565b60006122f4602283611656565b91506122ff82612298565b604082019050919050565b60006020820190508181036000830152612323816122e7565b9050919050565b7f45524332303a20696e73756666696369656e7420616c6c6f77616e6365000000600082015250565b6000612360601d83611656565b915061236b8261232a565b602082019050919050565b6000602082019050818103600083015261238f81612353565b9050919050565b7f45524332303a207472616e736665722066726f6d20746865207a65726f20616460008201527f6472657373000000000000000000000000000000000000000000000000000000602082015250565b60006123f2602583611656565b91506123fd82612396565b604082019050919050565b60006020820190508181036000830152612421816123e5565b9050919050565b7f45524332303a207472616e7366657220746f20746865207a65726f206164647260008201527f6573730000000000000000000000000000000000000000000000000000000000602082015250565b6000612484602383611656565b915061248f82612428565b604082019050919050565b600060208201905081810360008301526124b381612477565b9050919050565b7f45524332303a207472616e7366657220616d6f756e742065786365656473206260008201527f616c616e63650000000000000000000000000000000000000000000000000000602082015250565b6000612516602683611656565b9150612521826124ba565b604082019050919050565b6000602082019050818103600083015261254581612509565b9050919050565b7f45524332303a206d696e7420746f20746865207a65726f206164647265737300600082015250565b6000612582601f83611656565b915061258d8261254c565b602082019050919050565b600060208201905081810360008301526125b181612575565b905091905056fea2646970667358221220ea2c8f1271011b0c86650296a37ecbe72d98e710b94b1bbd507ddd5670f059d764736f6c63430008110033","opcodes":"PUSH1 0x80 PUSH1 0x40 MSTORE CALLVALUE DUP1 ISZERO PUSH3 0x11 JUMPI PUSH1 0x0 DUP1 REVERT JUMPDEST POP PUSH1 0x40 MLOAD PUSH3 0x2DE0 CODESIZE SUB DUP1 PUSH3 0x2DE0 DUP4 CODECOPY DUP2 DUP2 ADD PUSH1 0x40 MSTORE DUP2 ADD SWAP1 PUSH3 0x37 SWAP2 SWAP1 PUSH3 0x3D1 JUMP JUMPDEST PUSH1 0x40 MLOAD DUP1 PUSH1 0x40 ADD PUSH1 0x40 MSTORE DUP1 PUSH1 0x8 DUP2 MSTORE PUSH1 0x20 ADD PUSH32 0x446576546F6B656E000000000000000000000000000000000000000000000000 DUP2 MSTORE POP PUSH1 0x40 MLOAD DUP1 PUSH1 0x40 ADD PUSH1 0x40 MSTORE DUP1 PUSH1 0x3 DUP2 MSTORE PUSH1 0x20 ADD PUSH32 0x4456540000000000000000000000000000000000000000000000000000000000 DUP2 MSTORE POP DUP2 PUSH1 0x3 SWAP1 DUP2 PUSH3 0xB4 SWAP2 SWAP1 PUSH3 0x6CC JUMP JUMPDEST POP DUP1 PUSH1 0x4 SWAP1 DUP2 PUSH3 0xC6 SWAP2 SWAP1 PUSH3 0x6CC JUMP JUMPDEST POP POP POP DUP4 PUSH2 0x201 PUSH1 0x0 PUSH2 0x100 EXP DUP2 SLOAD DUP2 PUSH20 0xFFFFFFFFFFFFFFFFFFFFFFFFFFFFFFFFFFFFFFFF MUL NOT AND SWAP1 DUP4 PUSH20 0xFFFFFFFFFFFFFFFFFFFFFFFFFFFFFFFFFFFFFFFF AND MUL OR SWAP1 SSTORE POP DUP3 PUSH1 0x6 PUSH1 0x0 PUSH2 0x100 EXP DUP2 SLOAD DUP2 PUSH1 0xFF MUL NOT AND SWAP1 DUP4 PUSH1 0x2 DUP2 GT ISZERO PUSH3 0x133 JUMPI PUSH3 0x132 PUSH3 0x7B3 JUMP JUMPDEST JUMPDEST MUL OR SWAP1 SSTORE POP PUSH1 0x0 PUSH2 0x1FC DUP2 SWAP1 SSTORE POP CALLER PUSH2 0x202 PUSH1 0x0 PUSH2 0x100 EXP DUP2 SLOAD DUP2 PUSH20 0xFFFFFFFFFFFFFFFFFFFFFFFFFFFFFFFFFFFFFFFF MUL NOT AND SWAP1 DUP4 PUSH20 0xFFFFFFFFFFFFFFFFFFFFFFFFFFFFFFFFFFFFFFFF AND MUL OR SWAP1 SSTORE POP DUP2 PUSH1 0x5 SWAP1 DUP2 PUSH3 0x194 SWAP2 SWAP1 PUSH3 0x6CC JUMP JUMPDEST POP DUP1 PUSH1 0x7 SWAP1 DUP2 PUSH3 0x1A6 SWAP2 SWAP1 PUSH3 0x6CC JUMP JUMPDEST POP POP POP POP POP PUSH3 0x7E2 JUMP JUMPDEST PUSH1 0x0 PUSH1 0x40 MLOAD SWAP1 POP SWAP1 JUMP JUMPDEST PUSH1 0x0 DUP1 REVERT JUMPDEST PUSH1 0x0 DUP1 REVERT JUMPDEST PUSH1 0x0 PUSH20 0xFFFFFFFFFFFFFFFFFFFFFFFFFFFFFFFFFFFFFFFF DUP3 AND SWAP1 POP SWAP2 SWAP1 POP JUMP JUMPDEST PUSH1 0x0 PUSH3 0x1F2 DUP3 PUSH3 0x1C5 JUMP JUMPDEST SWAP1 POP SWAP2 SWAP1 POP JUMP JUMPDEST PUSH3 0x204 DUP2 PUSH3 0x1E5 JUMP JUMPDEST DUP2 EQ PUSH3 0x210 JUMPI PUSH1 0x0 DUP1 REVERT JUMPDEST POP JUMP JUMPDEST PUSH1 0x0 DUP2 MLOAD SWAP1 POP PUSH3 0x224 DUP2 PUSH3 0x1F9 JUMP JUMPDEST SWAP3 SWAP2 POP POP JUMP JUMPDEST PUSH1 0x3 DUP2 LT PUSH3 0x238 JUMPI PUSH1 0x0 DUP1 REVERT JUMPDEST POP JUMP JUMPDEST PUSH1 0x0 DUP2 MLOAD SWAP1 POP PUSH3 0x24C DUP2 PUSH3 0x22A JUMP JUMPDEST SWAP3 SWAP2 POP POP JUMP JUMPDEST PUSH1 0x0 DUP1 REVERT JUMPDEST PUSH1 0x0 DUP1 REVERT JUMPDEST PUSH1 0x0 PUSH1 0x1F NOT PUSH1 0x1F DUP4 ADD AND SWAP1 POP SWAP2 SWAP1 POP JUMP JUMPDEST PUSH32 0x4E487B7100000000000000000000000000000000000000000000000000000000 PUSH1 0x0 MSTORE PUSH1 0x41 PUSH1 0x4 MSTORE PUSH1 0x24 PUSH1 0x0 REVERT JUMPDEST PUSH3 0x2A7 DUP3 PUSH3 0x25C JUMP JUMPDEST DUP2 ADD DUP2 DUP2 LT PUSH8 0xFFFFFFFFFFFFFFFF DUP3 GT OR ISZERO PUSH3 0x2C9 JUMPI PUSH3 0x2C8 PUSH3 0x26D JUMP JUMPDEST JUMPDEST DUP1 PUSH1 0x40 MSTORE POP POP POP JUMP JUMPDEST PUSH1 0x0 PUSH3 0x2DE PUSH3 0x1B1 JUMP JUMPDEST SWAP1 POP PUSH3 0x2EC DUP3 DUP3 PUSH3 0x29C JUMP JUMPDEST SWAP2 SWAP1 POP JUMP JUMPDEST PUSH1 0x0 PUSH8 0xFFFFFFFFFFFFFFFF DUP3 GT ISZERO PUSH3 0x30F JUMPI PUSH3 0x30E PUSH3 0x26D JUMP JUMPDEST JUMPDEST PUSH3 0x31A DUP3 PUSH3 0x25C JUMP JUMPDEST SWAP1 POP PUSH1 0x20 DUP2 ADD SWAP1 POP SWAP2 SWAP1 POP JUMP JUMPDEST PUSH1 0x0 JUMPDEST DUP4 DUP2 LT ISZERO PUSH3 0x347 JUMPI DUP1 DUP3 ADD MLOAD DUP2 DUP5 ADD MSTORE PUSH1 0x20 DUP2 ADD SWAP1 POP PUSH3 0x32A JUMP JUMPDEST PUSH1 0x0 DUP5 DUP5 ADD MSTORE POP POP POP POP JUMP JUMPDEST PUSH1 0x0 PUSH3 0x36A PUSH3 0x364 DUP5 PUSH3 0x2F1 JUMP JUMPDEST PUSH3 0x2D2 JUMP JUMPDEST SWAP1 POP DUP3 DUP2 MSTORE PUSH1 0x20 DUP2 ADD DUP5 DUP5 DUP5 ADD GT ISZERO PUSH3 0x389 JUMPI PUSH3 0x388 PUSH3 0x257 JUMP JUMPDEST JUMPDEST PUSH3 0x396 DUP5 DUP3 DUP6 PUSH3 0x327 JUMP JUMPDEST POP SWAP4 SWAP3 POP POP POP JUMP JUMPDEST PUSH1 0x0 DUP3 PUSH1 0x1F DUP4 ADD SLT PUSH3 0x3B6 JUMPI PUSH3 0x3B5 PUSH3 0x252 JUMP JUMPDEST JUMPDEST DUP2 MLOAD PUSH3 0x3C8 DUP5 DUP3 PUSH1 0x20 DUP7 ADD PUSH3 0x353 JUMP JUMPDEST SWAP2 POP POP SWAP3 SWAP2 POP POP JUMP JUMPDEST PUSH1 0x0 DUP1 PUSH1 0x0 DUP1 PUSH1 0x80 DUP6 DUP8 SUB SLT ISZERO PUSH3 0x3EE JUMPI PUSH3 0x3ED PUSH3 0x1BB JUMP JUMPDEST JUMPDEST PUSH1 0x0 PUSH3 0x3FE DUP8 DUP3 DUP9 ADD PUSH3 0x213 JUMP JUMPDEST SWAP5 POP POP PUSH1 0x20 PUSH3 0x411 DUP8 DUP3 DUP9 ADD PUSH3 0x23B JUMP JUMPDEST SWAP4 POP POP PUSH1 0x40 DUP6 ADD MLOAD PUSH8 0xFFFFFFFFFFFFFFFF DUP2 GT ISZERO PUSH3 0x435 JUMPI PUSH3 0x434 PUSH3 0x1C0 JUMP JUMPDEST JUMPDEST PUSH3 0x443 DUP8 DUP3 DUP9 ADD PUSH3 0x39E JUMP JUMPDEST SWAP3 POP POP PUSH1 0x60 DUP6 ADD MLOAD PUSH8 0xFFFFFFFFFFFFFFFF DUP2 GT ISZERO PUSH3 0x467 JUMPI PUSH3 0x466 PUSH3 0x1C0 JUMP JUMPDEST JUMPDEST PUSH3 0x475 DUP8 DUP3 DUP9 ADD PUSH3 0x39E JUMP JUMPDEST SWAP2 POP POP SWAP3 SWAP6 SWAP2 SWAP5 POP SWAP3 POP JUMP JUMPDEST PUSH1 0x0 DUP2 MLOAD SWAP1 POP SWAP2 SWAP1 POP JUMP JUMPDEST PUSH32 0x4E487B7100000000000000000000000000000000000000000000000000000000 PUSH1 0x0 MSTORE PUSH1 0x22 PUSH1 0x4 MSTORE PUSH1 0x24 PUSH1 0x0 REVERT JUMPDEST PUSH1 0x0 PUSH1 0x2 DUP3 DIV SWAP1 POP PUSH1 0x1 DUP3 AND DUP1 PUSH3 0x4D4 JUMPI PUSH1 0x7F DUP3 AND SWAP2 POP JUMPDEST PUSH1 0x20 DUP3 LT DUP2 SUB PUSH3 0x4EA JUMPI PUSH3 0x4E9 PUSH3 0x48C JUMP JUMPDEST JUMPDEST POP SWAP2 SWAP1 POP JUMP JUMPDEST PUSH1 0x0 DUP2 SWAP1 POP DUP2 PUSH1 0x0 MSTORE PUSH1 0x20 PUSH1 0x0 KECCAK256 SWAP1 POP SWAP2 SWAP1 POP JUMP JUMPDEST PUSH1 0x0 PUSH1 0x20 PUSH1 0x1F DUP4 ADD DIV SWAP1 POP SWAP2 SWAP1 POP JUMP JUMPDEST PUSH1 0x0 DUP3 DUP3 SHL SWAP1 POP SWAP3 SWAP2 POP POP JUMP JUMPDEST PUSH1 0x0 PUSH1 0x8 DUP4 MUL PUSH3 0x554 PUSH32 0xFFFFFFFFFFFFFFFFFFFFFFFFFFFFFFFFFFFFFFFFFFFFFFFFFFFFFFFFFFFFFFFF DUP3 PUSH3 0x515 JUMP JUMPDEST PUSH3 0x560 DUP7 DUP4 PUSH3 0x515 JUMP JUMPDEST SWAP6 POP DUP1 NOT DUP5 AND SWAP4 POP DUP1 DUP7 AND DUP5 OR SWAP3 POP POP POP SWAP4 SWAP3 POP POP POP JUMP JUMPDEST PUSH1 0x0 DUP2 SWAP1 POP SWAP2 SWAP1 POP JUMP JUMPDEST PUSH1 0x0 DUP2 SWAP1 POP SWAP2 SWAP1 POP JUMP JUMPDEST PUSH1 0x0 PUSH3 0x5AD PUSH3 0x5A7 PUSH3 0x5A1 DUP5 PUSH3 0x578 JUMP JUMPDEST PUSH3 0x582 JUMP JUMPDEST PUSH3 0x578 JUMP JUMPDEST SWAP1 POP SWAP2 SWAP1 POP JUMP JUMPDEST PUSH1 0x0 DUP2 SWAP1 POP SWAP2 SWAP1 POP JUMP JUMPDEST PUSH3 0x5C9 DUP4 PUSH3 0x58C JUMP JUMPDEST PUSH3 0x5E1 PUSH3 0x5D8 DUP3 PUSH3 0x5B4 JUMP JUMPDEST DUP5 DUP5 SLOAD PUSH3 0x522 JUMP JUMPDEST DUP3 SSTORE POP POP POP POP JUMP JUMPDEST PUSH1 0x0 SWAP1 JUMP JUMPDEST PUSH3 0x5F8 PUSH3 0x5E9 JUMP JUMPDEST PUSH3 0x605 DUP2 DUP5 DUP5 PUSH3 0x5BE JUMP JUMPDEST POP POP POP JUMP JUMPDEST JUMPDEST DUP2 DUP2 LT ISZERO PUSH3 0x62D JUMPI PUSH3 0x621 PUSH1 0x0 DUP3 PUSH3 0x5EE JUMP JUMPDEST PUSH1 0x1 DUP2 ADD SWAP1 POP PUSH3 0x60B JUMP JUMPDEST POP POP JUMP JUMPDEST PUSH1 0x1F DUP3 GT ISZERO PUSH3 0x67C JUMPI PUSH3 0x646 DUP2 PUSH3 0x4F0 JUMP JUMPDEST PUSH3 0x651 DUP5 PUSH3 0x505 JUMP JUMPDEST DUP2 ADD PUSH1 0x20 DUP6 LT ISZERO PUSH3 0x661 JUMPI DUP2 SWAP1 POP JUMPDEST PUSH3 0x679 PUSH3 0x670 DUP6 PUSH3 0x505 JUMP JUMPDEST DUP4 ADD DUP3 PUSH3 0x60A JUMP JUMPDEST POP POP JUMPDEST POP POP POP JUMP JUMPDEST PUSH1 0x0 DUP3 DUP3 SHR SWAP1 POP SWAP3 SWAP2 POP POP JUMP JUMPDEST PUSH1 0x0 PUSH3 0x6A1 PUSH1 0x0 NOT DUP5 PUSH1 0x8 MUL PUSH3 0x681 JUMP JUMPDEST NOT DUP1 DUP4 AND SWAP2 POP POP SWAP3 SWAP2 POP POP JUMP JUMPDEST PUSH1 0x0 PUSH3 0x6BC DUP4 DUP4 PUSH3 0x68E JUMP JUMPDEST SWAP2 POP DUP3 PUSH1 0x2 MUL DUP3 OR SWAP1 POP SWAP3 SWAP2 POP POP JUMP JUMPDEST PUSH3 0x6D7 DUP3 PUSH3 0x481 JUMP JUMPDEST PUSH8 0xFFFFFFFFFFFFFFFF DUP2 GT ISZERO PUSH3 0x6F3 JUMPI PUSH3 0x6F2 PUSH3 0x26D JUMP JUMPDEST JUMPDEST PUSH3 0x6FF DUP3 SLOAD PUSH3 0x4BB JUMP JUMPDEST PUSH3 0x70C DUP3 DUP3 DUP6 PUSH3 0x631 JUMP JUMPDEST PUSH1 0x0 PUSH1 0x20 SWAP1 POP PUSH1 0x1F DUP4 GT PUSH1 0x1 DUP2 EQ PUSH3 0x744 JUMPI PUSH1 0x0 DUP5 ISZERO PUSH3 0x72F JUMPI DUP3 DUP8 ADD MLOAD SWAP1 POP JUMPDEST PUSH3 0x73B DUP6 DUP3 PUSH3 0x6AE JUMP JUMPDEST DUP7 SSTORE POP PUSH3 0x7AB JUMP JUMPDEST PUSH1 0x1F NOT DUP5 AND PUSH3 0x754 DUP7 PUSH3 0x4F0 JUMP JUMPDEST PUSH1 0x0 JUMPDEST DUP3 DUP2 LT ISZERO PUSH3 0x77E JUMPI DUP5 DUP10 ADD MLOAD DUP3 SSTORE PUSH1 0x1 DUP3 ADD SWAP2 POP PUSH1 0x20 DUP6 ADD SWAP5 POP PUSH1 0x20 DUP2 ADD SWAP1 POP PUSH3 0x757 JUMP JUMPDEST DUP7 DUP4 LT ISZERO PUSH3 0x79E JUMPI DUP5 DUP10 ADD MLOAD PUSH3 0x79A PUSH1 0x1F DUP10 AND DUP3 PUSH3 0x68E JUMP JUMPDEST DUP4 SSTORE POP JUMPDEST PUSH1 0x1 PUSH1 0x2 DUP9 MUL ADD DUP9 SSTORE POP POP POP JUMPDEST POP POP POP POP POP POP JUMP JUMPDEST PUSH32 0x4E487B7100000000000000000000000000000000000000000000000000000000 PUSH1 0x0 MSTORE PUSH1 0x21 PUSH1 0x4 MSTORE PUSH1 0x24 PUSH1 0x0 REVERT JUMPDEST PUSH2 0x25EE DUP1 PUSH3 0x7F2 PUSH1 0x0 CODECOPY PUSH1 0x0 RETURN INVALID PUSH1 0x80 PUSH1 0x40 MSTORE CALLVALUE DUP1 ISZERO PUSH2 0x10 JUMPI PUSH1 0x0 DUP1 REVERT JUMPDEST POP PUSH1 0x4 CALLDATASIZE LT PUSH2 0x14D JUMPI PUSH1 0x0 CALLDATALOAD PUSH1 0xE0 SHR DUP1 PUSH4 0x8DA5CB5B GT PUSH2 0xC3 JUMPI DUP1 PUSH4 0xA9059CBB GT PUSH2 0x7C JUMPI DUP1 PUSH4 0xA9059CBB EQ PUSH2 0x3EA JUMPI DUP1 PUSH4 0xAA8FB40B EQ PUSH2 0x41A JUMPI DUP1 PUSH4 0xB521CC8E EQ PUSH2 0x438 JUMPI DUP1 PUSH4 0xBE0F1392 EQ PUSH2 0x454 JUMPI DUP1 PUSH4 0xDD62ED3E EQ PUSH2 0x470 JUMPI DUP1 PUSH4 0xE74A84EA EQ PUSH2 0x4A0 JUMPI PUSH2 0x14D JUMP JUMPDEST DUP1 PUSH4 0x8DA5CB5B EQ PUSH2 0x2FA JUMPI DUP1 PUSH4 0x93B2E054 EQ PUSH2 0x318 JUMPI DUP1 PUSH4 0x94FCA80E EQ PUSH2 0x34C JUMPI DUP1 PUSH4 0x95D89B41 EQ PUSH2 0x368 JUMPI DUP1 PUSH4 0xA457C2D7 EQ PUSH2 0x386 JUMPI DUP1 PUSH4 0xA85C38EF EQ PUSH2 0x3B6 JUMPI PUSH2 0x14D JUMP JUMPDEST DUP1 PUSH4 0x23B872DD GT PUSH2 0x115 JUMPI DUP1 PUSH4 0x23B872DD EQ PUSH2 0x1FA JUMPI DUP1 PUSH4 0x2AC9E0B3 EQ PUSH2 0x22A JUMPI DUP1 PUSH4 0x313CE567 EQ PUSH2 0x25E JUMPI DUP1 PUSH4 0x39509351 EQ PUSH2 0x27C JUMPI DUP1 PUSH4 0x70A08231 EQ PUSH2 0x2AC JUMPI DUP1 PUSH4 0x893D20E8 EQ PUSH2 0x2DC JUMPI PUSH2 0x14D JUMP JUMPDEST DUP1 PUSH4 0x6FDDE03 EQ PUSH2 0x152 JUMPI DUP1 PUSH4 0x95EA7B3 EQ PUSH2 0x170 JUMPI DUP1 PUSH4 0x1385A6F2 EQ PUSH2 0x1A0 JUMPI DUP1 PUSH4 0x18160DDD EQ PUSH2 0x1BE JUMPI DUP1 PUSH4 0x1E361901 EQ PUSH2 0x1DC JUMPI JUMPDEST PUSH1 0x0 DUP1 REVERT JUMPDEST PUSH2 0x15A PUSH2 0x4BC JUMP JUMPDEST PUSH1 0x40 MLOAD PUSH2 0x167 SWAP2 SWAP1 PUSH2 0x16DB JUMP JUMPDEST PUSH1 0x40 MLOAD DUP1 SWAP2 SUB SWAP1 RETURN JUMPDEST PUSH2 0x18A PUSH1 0x4 DUP1 CALLDATASIZE SUB DUP2 ADD SWAP1 PUSH2 0x185 SWAP2 SWAP1 PUSH2 0x17A5 JUMP JUMPDEST PUSH2 0x54E JUMP JUMPDEST PUSH1 0x40 MLOAD PUSH2 0x197 SWAP2 SWAP1 PUSH2 0x1800 JUMP JUMPDEST PUSH1 0x40 MLOAD DUP1 SWAP2 SUB SWAP1 RETURN JUMPDEST PUSH2 0x1A8 PUSH2 0x571 JUMP JUMPDEST PUSH1 0x40 MLOAD PUSH2 0x1B5 SWAP2 SWAP1 PUSH2 0x1892 JUMP JUMPDEST PUSH1 0x40 MLOAD DUP1 SWAP2 SUB SWAP1 RETURN JUMPDEST PUSH2 0x1C6 PUSH2 0x584 JUMP JUMPDEST PUSH1 0x40 MLOAD PUSH2 0x1D3 SWAP2 SWAP1 PUSH2 0x18BC JUMP JUMPDEST PUSH1 0x40 MLOAD DUP1 SWAP2 SUB SWAP1 RETURN JUMPDEST PUSH2 0x1E4 PUSH2 0x58E JUMP JUMPDEST PUSH1 0x40 MLOAD PUSH2 0x1F1 SWAP2 SWAP1 PUSH2 0x16DB JUMP JUMPDEST PUSH1 0x40 MLOAD DUP1 SWAP2 SUB SWAP1 RETURN JUMPDEST PUSH2 0x214 PUSH1 0x4 DUP1 CALLDATASIZE SUB DUP2 ADD SWAP1 PUSH2 0x20F SWAP2 SWAP1 PUSH2 0x18D7 JUMP JUMPDEST PUSH2 0x61C JUMP JUMPDEST PUSH1 0x40 MLOAD PUSH2 0x221 SWAP2 SWAP1 PUSH2 0x1800 JUMP JUMPDEST PUSH1 0x40 MLOAD DUP1 SWAP2 SUB SWAP1 RETURN JUMPDEST PUSH2 0x244 PUSH1 0x4 DUP1 CALLDATASIZE SUB DUP2 ADD SWAP1 PUSH2 0x23F SWAP2 SWAP1 PUSH2 0x192A JUMP JUMPDEST PUSH2 0x64B JUMP JUMPDEST PUSH1 0x40 MLOAD PUSH2 0x255 SWAP6 SWAP5 SWAP4 SWAP3 SWAP2 SWAP1 PUSH2 0x1957 JUMP JUMPDEST PUSH1 0x40 MLOAD DUP1 SWAP2 SUB SWAP1 RETURN JUMPDEST PUSH2 0x266 PUSH2 0x792 JUMP JUMPDEST PUSH1 0x40 MLOAD PUSH2 0x273 SWAP2 SWAP1 PUSH2 0x19D4 JUMP JUMPDEST PUSH1 0x40 MLOAD DUP1 SWAP2 SUB SWAP1 RETURN JUMPDEST PUSH2 0x296 PUSH1 0x4 DUP1 CALLDATASIZE SUB DUP2 ADD SWAP1 PUSH2 0x291 SWAP2 SWAP1 PUSH2 0x17A5 JUMP JUMPDEST PUSH2 0x79B JUMP JUMPDEST PUSH1 0x40 MLOAD PUSH2 0x2A3 SWAP2 SWAP1 PUSH2 0x1800 JUMP JUMPDEST PUSH1 0x40 MLOAD DUP1 SWAP2 SUB SWAP1 RETURN JUMPDEST PUSH2 0x2C6 PUSH1 0x4 DUP1 CALLDATASIZE SUB DUP2 ADD SWAP1 PUSH2 0x2C1 SWAP2 SWAP1 PUSH2 0x19EF JUMP JUMPDEST PUSH2 0x7D2 JUMP JUMPDEST PUSH1 0x40 MLOAD PUSH2 0x2D3 SWAP2 SWAP1 PUSH2 0x18BC JUMP JUMPDEST PUSH1 0x40 MLOAD DUP1 SWAP2 SUB SWAP1 RETURN JUMPDEST PUSH2 0x2E4 PUSH2 0x81A JUMP JUMPDEST PUSH1 0x40 MLOAD PUSH2 0x2F1 SWAP2 SWAP1 PUSH2 0x1A2B JUMP JUMPDEST PUSH1 0x40 MLOAD DUP1 SWAP2 SUB SWAP1 RETURN JUMPDEST PUSH2 0x302 PUSH2 0x845 JUMP JUMPDEST PUSH1 0x40 MLOAD PUSH2 0x30F SWAP2 SWAP1 PUSH2 0x1A67 JUMP JUMPDEST PUSH1 0x40 MLOAD DUP1 SWAP2 SUB SWAP1 RETURN JUMPDEST PUSH2 0x332 PUSH1 0x4 DUP1 CALLDATASIZE SUB DUP2 ADD SWAP1 PUSH2 0x32D SWAP2 SWAP1 PUSH2 0x192A JUMP JUMPDEST PUSH2 0x86C JUMP JUMPDEST PUSH1 0x40 MLOAD PUSH2 0x343 SWAP6 SWAP5 SWAP4 SWAP3 SWAP2 SWAP1 PUSH2 0x1957 JUMP JUMPDEST PUSH1 0x40 MLOAD DUP1 SWAP2 SUB SWAP1 RETURN JUMPDEST PUSH2 0x366 PUSH1 0x4 DUP1 CALLDATASIZE SUB DUP2 ADD SWAP1 PUSH2 0x361 SWAP2 SWAP1 PUSH2 0x1BB7 JUMP JUMPDEST PUSH2 0x9B3 JUMP JUMPDEST STOP JUMPDEST PUSH2 0x370 PUSH2 0xABF JUMP JUMPDEST PUSH1 0x40 MLOAD PUSH2 0x37D SWAP2 SWAP1 PUSH2 0x16DB JUMP JUMPDEST PUSH1 0x40 MLOAD DUP1 SWAP2 SUB SWAP1 RETURN JUMPDEST PUSH2 0x3A0 PUSH1 0x4 DUP1 CALLDATASIZE SUB DUP2 ADD SWAP1 PUSH2 0x39B SWAP2 SWAP1 PUSH2 0x17A5 JUMP JUMPDEST PUSH2 0xB51 JUMP JUMPDEST PUSH1 0x40 MLOAD PUSH2 0x3AD SWAP2 SWAP1 PUSH2 0x1800 JUMP JUMPDEST PUSH1 0x40 MLOAD DUP1 SWAP2 SUB SWAP1 RETURN JUMPDEST PUSH2 0x3D0 PUSH1 0x4 DUP1 CALLDATASIZE SUB DUP2 ADD SWAP1 PUSH2 0x3CB SWAP2 SWAP1 PUSH2 0x192A JUMP JUMPDEST PUSH2 0xBC8 JUMP JUMPDEST PUSH1 0x40 MLOAD PUSH2 0x3E1 SWAP6 SWAP5 SWAP4 SWAP3 SWAP2 SWAP1 PUSH2 0x1957 JUMP JUMPDEST PUSH1 0x40 MLOAD DUP1 SWAP2 SUB SWAP1 RETURN JUMPDEST PUSH2 0x404 PUSH1 0x4 DUP1 CALLDATASIZE SUB DUP2 ADD SWAP1 PUSH2 0x3FF SWAP2 SWAP1 PUSH2 0x17A5 JUMP JUMPDEST PUSH2 0xD14 JUMP JUMPDEST PUSH1 0x40 MLOAD PUSH2 0x411 SWAP2 SWAP1 PUSH2 0x1800 JUMP JUMPDEST PUSH1 0x40 MLOAD DUP1 SWAP2 SUB SWAP1 RETURN JUMPDEST PUSH2 0x422 PUSH2 0xD37 JUMP JUMPDEST PUSH1 0x40 MLOAD PUSH2 0x42F SWAP2 SWAP1 PUSH2 0x16DB JUMP JUMPDEST PUSH1 0x40 MLOAD DUP1 SWAP2 SUB SWAP1 RETURN JUMPDEST PUSH2 0x452 PUSH1 0x4 DUP1 CALLDATASIZE SUB DUP2 ADD SWAP1 PUSH2 0x44D SWAP2 SWAP1 PUSH2 0x1C6A JUMP JUMPDEST PUSH2 0xDC5 JUMP JUMPDEST STOP JUMPDEST PUSH2 0x46E PUSH1 0x4 DUP1 CALLDATASIZE SUB DUP2 ADD SWAP1 PUSH2 0x469 SWAP2 SWAP1 PUSH2 0x1CC6 JUMP JUMPDEST PUSH2 0xE74 JUMP JUMPDEST STOP JUMPDEST PUSH2 0x48A PUSH1 0x4 DUP1 CALLDATASIZE SUB DUP2 ADD SWAP1 PUSH2 0x485 SWAP2 SWAP1 PUSH2 0x1D06 JUMP JUMPDEST PUSH2 0xF54 JUMP JUMPDEST PUSH1 0x40 MLOAD PUSH2 0x497 SWAP2 SWAP1 PUSH2 0x18BC JUMP JUMPDEST PUSH1 0x40 MLOAD DUP1 SWAP2 SUB SWAP1 RETURN JUMPDEST PUSH2 0x4BA PUSH1 0x4 DUP1 CALLDATASIZE SUB DUP2 ADD SWAP1 PUSH2 0x4B5 SWAP2 SWAP1 PUSH2 0x17A5 JUMP JUMPDEST PUSH2 0xFDB JUMP JUMPDEST STOP JUMPDEST PUSH1 0x60 PUSH1 0x3 DUP1 SLOAD PUSH2 0x4CB SWAP1 PUSH2 0x1D75 JUMP JUMPDEST DUP1 PUSH1 0x1F ADD PUSH1 0x20 DUP1 SWAP2 DIV MUL PUSH1 0x20 ADD PUSH1 0x40 MLOAD SWAP1 DUP2 ADD PUSH1 0x40 MSTORE DUP1 SWAP3 SWAP2 SWAP1 DUP2 DUP2 MSTORE PUSH1 0x20 ADD DUP3 DUP1 SLOAD PUSH2 0x4F7 SWAP1 PUSH2 0x1D75 JUMP JUMPDEST DUP1 ISZERO PUSH2 0x544 JUMPI DUP1 PUSH1 0x1F LT PUSH2 0x519 JUMPI PUSH2 0x100 DUP1 DUP4 SLOAD DIV MUL DUP4 MSTORE SWAP2 PUSH1 0x20 ADD SWAP2 PUSH2 0x544 JUMP JUMPDEST DUP3 ADD SWAP2 SWAP1 PUSH1 0x0 MSTORE PUSH1 0x20 PUSH1 0x0 KECCAK256 SWAP1 JUMPDEST DUP2 SLOAD DUP2 MSTORE SWAP1 PUSH1 0x1 ADD SWAP1 PUSH1 0x20 ADD DUP1 DUP4 GT PUSH2 0x527 JUMPI DUP3 SWAP1 SUB PUSH1 0x1F AND DUP3 ADD SWAP2 JUMPDEST POP POP POP POP POP SWAP1 POP SWAP1 JUMP JUMPDEST PUSH1 0x0 DUP1 PUSH2 0x559 PUSH2 0xFE9 JUMP JUMPDEST SWAP1 POP PUSH2 0x566 DUP2 DUP6 DUP6 PUSH2 0xFF1 JUMP JUMPDEST PUSH1 0x1 SWAP2 POP POP SWAP3 SWAP2 POP POP JUMP JUMPDEST PUSH1 0x6 PUSH1 0x0 SWAP1 SLOAD SWAP1 PUSH2 0x100 EXP SWAP1 DIV PUSH1 0xFF AND DUP2 JUMP JUMPDEST PUSH1 0x0 PUSH1 0x2 SLOAD SWAP1 POP SWAP1 JUMP JUMPDEST PUSH1 0x5 DUP1 SLOAD PUSH2 0x59B SWAP1 PUSH2 0x1D75 JUMP JUMPDEST DUP1 PUSH1 0x1F ADD PUSH1 0x20 DUP1 SWAP2 DIV MUL PUSH1 0x20 ADD PUSH1 0x40 MLOAD SWAP1 DUP2 ADD PUSH1 0x40 MSTORE DUP1 SWAP3 SWAP2 SWAP1 DUP2 DUP2 MSTORE PUSH1 0x20 ADD DUP3 DUP1 SLOAD PUSH2 0x5C7 SWAP1 PUSH2 0x1D75 JUMP JUMPDEST DUP1 ISZERO PUSH2 0x614 JUMPI DUP1 PUSH1 0x1F LT PUSH2 0x5E9 JUMPI PUSH2 0x100 DUP1 DUP4 SLOAD DIV MUL DUP4 MSTORE SWAP2 PUSH1 0x20 ADD SWAP2 PUSH2 0x614 JUMP JUMPDEST DUP3 ADD SWAP2 SWAP1 PUSH1 0x0 MSTORE PUSH1 0x20 PUSH1 0x0 KECCAK256 SWAP1 JUMPDEST DUP2 SLOAD DUP2 MSTORE SWAP1 PUSH1 0x1 ADD SWAP1 PUSH1 0x20 ADD DUP1 DUP4 GT PUSH2 0x5F7 JUMPI DUP3 SWAP1 SUB PUSH1 0x1F AND DUP3 ADD SWAP2 JUMPDEST POP POP POP POP POP DUP2 JUMP JUMPDEST PUSH1 0x0 DUP1 PUSH2 0x627 PUSH2 0xFE9 JUMP JUMPDEST SWAP1 POP PUSH2 0x634 DUP6 DUP3 DUP6 PUSH2 0x11BA JUMP JUMPDEST PUSH2 0x63F DUP6 DUP6 DUP6 PUSH2 0x1246 JUMP JUMPDEST PUSH1 0x1 SWAP2 POP POP SWAP4 SWAP3 POP POP POP JUMP JUMPDEST PUSH2 0x1FD PUSH1 0x20 MSTORE DUP1 PUSH1 0x0 MSTORE PUSH1 0x40 PUSH1 0x0 KECCAK256 PUSH1 0x0 SWAP2 POP SWAP1 POP DUP1 PUSH1 0x0 ADD DUP1 SLOAD PUSH2 0x66F SWAP1 PUSH2 0x1D75 JUMP JUMPDEST DUP1 PUSH1 0x1F ADD PUSH1 0x20 DUP1 SWAP2 DIV MUL PUSH1 0x20 ADD PUSH1 0x40 MLOAD SWAP1 DUP2 ADD PUSH1 0x40 MSTORE DUP1 SWAP3 SWAP2 SWAP1 DUP2 DUP2 MSTORE PUSH1 0x20 ADD DUP3 DUP1 SLOAD PUSH2 0x69B SWAP1 PUSH2 0x1D75 JUMP JUMPDEST DUP1 ISZERO PUSH2 0x6E8 JUMPI DUP1 PUSH1 0x1F LT PUSH2 0x6BD JUMPI PUSH2 0x100 DUP1 DUP4 SLOAD DIV MUL DUP4 MSTORE SWAP2 PUSH1 0x20 ADD SWAP2 PUSH2 0x6E8 JUMP JUMPDEST DUP3 ADD SWAP2 SWAP1 PUSH1 0x0 MSTORE PUSH1 0x20 PUSH1 0x0 KECCAK256 SWAP1 JUMPDEST DUP2 SLOAD DUP2 MSTORE SWAP1 PUSH1 0x1 ADD SWAP1 PUSH1 0x20 ADD DUP1 DUP4 GT PUSH2 0x6CB JUMPI DUP3 SWAP1 SUB PUSH1 0x1F AND DUP3 ADD SWAP2 JUMPDEST POP POP POP POP POP SWAP1 DUP1 PUSH1 0x1 ADD DUP1 SLOAD PUSH2 0x6FD SWAP1 PUSH2 0x1D75 JUMP JUMPDEST DUP1 PUSH1 0x1F ADD PUSH1 0x20 DUP1 SWAP2 DIV MUL PUSH1 0x20 ADD PUSH1 0x40 MLOAD SWAP1 DUP2 ADD PUSH1 0x40 MSTORE DUP1 SWAP3 SWAP2 SWAP1 DUP2 DUP2 MSTORE PUSH1 0x20 ADD DUP3 DUP1 SLOAD PUSH2 0x729 SWAP1 PUSH2 0x1D75 JUMP JUMPDEST DUP1 ISZERO PUSH2 0x776 JUMPI DUP1 PUSH1 0x1F LT PUSH2 0x74B JUMPI PUSH2 0x100 DUP1 DUP4 SLOAD DIV MUL DUP4 MSTORE SWAP2 PUSH1 0x20 ADD SWAP2 PUSH2 0x776 JUMP JUMPDEST DUP3 ADD SWAP2 SWAP1 PUSH1 0x0 MSTORE PUSH1 0x20 PUSH1 0x0 KECCAK256 SWAP1 JUMPDEST DUP2 SLOAD DUP2 MSTORE SWAP1 PUSH1 0x1 ADD SWAP1 PUSH1 0x20 ADD DUP1 DUP4 GT PUSH2 0x759 JUMPI DUP3 SWAP1 SUB PUSH1 0x1F AND DUP3 ADD SWAP2 JUMPDEST POP POP POP POP POP SWAP1 DUP1 PUSH1 0x2 ADD SLOAD SWAP1 DUP1 PUSH1 0x3 ADD SLOAD SWAP1 DUP1 PUSH1 0x4 ADD SLOAD SWAP1 POP DUP6 JUMP JUMPDEST PUSH1 0x0 PUSH1 0x12 SWAP1 POP SWAP1 JUMP JUMPDEST PUSH1 0x0 DUP1 PUSH2 0x7A6 PUSH2 0xFE9 JUMP JUMPDEST SWAP1 POP PUSH2 0x7C7 DUP2 DUP6 DUP6 PUSH2 0x7B8 DUP6 DUP10 PUSH2 0xF54 JUMP JUMPDEST PUSH2 0x7C2 SWAP2 SWAP1 PUSH2 0x1DD5 JUMP JUMPDEST PUSH2 0xFF1 JUMP JUMPDEST PUSH1 0x1 SWAP2 POP POP SWAP3 SWAP2 POP POP JUMP JUMPDEST PUSH1 0x0 DUP1 PUSH1 0x0 DUP4 PUSH20 0xFFFFFFFFFFFFFFFFFFFFFFFFFFFFFFFFFFFFFFFF AND PUSH20 0xFFFFFFFFFFFFFFFFFFFFFFFFFFFFFFFFFFFFFFFF AND DUP2 MSTORE PUSH1 0x20 ADD SWAP1 DUP2 MSTORE PUSH1 0x20 ADD PUSH1 0x0 KECCAK256 SLOAD SWAP1 POP SWAP2 SWAP1 POP JUMP JUMPDEST PUSH1 0x0 PUSH2 0x201 PUSH1 0x0 SWAP1 SLOAD SWAP1 PUSH2 0x100 EXP SWAP1 DIV PUSH20 0xFFFFFFFFFFFFFFFFFFFFFFFFFFFFFFFFFFFFFFFF AND SWAP1 POP SWAP1 JUMP JUMPDEST PUSH2 0x201 PUSH1 0x0 SWAP1 SLOAD SWAP1 PUSH2 0x100 EXP SWAP1 DIV PUSH20 0xFFFFFFFFFFFFFFFFFFFFFFFFFFFFFFFFFFFFFFFF AND DUP2 JUMP JUMPDEST PUSH2 0x1FE PUSH1 0x20 MSTORE DUP1 PUSH1 0x0 MSTORE PUSH1 0x40 PUSH1 0x0 KECCAK256 PUSH1 0x0 SWAP2 POP SWAP1 POP DUP1 PUSH1 0x0 ADD DUP1 SLOAD PUSH2 0x890 SWAP1 PUSH2 0x1D75 JUMP JUMPDEST DUP1 PUSH1 0x1F ADD PUSH1 0x20 DUP1 SWAP2 DIV MUL PUSH1 0x20 ADD PUSH1 0x40 MLOAD SWAP1 DUP2 ADD PUSH1 0x40 MSTORE DUP1 SWAP3 SWAP2 SWAP1 DUP2 DUP2 MSTORE PUSH1 0x20 ADD DUP3 DUP1 SLOAD PUSH2 0x8BC SWAP1 PUSH2 0x1D75 JUMP JUMPDEST DUP1 ISZERO PUSH2 0x909 JUMPI DUP1 PUSH1 0x1F LT PUSH2 0x8DE JUMPI PUSH2 0x100 DUP1 DUP4 SLOAD DIV MUL DUP4 MSTORE SWAP2 PUSH1 0x20 ADD SWAP2 PUSH2 0x909 JUMP JUMPDEST DUP3 ADD SWAP2 SWAP1 PUSH1 0x0 MSTORE PUSH1 0x20 PUSH1 0x0 KECCAK256 SWAP1 JUMPDEST DUP2 SLOAD DUP2 MSTORE SWAP1 PUSH1 0x1 ADD SWAP1 PUSH1 0x20 ADD DUP1 DUP4 GT PUSH2 0x8EC JUMPI DUP3 SWAP1 SUB PUSH1 0x1F AND DUP3 ADD SWAP2 JUMPDEST POP POP POP POP POP SWAP1 DUP1 PUSH1 0x1 ADD DUP1 SLOAD PUSH2 0x91E SWAP1 PUSH2 0x1D75 JUMP JUMPDEST DUP1 PUSH1 0x1F ADD PUSH1 0x20 DUP1 SWAP2 DIV MUL PUSH1 0x20 ADD PUSH1 0x40 MLOAD SWAP1 DUP2 ADD PUSH1 0x40 MSTORE DUP1 SWAP3 SWAP2 SWAP1 DUP2 DUP2 MSTORE PUSH1 0x20 ADD DUP3 DUP1 SLOAD PUSH2 0x94A SWAP1 PUSH2 0x1D75 JUMP JUMPDEST DUP1 ISZERO PUSH2 0x997 JUMPI DUP1 PUSH1 0x1F LT PUSH2 0x96C JUMPI PUSH2 0x100 DUP1 DUP4 SLOAD DIV MUL DUP4 MSTORE SWAP2 PUSH1 0x20 ADD SWAP2 PUSH2 0x997 JUMP JUMPDEST DUP3 ADD SWAP2 SWAP1 PUSH1 0x0 MSTORE PUSH1 0x20 PUSH1 0x0 KECCAK256 SWAP1 JUMPDEST DUP2 SLOAD DUP2 MSTORE SWAP1 PUSH1 0x1 ADD SWAP1 PUSH1 0x20 ADD DUP1 DUP4 GT PUSH2 0x97A JUMPI DUP3 SWAP1 SUB PUSH1 0x1F AND DUP3 ADD SWAP2 JUMPDEST POP POP POP POP POP SWAP1 DUP1 PUSH1 0x2 ADD SLOAD SWAP1 DUP1 PUSH1 0x3 ADD SLOAD SWAP1 DUP1 PUSH1 0x4 ADD SLOAD SWAP1 POP DUP6 JUMP JUMPDEST PUSH2 0x201 PUSH1 0x0 SWAP1 SLOAD SWAP1 PUSH2 0x100 EXP SWAP1 DIV PUSH20 0xFFFFFFFFFFFFFFFFFFFFFFFFFFFFFFFFFFFFFFFF AND PUSH20 0xFFFFFFFFFFFFFFFFFFFFFFFFFFFFFFFFFFFFFFFF AND CALLER PUSH20 0xFFFFFFFFFFFFFFFFFFFFFFFFFFFFFFFFFFFFFFFF AND EQ PUSH2 0xA0E JUMPI PUSH1 0x0 DUP1 REVERT JUMPDEST PUSH1 0x0 PUSH1 0x40 MLOAD DUP1 PUSH1 0xA0 ADD PUSH1 0x40 MSTORE DUP1 DUP8 DUP2 MSTORE PUSH1 0x20 ADD DUP5 DUP2 MSTORE PUSH1 0x20 ADD DUP7 DUP2 MSTORE PUSH1 0x20 ADD DUP6 DUP2 MSTORE PUSH1 0x20 ADD DUP4 DUP2 MSTORE POP SWAP1 POP DUP1 PUSH2 0x1FD PUSH1 0x0 PUSH2 0x1FC SLOAD DUP2 MSTORE PUSH1 0x20 ADD SWAP1 DUP2 MSTORE PUSH1 0x20 ADD PUSH1 0x0 KECCAK256 PUSH1 0x0 DUP3 ADD MLOAD DUP2 PUSH1 0x0 ADD SWAP1 DUP2 PUSH2 0xA66 SWAP2 SWAP1 PUSH2 0x1FB5 JUMP JUMPDEST POP PUSH1 0x20 DUP3 ADD MLOAD DUP2 PUSH1 0x1 ADD SWAP1 DUP2 PUSH2 0xA7C SWAP2 SWAP1 PUSH2 0x1FB5 JUMP JUMPDEST POP PUSH1 0x40 DUP3 ADD MLOAD DUP2 PUSH1 0x2 ADD SSTORE PUSH1 0x60 DUP3 ADD MLOAD DUP2 PUSH1 0x3 ADD SSTORE PUSH1 0x80 DUP3 ADD MLOAD DUP2 PUSH1 0x4 ADD SSTORE SWAP1 POP POP PUSH2 0x1FC PUSH1 0x0 DUP2 SLOAD DUP1 SWAP3 SWAP2 SWAP1 PUSH2 0xAB2 SWAP1 PUSH2 0x2087 JUMP JUMPDEST SWAP2 SWAP1 POP SSTORE POP POP POP POP POP POP POP JUMP JUMPDEST PUSH1 0x60 PUSH1 0x4 DUP1 SLOAD PUSH2 0xACE SWAP1 PUSH2 0x1D75 JUMP JUMPDEST DUP1 PUSH1 0x1F ADD PUSH1 0x20 DUP1 SWAP2 DIV MUL PUSH1 0x20 ADD PUSH1 0x40 MLOAD SWAP1 DUP2 ADD PUSH1 0x40 MSTORE DUP1 SWAP3 SWAP2 SWAP1 DUP2 DUP2 MSTORE PUSH1 0x20 ADD DUP3 DUP1 SLOAD PUSH2 0xAFA SWAP1 PUSH2 0x1D75 JUMP JUMPDEST DUP1 ISZERO PUSH2 0xB47 JUMPI DUP1 PUSH1 0x1F LT PUSH2 0xB1C JUMPI PUSH2 0x100 DUP1 DUP4 SLOAD DIV MUL DUP4 MSTORE SWAP2 PUSH1 0x20 ADD SWAP2 PUSH2 0xB47 JUMP JUMPDEST DUP3 ADD SWAP2 SWAP1 PUSH1 0x0 MSTORE PUSH1 0x20 PUSH1 0x0 KECCAK256 SWAP1 JUMPDEST DUP2 SLOAD DUP2 MSTORE SWAP1 PUSH1 0x1 ADD SWAP1 PUSH1 0x20 ADD DUP1 DUP4 GT PUSH2 0xB2A JUMPI DUP3 SWAP1 SUB PUSH1 0x1F AND DUP3 ADD SWAP2 JUMPDEST POP POP POP POP POP SWAP1 POP SWAP1 JUMP JUMPDEST PUSH1 0x0 DUP1 PUSH2 0xB5C PUSH2 0xFE9 JUMP JUMPDEST SWAP1 POP PUSH1 0x0 PUSH2 0xB6A DUP3 DUP7 PUSH2 0xF54 JUMP JUMPDEST SWAP1 POP DUP4 DUP2 LT ISZERO PUSH2 0xBAF JUMPI PUSH1 0x40 MLOAD PUSH32 0x8C379A000000000000000000000000000000000000000000000000000000000 DUP2 MSTORE PUSH1 0x4 ADD PUSH2 0xBA6 SWAP1 PUSH2 0x2141 JUMP JUMPDEST PUSH1 0x40 MLOAD DUP1 SWAP2 SUB SWAP1 REVERT JUMPDEST PUSH2 0xBBC DUP3 DUP7 DUP7 DUP5 SUB PUSH2 0xFF1 JUMP JUMPDEST PUSH1 0x1 SWAP3 POP POP POP SWAP3 SWAP2 POP POP JUMP JUMPDEST PUSH1 0x8 DUP2 PUSH1 0x64 DUP2 LT PUSH2 0xBD8 JUMPI PUSH1 0x0 DUP1 REVERT JUMPDEST PUSH1 0x5 MUL ADD PUSH1 0x0 SWAP2 POP SWAP1 POP DUP1 PUSH1 0x0 ADD DUP1 SLOAD PUSH2 0xBF1 SWAP1 PUSH2 0x1D75 JUMP JUMPDEST DUP1 PUSH1 0x1F ADD PUSH1 0x20 DUP1 SWAP2 DIV MUL PUSH1 0x20 ADD PUSH1 0x40 MLOAD SWAP1 DUP2 ADD PUSH1 0x40 MSTORE DUP1 SWAP3 SWAP2 SWAP1 DUP2 DUP2 MSTORE PUSH1 0x20 ADD DUP3 DUP1 SLOAD PUSH2 0xC1D SWAP1 PUSH2 0x1D75 JUMP JUMPDEST DUP1 ISZERO PUSH2 0xC6A JUMPI DUP1 PUSH1 0x1F LT PUSH2 0xC3F JUMPI PUSH2 0x100 DUP1 DUP4 SLOAD DIV MUL DUP4 MSTORE SWAP2 PUSH1 0x20 ADD SWAP2 PUSH2 0xC6A JUMP JUMPDEST DUP3 ADD SWAP2 SWAP1 PUSH1 0x0 MSTORE PUSH1 0x20 PUSH1 0x0 KECCAK256 SWAP1 JUMPDEST DUP2 SLOAD DUP2 MSTORE SWAP1 PUSH1 0x1 ADD SWAP1 PUSH1 0x20 ADD DUP1 DUP4 GT PUSH2 0xC4D JUMPI DUP3 SWAP1 SUB PUSH1 0x1F AND DUP3 ADD SWAP2 JUMPDEST POP POP POP POP POP SWAP1 DUP1 PUSH1 0x1 ADD DUP1 SLOAD PUSH2 0xC7F SWAP1 PUSH2 0x1D75 JUMP JUMPDEST DUP1 PUSH1 0x1F ADD PUSH1 0x20 DUP1 SWAP2 DIV MUL PUSH1 0x20 ADD PUSH1 0x40 MLOAD SWAP1 DUP2 ADD PUSH1 0x40 MSTORE DUP1 SWAP3 SWAP2 SWAP1 DUP2 DUP2 MSTORE PUSH1 0x20 ADD DUP3 DUP1 SLOAD PUSH2 0xCAB SWAP1 PUSH2 0x1D75 JUMP JUMPDEST DUP1 ISZERO PUSH2 0xCF8 JUMPI DUP1 PUSH1 0x1F LT PUSH2 0xCCD JUMPI PUSH2 0x100 DUP1 DUP4 SLOAD DIV MUL DUP4 MSTORE SWAP2 PUSH1 0x20 ADD SWAP2 PUSH2 0xCF8 JUMP JUMPDEST DUP3 ADD SWAP2 SWAP1 PUSH1 0x0 MSTORE PUSH1 0x20 PUSH1 0x0 KECCAK256 SWAP1 JUMPDEST DUP2 SLOAD DUP2 MSTORE SWAP1 PUSH1 0x1 ADD SWAP1 PUSH1 0x20 ADD DUP1 DUP4 GT PUSH2 0xCDB JUMPI DUP3 SWAP1 SUB PUSH1 0x1F AND DUP3 ADD SWAP2 JUMPDEST POP POP POP POP POP SWAP1 DUP1 PUSH1 0x2 ADD SLOAD SWAP1 DUP1 PUSH1 0x3 ADD SLOAD SWAP1 DUP1 PUSH1 0x4 ADD SLOAD SWAP1 POP DUP6 JUMP JUMPDEST PUSH1 0x0 DUP1 PUSH2 0xD1F PUSH2 0xFE9 JUMP JUMPDEST SWAP1 POP PUSH2 0xD2C DUP2 DUP6 DUP6 PUSH2 0x1246 JUMP JUMPDEST PUSH1 0x1 SWAP2 POP POP SWAP3 SWAP2 POP POP JUMP JUMPDEST PUSH1 0x7 DUP1 SLOAD PUSH2 0xD44 SWAP1 PUSH2 0x1D75 JUMP JUMPDEST DUP1 PUSH1 0x1F ADD PUSH1 0x20 DUP1 SWAP2 DIV MUL PUSH1 0x20 ADD PUSH1 0x40 MLOAD SWAP1 DUP2 ADD PUSH1 0x40 MSTORE DUP1 SWAP3 SWAP2 SWAP1 DUP2 DUP2 MSTORE PUSH1 0x20 ADD DUP3 DUP1 SLOAD PUSH2 0xD70 SWAP1 PUSH2 0x1D75 JUMP JUMPDEST DUP1 ISZERO PUSH2 0xDBD JUMPI DUP1 PUSH1 0x1F LT PUSH2 0xD92 JUMPI PUSH2 0x100 DUP1 DUP4 SLOAD DIV MUL DUP4 MSTORE SWAP2 PUSH1 0x20 ADD SWAP2 PUSH2 0xDBD JUMP JUMPDEST DUP3 ADD SWAP2 SWAP1 PUSH1 0x0 MSTORE PUSH1 0x20 PUSH1 0x0 KECCAK256 SWAP1 JUMPDEST DUP2 SLOAD DUP2 MSTORE SWAP1 PUSH1 0x1 ADD SWAP1 PUSH1 0x20 ADD DUP1 DUP4 GT PUSH2 0xDA0 JUMPI DUP3 SWAP1 SUB PUSH1 0x1F AND DUP3 ADD SWAP2 JUMPDEST POP POP POP POP POP DUP2 JUMP JUMPDEST PUSH1 0x64 PUSH2 0x200 SLOAD LT ISZERO PUSH2 0xE70 JUMPI PUSH2 0xDD9 PUSH2 0x161C JUMP JUMPDEST DUP3 DUP2 PUSH1 0x0 ADD DUP2 SWAP1 MSTORE POP DUP2 DUP2 PUSH1 0x80 ADD DUP2 DUP2 MSTORE POP POP DUP1 PUSH1 0x8 PUSH2 0x200 SLOAD PUSH1 0x64 DUP2 LT PUSH2 0xE04 JUMPI PUSH2 0xE03 PUSH2 0x2161 JUMP JUMPDEST JUMPDEST PUSH1 0x5 MUL ADD PUSH1 0x0 DUP3 ADD MLOAD DUP2 PUSH1 0x0 ADD SWAP1 DUP2 PUSH2 0xE1D SWAP2 SWAP1 PUSH2 0x1FB5 JUMP JUMPDEST POP PUSH1 0x20 DUP3 ADD MLOAD DUP2 PUSH1 0x1 ADD SWAP1 DUP2 PUSH2 0xE33 SWAP2 SWAP1 PUSH2 0x1FB5 JUMP JUMPDEST POP PUSH1 0x40 DUP3 ADD MLOAD DUP2 PUSH1 0x2 ADD SSTORE PUSH1 0x60 DUP3 ADD MLOAD DUP2 PUSH1 0x3 ADD SSTORE PUSH1 0x80 DUP3 ADD MLOAD DUP2 PUSH1 0x4 ADD SSTORE SWAP1 POP POP PUSH2 0x200 PUSH1 0x0 DUP2 SLOAD DUP1 SWAP3 SWAP2 SWAP1 PUSH2 0xE69 SWAP1 PUSH2 0x2087 JUMP JUMPDEST SWAP2 SWAP1 POP SSTORE POP POP JUMPDEST POP POP JUMP JUMPDEST DUP2 DUP2 DUP1 PUSH2 0x1FD PUSH1 0x0 DUP5 DUP2 MSTORE PUSH1 0x20 ADD SWAP1 DUP2 MSTORE PUSH1 0x20 ADD PUSH1 0x0 KECCAK256 PUSH1 0x4 ADD SLOAD GT PUSH2 0xE99 JUMPI PUSH1 0x0 DUP1 REVERT JUMPDEST DUP3 PUSH2 0x1FD PUSH1 0x0 DUP7 DUP2 MSTORE PUSH1 0x20 ADD SWAP1 DUP2 MSTORE PUSH1 0x20 ADD PUSH1 0x0 KECCAK256 PUSH1 0x4 ADD SLOAD GT ISZERO PUSH2 0xF4E JUMPI PUSH1 0x0 PUSH2 0x1FD PUSH1 0x0 DUP7 DUP2 MSTORE PUSH1 0x20 ADD SWAP1 DUP2 MSTORE PUSH1 0x20 ADD PUSH1 0x0 KECCAK256 PUSH1 0x3 ADD SLOAD DUP5 PUSH2 0xEDD SWAP2 SWAP1 PUSH2 0x2190 JUMP JUMPDEST SWAP1 POP PUSH2 0xF0D CALLER PUSH2 0x201 PUSH1 0x0 SWAP1 SLOAD SWAP1 PUSH2 0x100 EXP SWAP1 DIV PUSH20 0xFFFFFFFFFFFFFFFFFFFFFFFFFFFFFFFFFFFFFFFF AND DUP4 PUSH2 0x61C JUMP JUMPDEST POP DUP4 PUSH2 0x1FD PUSH1 0x0 DUP8 DUP2 MSTORE PUSH1 0x20 ADD SWAP1 DUP2 MSTORE PUSH1 0x20 ADD PUSH1 0x0 KECCAK256 PUSH1 0x4 ADD SLOAD PUSH2 0xF31 SWAP2 SWAP1 PUSH2 0x21D2 JUMP JUMPDEST PUSH2 0x1FD PUSH1 0x0 DUP8 DUP2 MSTORE PUSH1 0x20 ADD SWAP1 DUP2 MSTORE PUSH1 0x20 ADD PUSH1 0x0 KECCAK256 PUSH1 0x4 ADD DUP2 SWAP1 SSTORE POP POP JUMPDEST POP POP POP POP JUMP JUMPDEST PUSH1 0x0 PUSH1 0x1 PUSH1 0x0 DUP5 PUSH20 0xFFFFFFFFFFFFFFFFFFFFFFFFFFFFFFFFFFFFFFFF AND PUSH20 0xFFFFFFFFFFFFFFFFFFFFFFFFFFFFFFFFFFFFFFFF AND DUP2 MSTORE PUSH1 0x20 ADD SWAP1 DUP2 MSTORE PUSH1 0x20 ADD PUSH1 0x0 KECCAK256 PUSH1 0x0 DUP4 PUSH20 0xFFFFFFFFFFFFFFFFFFFFFFFFFFFFFFFFFFFFFFFF AND PUSH20 0xFFFFFFFFFFFFFFFFFFFFFFFFFFFFFFFFFFFFFFFF AND DUP2 MSTORE PUSH1 0x20 ADD SWAP1 DUP2 MSTORE PUSH1 0x20 ADD PUSH1 0x0 KECCAK256 SLOAD SWAP1 POP SWAP3 SWAP2 POP POP JUMP JUMPDEST PUSH2 0xFE5 DUP3 DUP3 PUSH2 0x14BC JUMP JUMPDEST POP POP JUMP JUMPDEST PUSH1 0x0 CALLER SWAP1 POP SWAP1 JUMP JUMPDEST PUSH1 0x0 PUSH20 0xFFFFFFFFFFFFFFFFFFFFFFFFFFFFFFFFFFFFFFFF AND DUP4 PUSH20 0xFFFFFFFFFFFFFFFFFFFFFFFFFFFFFFFFFFFFFFFF AND SUB PUSH2 0x1060 JUMPI PUSH1 0x40 MLOAD PUSH32 0x8C379A000000000000000000000000000000000000000000000000000000000 DUP2 MSTORE PUSH1 0x4 ADD PUSH2 0x1057 SWAP1 PUSH2 0x2278 JUMP JUMPDEST PUSH1 0x40 MLOAD DUP1 SWAP2 SUB SWAP1 REVERT JUMPDEST PUSH1 0x0 PUSH20 0xFFFFFFFFFFFFFFFFFFFFFFFFFFFFFFFFFFFFFFFF AND DUP3 PUSH20 0xFFFFFFFFFFFFFFFFFFFFFFFFFFFFFFFFFFFFFFFF AND SUB PUSH2 0x10CF JUMPI PUSH1 0x40 MLOAD PUSH32 0x8C379A000000000000000000000000000000000000000000000000000000000 DUP2 MSTORE PUSH1 0x4 ADD PUSH2 0x10C6 SWAP1 PUSH2 0x230A JUMP JUMPDEST PUSH1 0x40 MLOAD DUP1 SWAP2 SUB SWAP1 REVERT JUMPDEST DUP1 PUSH1 0x1 PUSH1 0x0 DUP6 PUSH20 0xFFFFFFFFFFFFFFFFFFFFFFFFFFFFFFFFFFFFFFFF AND PUSH20 0xFFFFFFFFFFFFFFFFFFFFFFFFFFFFFFFFFFFFFFFF AND DUP2 MSTORE PUSH1 0x20 ADD SWAP1 DUP2 MSTORE PUSH1 0x20 ADD PUSH1 0x0 KECCAK256 PUSH1 0x0 DUP5 PUSH20 0xFFFFFFFFFFFFFFFFFFFFFFFFFFFFFFFFFFFFFFFF AND PUSH20 0xFFFFFFFFFFFFFFFFFFFFFFFFFFFFFFFFFFFFFFFF AND DUP2 MSTORE PUSH1 0x20 ADD SWAP1 DUP2 MSTORE PUSH1 0x20 ADD PUSH1 0x0 KECCAK256 DUP2 SWAP1 SSTORE POP DUP2 PUSH20 0xFFFFFFFFFFFFFFFFFFFFFFFFFFFFFFFFFFFFFFFF AND DUP4 PUSH20 0xFFFFFFFFFFFFFFFFFFFFFFFFFFFFFFFFFFFFFFFF AND PUSH32 0x8C5BE1E5EBEC7D5BD14F71427D1E84F3DD0314C0F7B2291E5B200AC8C7C3B925 DUP4 PUSH1 0x40 MLOAD PUSH2 0x11AD SWAP2 SWAP1 PUSH2 0x18BC JUMP JUMPDEST PUSH1 0x40 MLOAD DUP1 SWAP2 SUB SWAP1 LOG3 POP POP POP JUMP JUMPDEST PUSH1 0x0 PUSH2 0x11C6 DUP5 DUP5 PUSH2 0xF54 JUMP JUMPDEST SWAP1 POP PUSH32 0xFFFFFFFFFFFFFFFFFFFFFFFFFFFFFFFFFFFFFFFFFFFFFFFFFFFFFFFFFFFFFFFF DUP2 EQ PUSH2 0x1240 JUMPI DUP2 DUP2 LT ISZERO PUSH2 0x1232 JUMPI PUSH1 0x40 MLOAD PUSH32 0x8C379A000000000000000000000000000000000000000000000000000000000 DUP2 MSTORE PUSH1 0x4 ADD PUSH2 0x1229 SWAP1 PUSH2 0x2376 JUMP JUMPDEST PUSH1 0x40 MLOAD DUP1 SWAP2 SUB SWAP1 REVERT JUMPDEST PUSH2 0x123F DUP5 DUP5 DUP5 DUP5 SUB PUSH2 0xFF1 JUMP JUMPDEST JUMPDEST POP POP POP POP JUMP JUMPDEST PUSH1 0x0 PUSH20 0xFFFFFFFFFFFFFFFFFFFFFFFFFFFFFFFFFFFFFFFF AND DUP4 PUSH20 0xFFFFFFFFFFFFFFFFFFFFFFFFFFFFFFFFFFFFFFFF AND SUB PUSH2 0x12B5 JUMPI PUSH1 0x40 MLOAD PUSH32 0x8C379A000000000000000000000000000000000000000000000000000000000 DUP2 MSTORE PUSH1 0x4 ADD PUSH2 0x12AC SWAP1 PUSH2 0x2408 JUMP JUMPDEST PUSH1 0x40 MLOAD DUP1 SWAP2 SUB SWAP1 REVERT JUMPDEST PUSH1 0x0 PUSH20 0xFFFFFFFFFFFFFFFFFFFFFFFFFFFFFFFFFFFFFFFF AND DUP3 PUSH20 0xFFFFFFFFFFFFFFFFFFFFFFFFFFFFFFFFFFFFFFFF AND SUB PUSH2 0x1324 JUMPI PUSH1 0x40 MLOAD PUSH32 0x8C379A000000000000000000000000000000000000000000000000000000000 DUP2 MSTORE PUSH1 0x4 ADD PUSH2 0x131B SWAP1 PUSH2 0x249A JUMP JUMPDEST PUSH1 0x40 MLOAD DUP1 SWAP2 SUB SWAP1 REVERT JUMPDEST PUSH2 0x132F DUP4 DUP4 DUP4 PUSH2 0x1612 JUMP JUMPDEST PUSH1 0x0 DUP1 PUSH1 0x0 DUP6 PUSH20 0xFFFFFFFFFFFFFFFFFFFFFFFFFFFFFFFFFFFFFFFF AND PUSH20 0xFFFFFFFFFFFFFFFFFFFFFFFFFFFFFFFFFFFFFFFF AND DUP2 MSTORE PUSH1 0x20 ADD SWAP1 DUP2 MSTORE PUSH1 0x20 ADD PUSH1 0x0 KECCAK256 SLOAD SWAP1 POP DUP2 DUP2 LT ISZERO PUSH2 0x13B5 JUMPI PUSH1 0x40 MLOAD PUSH32 0x8C379A000000000000000000000000000000000000000000000000000000000 DUP2 MSTORE PUSH1 0x4 ADD PUSH2 0x13AC SWAP1 PUSH2 0x252C JUMP JUMPDEST PUSH1 0x40 MLOAD DUP1 SWAP2 SUB SWAP1 REVERT JUMPDEST DUP2 DUP2 SUB PUSH1 0x0 DUP1 DUP7 PUSH20 0xFFFFFFFFFFFFFFFFFFFFFFFFFFFFFFFFFFFFFFFF AND PUSH20 0xFFFFFFFFFFFFFFFFFFFFFFFFFFFFFFFFFFFFFFFF AND DUP2 MSTORE PUSH1 0x20 ADD SWAP1 DUP2 MSTORE PUSH1 0x20 ADD PUSH1 0x0 KECCAK256 DUP2 SWAP1 SSTORE POP DUP2 PUSH1 0x0 DUP1 DUP6 PUSH20 0xFFFFFFFFFFFFFFFFFFFFFFFFFFFFFFFFFFFFFFFF AND PUSH20 0xFFFFFFFFFFFFFFFFFFFFFFFFFFFFFFFFFFFFFFFF AND DUP2 MSTORE PUSH1 0x20 ADD SWAP1 DUP2 MSTORE PUSH1 0x20 ADD PUSH1 0x0 KECCAK256 PUSH1 0x0 DUP3 DUP3 SLOAD ADD SWAP3 POP POP DUP2 SWAP1 SSTORE POP DUP3 PUSH20 0xFFFFFFFFFFFFFFFFFFFFFFFFFFFFFFFFFFFFFFFF AND DUP5 PUSH20 0xFFFFFFFFFFFFFFFFFFFFFFFFFFFFFFFFFFFFFFFF AND PUSH32 0xDDF252AD1BE2C89B69C2B068FC378DAA952BA7F163C4A11628F55A4DF523B3EF DUP5 PUSH1 0x40 MLOAD PUSH2 0x14A3 SWAP2 SWAP1 PUSH2 0x18BC JUMP JUMPDEST PUSH1 0x40 MLOAD DUP1 SWAP2 SUB SWAP1 LOG3 PUSH2 0x14B6 DUP5 DUP5 DUP5 PUSH2 0x1617 JUMP JUMPDEST POP POP POP POP JUMP JUMPDEST PUSH1 0x0 PUSH20 0xFFFFFFFFFFFFFFFFFFFFFFFFFFFFFFFFFFFFFFFF AND DUP3 PUSH20 0xFFFFFFFFFFFFFFFFFFFFFFFFFFFFFFFFFFFFFFFF AND SUB PUSH2 0x152B JUMPI PUSH1 0x40 MLOAD PUSH32 0x8C379A000000000000000000000000000000000000000000000000000000000 DUP2 MSTORE PUSH1 0x4 ADD PUSH2 0x1522 SWAP1 PUSH2 0x2598 JUMP JUMPDEST PUSH1 0x40 MLOAD DUP1 SWAP2 SUB SWAP1 REVERT JUMPDEST PUSH2 0x1537 PUSH1 0x0 DUP4 DUP4 PUSH2 0x1612 JUMP JUMPDEST DUP1 PUSH1 0x2 PUSH1 0x0 DUP3 DUP3 SLOAD PUSH2 0x1549 SWAP2 SWAP1 PUSH2 0x1DD5 JUMP JUMPDEST SWAP3 POP POP DUP2 SWAP1 SSTORE POP DUP1 PUSH1 0x0 DUP1 DUP5 PUSH20 0xFFFFFFFFFFFFFFFFFFFFFFFFFFFFFFFFFFFFFFFF AND PUSH20 0xFFFFFFFFFFFFFFFFFFFFFFFFFFFFFFFFFFFFFFFF AND DUP2 MSTORE PUSH1 0x20 ADD SWAP1 DUP2 MSTORE PUSH1 0x20 ADD PUSH1 0x0 KECCAK256 PUSH1 0x0 DUP3 DUP3 SLOAD ADD SWAP3 POP POP DUP2 SWAP1 SSTORE POP DUP2 PUSH20 0xFFFFFFFFFFFFFFFFFFFFFFFFFFFFFFFFFFFFFFFF AND PUSH1 0x0 PUSH20 0xFFFFFFFFFFFFFFFFFFFFFFFFFFFFFFFFFFFFFFFF AND PUSH32 0xDDF252AD1BE2C89B69C2B068FC378DAA952BA7F163C4A11628F55A4DF523B3EF DUP4 PUSH1 0x40 MLOAD PUSH2 0x15FA SWAP2 SWAP1 PUSH2 0x18BC JUMP JUMPDEST PUSH1 0x40 MLOAD DUP1 SWAP2 SUB SWAP1 LOG3 PUSH2 0x160E PUSH1 0x0 DUP4 DUP4 PUSH2 0x1617 JUMP JUMPDEST POP POP JUMP JUMPDEST POP POP POP JUMP JUMPDEST POP POP POP JUMP JUMPDEST PUSH1 0x40 MLOAD DUP1 PUSH1 0xA0 ADD PUSH1 0x40 MSTORE DUP1 PUSH1 0x60 DUP2 MSTORE PUSH1 0x20 ADD PUSH1 0x60 DUP2 MSTORE PUSH1 0x20 ADD PUSH1 0x0 DUP2 MSTORE PUSH1 0x20 ADD PUSH1 0x0 DUP2 MSTORE PUSH1 0x20 ADD PUSH1 0x0 DUP2 MSTORE POP SWAP1 JUMP JUMPDEST PUSH1 0x0 DUP2 MLOAD SWAP1 POP SWAP2 SWAP1 POP JUMP JUMPDEST PUSH1 0x0 DUP3 DUP3 MSTORE PUSH1 0x20 DUP3 ADD SWAP1 POP SWAP3 SWAP2 POP POP JUMP JUMPDEST PUSH1 0x0 JUMPDEST DUP4 DUP2 LT ISZERO PUSH2 0x1685 JUMPI DUP1 DUP3 ADD MLOAD DUP2 DUP5 ADD MSTORE PUSH1 0x20 DUP2 ADD SWAP1 POP PUSH2 0x166A JUMP JUMPDEST PUSH1 0x0 DUP5 DUP5 ADD MSTORE POP POP POP POP JUMP JUMPDEST PUSH1 0x0 PUSH1 0x1F NOT PUSH1 0x1F DUP4 ADD AND SWAP1 POP SWAP2 SWAP1 POP JUMP JUMPDEST PUSH1 0x0 PUSH2 0x16AD DUP3 PUSH2 0x164B JUMP JUMPDEST PUSH2 0x16B7 DUP2 DUP6 PUSH2 0x1656 JUMP JUMPDEST SWAP4 POP PUSH2 0x16C7 DUP2 DUP6 PUSH1 0x20 DUP7 ADD PUSH2 0x1667 JUMP JUMPDEST PUSH2 0x16D0 DUP2 PUSH2 0x1691 JUMP JUMPDEST DUP5 ADD SWAP2 POP POP SWAP3 SWAP2 POP POP JUMP JUMPDEST PUSH1 0x0 PUSH1 0x20 DUP3 ADD SWAP1 POP DUP2 DUP2 SUB PUSH1 0x0 DUP4 ADD MSTORE PUSH2 0x16F5 DUP2 DUP5 PUSH2 0x16A2 JUMP JUMPDEST SWAP1 POP SWAP3 SWAP2 POP POP JUMP JUMPDEST PUSH1 0x0 PUSH1 0x40 MLOAD SWAP1 POP SWAP1 JUMP JUMPDEST PUSH1 0x0 DUP1 REVERT JUMPDEST PUSH1 0x0 DUP1 REVERT JUMPDEST PUSH1 0x0 PUSH20 0xFFFFFFFFFFFFFFFFFFFFFFFFFFFFFFFFFFFFFFFF DUP3 AND SWAP1 POP SWAP2 SWAP1 POP JUMP JUMPDEST PUSH1 0x0 PUSH2 0x173C DUP3 PUSH2 0x1711 JUMP JUMPDEST SWAP1 POP SWAP2 SWAP1 POP JUMP JUMPDEST PUSH2 0x174C DUP2 PUSH2 0x1731 JUMP JUMPDEST DUP2 EQ PUSH2 0x1757 JUMPI PUSH1 0x0 DUP1 REVERT JUMPDEST POP JUMP JUMPDEST PUSH1 0x0 DUP2 CALLDATALOAD SWAP1 POP PUSH2 0x1769 DUP2 PUSH2 0x1743 JUMP JUMPDEST SWAP3 SWAP2 POP POP JUMP JUMPDEST PUSH1 0x0 DUP2 SWAP1 POP SWAP2 SWAP1 POP JUMP JUMPDEST PUSH2 0x1782 DUP2 PUSH2 0x176F JUMP JUMPDEST DUP2 EQ PUSH2 0x178D JUMPI PUSH1 0x0 DUP1 REVERT JUMPDEST POP JUMP JUMPDEST PUSH1 0x0 DUP2 CALLDATALOAD SWAP1 POP PUSH2 0x179F DUP2 PUSH2 0x1779 JUMP JUMPDEST SWAP3 SWAP2 POP POP JUMP JUMPDEST PUSH1 0x0 DUP1 PUSH1 0x40 DUP4 DUP6 SUB SLT ISZERO PUSH2 0x17BC JUMPI PUSH2 0x17BB PUSH2 0x1707 JUMP JUMPDEST JUMPDEST PUSH1 0x0 PUSH2 0x17CA DUP6 DUP3 DUP7 ADD PUSH2 0x175A JUMP JUMPDEST SWAP3 POP POP PUSH1 0x20 PUSH2 0x17DB DUP6 DUP3 DUP7 ADD PUSH2 0x1790 JUMP JUMPDEST SWAP2 POP POP SWAP3 POP SWAP3 SWAP1 POP JUMP JUMPDEST PUSH1 0x0 DUP2 ISZERO ISZERO SWAP1 POP SWAP2 SWAP1 POP JUMP JUMPDEST PUSH2 0x17FA DUP2 PUSH2 0x17E5 JUMP JUMPDEST DUP3 MSTORE POP POP JUMP JUMPDEST PUSH1 0x0 PUSH1 0x20 DUP3 ADD SWAP1 POP PUSH2 0x1815 PUSH1 0x0 DUP4 ADD DUP5 PUSH2 0x17F1 JUMP JUMPDEST SWAP3 SWAP2 POP POP JUMP JUMPDEST PUSH32 0x4E487B7100000000000000000000000000000000000000000000000000000000 PUSH1 0x0 MSTORE PUSH1 0x21 PUSH1 0x4 MSTORE PUSH1 0x24 PUSH1 0x0 REVERT JUMPDEST PUSH1 0x3 DUP2 LT PUSH2 0x185B JUMPI PUSH2 0x185A PUSH2 0x181B JUMP JUMPDEST JUMPDEST POP JUMP JUMPDEST PUSH1 0x0 DUP2 SWAP1 POP PUSH2 0x186C DUP3 PUSH2 0x184A JUMP JUMPDEST SWAP2 SWAP1 POP JUMP JUMPDEST PUSH1 0x0 PUSH2 0x187C DUP3 PUSH2 0x185E JUMP JUMPDEST SWAP1 POP SWAP2 SWAP1 POP JUMP JUMPDEST PUSH2 0x188C DUP2 PUSH2 0x1871 JUMP JUMPDEST DUP3 MSTORE POP POP JUMP JUMPDEST PUSH1 0x0 PUSH1 0x20 DUP3 ADD SWAP1 POP PUSH2 0x18A7 PUSH1 0x0 DUP4 ADD DUP5 PUSH2 0x1883 JUMP JUMPDEST SWAP3 SWAP2 POP POP JUMP JUMPDEST PUSH2 0x18B6 DUP2 PUSH2 0x176F JUMP JUMPDEST DUP3 MSTORE POP POP JUMP JUMPDEST PUSH1 0x0 PUSH1 0x20 DUP3 ADD SWAP1 POP PUSH2 0x18D1 PUSH1 0x0 DUP4 ADD DUP5 PUSH2 0x18AD JUMP JUMPDEST SWAP3 SWAP2 POP POP JUMP JUMPDEST PUSH1 0x0 DUP1 PUSH1 0x0 PUSH1 0x60 DUP5 DUP7 SUB SLT ISZERO PUSH2 0x18F0 JUMPI PUSH2 0x18EF PUSH2 0x1707 JUMP JUMPDEST JUMPDEST PUSH1 0x0 PUSH2 0x18FE DUP7 DUP3 DUP8 ADD PUSH2 0x175A JUMP JUMPDEST SWAP4 POP POP PUSH1 0x20 PUSH2 0x190F DUP7 DUP3 DUP8 ADD PUSH2 0x175A JUMP JUMPDEST SWAP3 POP POP PUSH1 0x40 PUSH2 0x1920 DUP7 DUP3 DUP8 ADD PUSH2 0x1790 JUMP JUMPDEST SWAP2 POP POP SWAP3 POP SWAP3 POP SWAP3 JUMP JUMPDEST PUSH1 0x0 PUSH1 0x20 DUP3 DUP5 SUB SLT ISZERO PUSH2 0x1940 JUMPI PUSH2 0x193F PUSH2 0x1707 JUMP JUMPDEST JUMPDEST PUSH1 0x0 PUSH2 0x194E DUP5 DUP3 DUP6 ADD PUSH2 0x1790 JUMP JUMPDEST SWAP2 POP POP SWAP3 SWAP2 POP POP JUMP JUMPDEST PUSH1 0x0 PUSH1 0xA0 DUP3 ADD SWAP1 POP DUP2 DUP2 SUB PUSH1 0x0 DUP4 ADD MSTORE PUSH2 0x1971 DUP2 DUP9 PUSH2 0x16A2 JUMP JUMPDEST SWAP1 POP DUP2 DUP2 SUB PUSH1 0x20 DUP4 ADD MSTORE PUSH2 0x1985 DUP2 DUP8 PUSH2 0x16A2 JUMP JUMPDEST SWAP1 POP PUSH2 0x1994 PUSH1 0x40 DUP4 ADD DUP7 PUSH2 0x18AD JUMP JUMPDEST PUSH2 0x19A1 PUSH1 0x60 DUP4 ADD DUP6 PUSH2 0x18AD JUMP JUMPDEST PUSH2 0x19AE PUSH1 0x80 DUP4 ADD DUP5 PUSH2 0x18AD JUMP JUMPDEST SWAP7 SWAP6 POP POP POP POP POP POP JUMP JUMPDEST PUSH1 0x0 PUSH1 0xFF DUP3 AND SWAP1 POP SWAP2 SWAP1 POP JUMP JUMPDEST PUSH2 0x19CE DUP2 PUSH2 0x19B8 JUMP JUMPDEST DUP3 MSTORE POP POP JUMP JUMPDEST PUSH1 0x0 PUSH1 0x20 DUP3 ADD SWAP1 POP PUSH2 0x19E9 PUSH1 0x0 DUP4 ADD DUP5 PUSH2 0x19C5 JUMP JUMPDEST SWAP3 SWAP2 POP POP JUMP JUMPDEST PUSH1 0x0 PUSH1 0x20 DUP3 DUP5 SUB SLT ISZERO PUSH2 0x1A05 JUMPI PUSH2 0x1A04 PUSH2 0x1707 JUMP JUMPDEST JUMPDEST PUSH1 0x0 PUSH2 0x1A13 DUP5 DUP3 DUP6 ADD PUSH2 0x175A JUMP JUMPDEST SWAP2 POP POP SWAP3 SWAP2 POP POP JUMP JUMPDEST PUSH2 0x1A25 DUP2 PUSH2 0x1731 JUMP JUMPDEST DUP3 MSTORE POP POP JUMP JUMPDEST PUSH1 0x0 PUSH1 0x20 DUP3 ADD SWAP1 POP PUSH2 0x1A40 PUSH1 0x0 DUP4 ADD DUP5 PUSH2 0x1A1C JUMP JUMPDEST SWAP3 SWAP2 POP POP JUMP JUMPDEST PUSH1 0x0 PUSH2 0x1A51 DUP3 PUSH2 0x1711 JUMP JUMPDEST SWAP1 POP SWAP2 SWAP1 POP JUMP JUMPDEST PUSH2 0x1A61 DUP2 PUSH2 0x1A46 JUMP JUMPDEST DUP3 MSTORE POP POP JUMP JUMPDEST PUSH1 0x0 PUSH1 0x20 DUP3 ADD SWAP1 POP PUSH2 0x1A7C PUSH1 0x0 DUP4 ADD DUP5 PUSH2 0x1A58 JUMP JUMPDEST SWAP3 SWAP2 POP POP JUMP JUMPDEST PUSH1 0x0 DUP1 REVERT JUMPDEST PUSH1 0x0 DUP1 REVERT JUMPDEST PUSH32 0x4E487B7100000000000000000000000000000000000000000000000000000000 PUSH1 0x0 MSTORE PUSH1 0x41 PUSH1 0x4 MSTORE PUSH1 0x24 PUSH1 0x0 REVERT JUMPDEST PUSH2 0x1AC4 DUP3 PUSH2 0x1691 JUMP JUMPDEST DUP2 ADD DUP2 DUP2 LT PUSH8 0xFFFFFFFFFFFFFFFF DUP3 GT OR ISZERO PUSH2 0x1AE3 JUMPI PUSH2 0x1AE2 PUSH2 0x1A8C JUMP JUMPDEST JUMPDEST DUP1 PUSH1 0x40 MSTORE POP POP POP JUMP JUMPDEST PUSH1 0x0 PUSH2 0x1AF6 PUSH2 0x16FD JUMP JUMPDEST SWAP1 POP PUSH2 0x1B02 DUP3 DUP3 PUSH2 0x1ABB JUMP JUMPDEST SWAP2 SWAP1 POP JUMP JUMPDEST PUSH1 0x0 PUSH8 0xFFFFFFFFFFFFFFFF DUP3 GT ISZERO PUSH2 0x1B22 JUMPI PUSH2 0x1B21 PUSH2 0x1A8C JUMP JUMPDEST JUMPDEST PUSH2 0x1B2B DUP3 PUSH2 0x1691 JUMP JUMPDEST SWAP1 POP PUSH1 0x20 DUP2 ADD SWAP1 POP SWAP2 SWAP1 POP JUMP JUMPDEST DUP3 DUP2 DUP4 CALLDATACOPY PUSH1 0x0 DUP4 DUP4 ADD MSTORE POP POP POP JUMP JUMPDEST PUSH1 0x0 PUSH2 0x1B5A PUSH2 0x1B55 DUP5 PUSH2 0x1B07 JUMP JUMPDEST PUSH2 0x1AEC JUMP JUMPDEST SWAP1 POP DUP3 DUP2 MSTORE PUSH1 0x20 DUP2 ADD DUP5 DUP5 DUP5 ADD GT ISZERO PUSH2 0x1B76 JUMPI PUSH2 0x1B75 PUSH2 0x1A87 JUMP JUMPDEST JUMPDEST PUSH2 0x1B81 DUP5 DUP3 DUP6 PUSH2 0x1B38 JUMP JUMPDEST POP SWAP4 SWAP3 POP POP POP JUMP JUMPDEST PUSH1 0x0 DUP3 PUSH1 0x1F DUP4 ADD SLT PUSH2 0x1B9E JUMPI PUSH2 0x1B9D PUSH2 0x1A82 JUMP JUMPDEST JUMPDEST DUP2 CALLDATALOAD PUSH2 0x1BAE DUP5 DUP3 PUSH1 0x20 DUP7 ADD PUSH2 0x1B47 JUMP JUMPDEST SWAP2 POP POP SWAP3 SWAP2 POP POP JUMP JUMPDEST PUSH1 0x0 DUP1 PUSH1 0x0 DUP1 PUSH1 0x0 PUSH1 0xA0 DUP7 DUP9 SUB SLT ISZERO PUSH2 0x1BD3 JUMPI PUSH2 0x1BD2 PUSH2 0x1707 JUMP JUMPDEST JUMPDEST PUSH1 0x0 DUP7 ADD CALLDATALOAD PUSH8 0xFFFFFFFFFFFFFFFF DUP2 GT ISZERO PUSH2 0x1BF1 JUMPI PUSH2 0x1BF0 PUSH2 0x170C JUMP JUMPDEST JUMPDEST PUSH2 0x1BFD DUP9 DUP3 DUP10 ADD PUSH2 0x1B89 JUMP JUMPDEST SWAP6 POP POP PUSH1 0x20 PUSH2 0x1C0E DUP9 DUP3 DUP10 ADD PUSH2 0x1790 JUMP JUMPDEST SWAP5 POP POP PUSH1 0x40 PUSH2 0x1C1F DUP9 DUP3 DUP10 ADD PUSH2 0x1790 JUMP JUMPDEST SWAP4 POP POP PUSH1 0x60 DUP7 ADD CALLDATALOAD PUSH8 0xFFFFFFFFFFFFFFFF DUP2 GT ISZERO PUSH2 0x1C40 JUMPI PUSH2 0x1C3F PUSH2 0x170C JUMP JUMPDEST JUMPDEST PUSH2 0x1C4C DUP9 DUP3 DUP10 ADD PUSH2 0x1B89 JUMP JUMPDEST SWAP3 POP POP PUSH1 0x80 PUSH2 0x1C5D DUP9 DUP3 DUP10 ADD PUSH2 0x1790 JUMP JUMPDEST SWAP2 POP POP SWAP3 SWAP6 POP SWAP3 SWAP6 SWAP1 SWAP4 POP JUMP JUMPDEST PUSH1 0x0 DUP1 PUSH1 0x40 DUP4 DUP6 SUB SLT ISZERO PUSH2 0x1C81 JUMPI PUSH2 0x1C80 PUSH2 0x1707 JUMP JUMPDEST JUMPDEST PUSH1 0x0 DUP4 ADD CALLDATALOAD PUSH8 0xFFFFFFFFFFFFFFFF DUP2 GT ISZERO PUSH2 0x1C9F JUMPI PUSH2 0x1C9E PUSH2 0x170C JUMP JUMPDEST JUMPDEST PUSH2 0x1CAB DUP6 DUP3 DUP7 ADD PUSH2 0x1B89 JUMP JUMPDEST SWAP3 POP POP PUSH1 0x20 PUSH2 0x1CBC DUP6 DUP3 DUP7 ADD PUSH2 0x1790 JUMP JUMPDEST SWAP2 POP POP SWAP3 POP SWAP3 SWAP1 POP JUMP JUMPDEST PUSH1 0x0 DUP1 PUSH1 0x40 DUP4 DUP6 SUB SLT ISZERO PUSH2 0x1CDD JUMPI PUSH2 0x1CDC PUSH2 0x1707 JUMP JUMPDEST JUMPDEST PUSH1 0x0 PUSH2 0x1CEB DUP6 DUP3 DUP7 ADD PUSH2 0x1790 JUMP JUMPDEST SWAP3 POP POP PUSH1 0x20 PUSH2 0x1CFC DUP6 DUP3 DUP7 ADD PUSH2 0x1790 JUMP JUMPDEST SWAP2 POP POP SWAP3 POP SWAP3 SWAP1 POP JUMP JUMPDEST PUSH1 0x0 DUP1 PUSH1 0x40 DUP4 DUP6 SUB SLT ISZERO PUSH2 0x1D1D JUMPI PUSH2 0x1D1C PUSH2 0x1707 JUMP JUMPDEST JUMPDEST PUSH1 0x0 PUSH2 0x1D2B DUP6 DUP3 DUP7 ADD PUSH2 0x175A JUMP JUMPDEST SWAP3 POP POP PUSH1 0x20 PUSH2 0x1D3C DUP6 DUP3 DUP7 ADD PUSH2 0x175A JUMP JUMPDEST SWAP2 POP POP SWAP3 POP SWAP3 SWAP1 POP JUMP JUMPDEST PUSH32 0x4E487B7100000000000000000000000000000000000000000000000000000000 PUSH1 0x0 MSTORE PUSH1 0x22 PUSH1 0x4 MSTORE PUSH1 0x24 PUSH1 0x0 REVERT JUMPDEST PUSH1 0x0 PUSH1 0x2 DUP3 DIV SWAP1 POP PUSH1 0x1 DUP3 AND DUP1 PUSH2 0x1D8D JUMPI PUSH1 0x7F DUP3 AND SWAP2 POP JUMPDEST PUSH1 0x20 DUP3 LT DUP2 SUB PUSH2 0x1DA0 JUMPI PUSH2 0x1D9F PUSH2 0x1D46 JUMP JUMPDEST JUMPDEST POP SWAP2 SWAP1 POP JUMP JUMPDEST PUSH32 0x4E487B7100000000000000000000000000000000000000000000000000000000 PUSH1 0x0 MSTORE PUSH1 0x11 PUSH1 0x4 MSTORE PUSH1 0x24 PUSH1 0x0 REVERT JUMPDEST PUSH1 0x0 PUSH2 0x1DE0 DUP3 PUSH2 0x176F JUMP JUMPDEST SWAP2 POP PUSH2 0x1DEB DUP4 PUSH2 0x176F JUMP JUMPDEST SWAP3 POP DUP3 DUP3 ADD SWAP1 POP DUP1 DUP3 GT ISZERO PUSH2 0x1E03 JUMPI PUSH2 0x1E02 PUSH2 0x1DA6 JUMP JUMPDEST JUMPDEST SWAP3 SWAP2 POP POP JUMP JUMPDEST PUSH1 0x0 DUP2 SWAP1 POP DUP2 PUSH1 0x0 MSTORE PUSH1 0x20 PUSH1 0x0 KECCAK256 SWAP1 POP SWAP2 SWAP1 POP JUMP JUMPDEST PUSH1 0x0 PUSH1 0x20 PUSH1 0x1F DUP4 ADD DIV SWAP1 POP SWAP2 SWAP1 POP JUMP JUMPDEST PUSH1 0x0 DUP3 DUP3 SHL SWAP1 POP SWAP3 SWAP2 POP POP JUMP JUMPDEST PUSH1 0x0 PUSH1 0x8 DUP4 MUL PUSH2 0x1E6B PUSH32 0xFFFFFFFFFFFFFFFFFFFFFFFFFFFFFFFFFFFFFFFFFFFFFFFFFFFFFFFFFFFFFFFF DUP3 PUSH2 0x1E2E JUMP JUMPDEST PUSH2 0x1E75 DUP7 DUP4 PUSH2 0x1E2E JUMP JUMPDEST SWAP6 POP DUP1 NOT DUP5 AND SWAP4 POP DUP1 DUP7 AND DUP5 OR SWAP3 POP POP POP SWAP4 SWAP3 POP POP POP JUMP JUMPDEST PUSH1 0x0 DUP2 SWAP1 POP SWAP2 SWAP1 POP JUMP JUMPDEST PUSH1 0x0 PUSH2 0x1EB2 PUSH2 0x1EAD PUSH2 0x1EA8 DUP5 PUSH2 0x176F JUMP JUMPDEST PUSH2 0x1E8D JUMP JUMPDEST PUSH2 0x176F JUMP JUMPDEST SWAP1 POP SWAP2 SWAP1 POP JUMP JUMPDEST PUSH1 0x0 DUP2 SWAP1 POP SWAP2 SWAP1 POP JUMP JUMPDEST PUSH2 0x1ECC DUP4 PUSH2 0x1E97 JUMP JUMPDEST PUSH2 0x1EE0 PUSH2 0x1ED8 DUP3 PUSH2 0x1EB9 JUMP JUMPDEST DUP5 DUP5 SLOAD PUSH2 0x1E3B JUMP JUMPDEST DUP3 SSTORE POP POP POP POP JUMP JUMPDEST PUSH1 0x0 SWAP1 JUMP JUMPDEST PUSH2 0x1EF5 PUSH2 0x1EE8 JUMP JUMPDEST PUSH2 0x1F00 DUP2 DUP5 DUP5 PUSH2 0x1EC3 JUMP JUMPDEST POP POP POP JUMP JUMPDEST JUMPDEST DUP2 DUP2 LT ISZERO PUSH2 0x1F24 JUMPI PUSH2 0x1F19 PUSH1 0x0 DUP3 PUSH2 0x1EED JUMP JUMPDEST PUSH1 0x1 DUP2 ADD SWAP1 POP PUSH2 0x1F06 JUMP JUMPDEST POP POP JUMP JUMPDEST PUSH1 0x1F DUP3 GT ISZERO PUSH2 0x1F69 JUMPI PUSH2 0x1F3A DUP2 PUSH2 0x1E09 JUMP JUMPDEST PUSH2 0x1F43 DUP5 PUSH2 0x1E1E JUMP JUMPDEST DUP2 ADD PUSH1 0x20 DUP6 LT ISZERO PUSH2 0x1F52 JUMPI DUP2 SWAP1 POP JUMPDEST PUSH2 0x1F66 PUSH2 0x1F5E DUP6 PUSH2 0x1E1E JUMP JUMPDEST DUP4 ADD DUP3 PUSH2 0x1F05 JUMP JUMPDEST POP POP JUMPDEST POP POP POP JUMP JUMPDEST PUSH1 0x0 DUP3 DUP3 SHR SWAP1 POP SWAP3 SWAP2 POP POP JUMP JUMPDEST PUSH1 0x0 PUSH2 0x1F8C PUSH1 0x0 NOT DUP5 PUSH1 0x8 MUL PUSH2 0x1F6E JUMP JUMPDEST NOT DUP1 DUP4 AND SWAP2 POP POP SWAP3 SWAP2 POP POP JUMP JUMPDEST PUSH1 0x0 PUSH2 0x1FA5 DUP4 DUP4 PUSH2 0x1F7B JUMP JUMPDEST SWAP2 POP DUP3 PUSH1 0x2 MUL DUP3 OR SWAP1 POP SWAP3 SWAP2 POP POP JUMP JUMPDEST PUSH2 0x1FBE DUP3 PUSH2 0x164B JUMP JUMPDEST PUSH8 0xFFFFFFFFFFFFFFFF DUP2 GT ISZERO PUSH2 0x1FD7 JUMPI PUSH2 0x1FD6 PUSH2 0x1A8C JUMP JUMPDEST JUMPDEST PUSH2 0x1FE1 DUP3 SLOAD PUSH2 0x1D75 JUMP JUMPDEST PUSH2 0x1FEC DUP3 DUP3 DUP6 PUSH2 0x1F28 JUMP JUMPDEST PUSH1 0x0 PUSH1 0x20 SWAP1 POP PUSH1 0x1F DUP4 GT PUSH1 0x1 DUP2 EQ PUSH2 0x201F JUMPI PUSH1 0x0 DUP5 ISZERO PUSH2 0x200D JUMPI DUP3 DUP8 ADD MLOAD SWAP1 POP JUMPDEST PUSH2 0x2017 DUP6 DUP3 PUSH2 0x1F99 JUMP JUMPDEST DUP7 SSTORE POP PUSH2 0x207F JUMP JUMPDEST PUSH1 0x1F NOT DUP5 AND PUSH2 0x202D DUP7 PUSH2 0x1E09 JUMP JUMPDEST PUSH1 0x0 JUMPDEST DUP3 DUP2 LT ISZERO PUSH2 0x2055 JUMPI DUP5 DUP10 ADD MLOAD DUP3 SSTORE PUSH1 0x1 DUP3 ADD SWAP2 POP PUSH1 0x20 DUP6 ADD SWAP5 POP PUSH1 0x20 DUP2 ADD SWAP1 POP PUSH2 0x2030 JUMP JUMPDEST DUP7 DUP4 LT ISZERO PUSH2 0x2072 JUMPI DUP5 DUP10 ADD MLOAD PUSH2 0x206E PUSH1 0x1F DUP10 AND DUP3 PUSH2 0x1F7B JUMP JUMPDEST DUP4 SSTORE POP JUMPDEST PUSH1 0x1 PUSH1 0x2 DUP9 MUL ADD DUP9 SSTORE POP POP POP JUMPDEST POP POP POP POP POP POP JUMP JUMPDEST PUSH1 0x0 PUSH2 0x2092 DUP3 PUSH2 0x176F JUMP JUMPDEST SWAP2 POP PUSH32 0xFFFFFFFFFFFFFFFFFFFFFFFFFFFFFFFFFFFFFFFFFFFFFFFFFFFFFFFFFFFFFFFF DUP3 SUB PUSH2 0x20C4 JUMPI PUSH2 0x20C3 PUSH2 0x1DA6 JUMP JUMPDEST JUMPDEST PUSH1 0x1 DUP3 ADD SWAP1 POP SWAP2 SWAP1 POP JUMP JUMPDEST PUSH32 0x45524332303A2064656372656173656420616C6C6F77616E63652062656C6F77 PUSH1 0x0 DUP3 ADD MSTORE PUSH32 0x207A65726F000000000000000000000000000000000000000000000000000000 PUSH1 0x20 DUP3 ADD MSTORE POP JUMP JUMPDEST PUSH1 0x0 PUSH2 0x212B PUSH1 0x25 DUP4 PUSH2 0x1656 JUMP JUMPDEST SWAP2 POP PUSH2 0x2136 DUP3 PUSH2 0x20CF JUMP JUMPDEST PUSH1 0x40 DUP3 ADD SWAP1 POP SWAP2 SWAP1 POP JUMP JUMPDEST PUSH1 0x0 PUSH1 0x20 DUP3 ADD SWAP1 POP DUP2 DUP2 SUB PUSH1 0x0 DUP4 ADD MSTORE PUSH2 0x215A DUP2 PUSH2 0x211E JUMP JUMPDEST SWAP1 POP SWAP2 SWAP1 POP JUMP JUMPDEST PUSH32 0x4E487B7100000000000000000000000000000000000000000000000000000000 PUSH1 0x0 MSTORE PUSH1 0x32 PUSH1 0x4 MSTORE PUSH1 0x24 PUSH1 0x0 REVERT JUMPDEST PUSH1 0x0 PUSH2 0x219B DUP3 PUSH2 0x176F JUMP JUMPDEST SWAP2 POP PUSH2 0x21A6 DUP4 PUSH2 0x176F JUMP JUMPDEST SWAP3 POP DUP3 DUP3 MUL PUSH2 0x21B4 DUP2 PUSH2 0x176F JUMP JUMPDEST SWAP2 POP DUP3 DUP3 DIV DUP5 EQ DUP4 ISZERO OR PUSH2 0x21CB JUMPI PUSH2 0x21CA PUSH2 0x1DA6 JUMP JUMPDEST JUMPDEST POP SWAP3 SWAP2 POP POP JUMP JUMPDEST PUSH1 0x0 PUSH2 0x21DD DUP3 PUSH2 0x176F JUMP JUMPDEST SWAP2 POP PUSH2 0x21E8 DUP4 PUSH2 0x176F JUMP JUMPDEST SWAP3 POP DUP3 DUP3 SUB SWAP1 POP DUP2 DUP2 GT ISZERO PUSH2 0x2200 JUMPI PUSH2 0x21FF PUSH2 0x1DA6 JUMP JUMPDEST JUMPDEST SWAP3 SWAP2 POP POP JUMP JUMPDEST PUSH32 0x45524332303A20617070726F76652066726F6D20746865207A65726F20616464 PUSH1 0x0 DUP3 ADD MSTORE PUSH32 0x7265737300000000000000000000000000000000000000000000000000000000 PUSH1 0x20 DUP3 ADD MSTORE POP JUMP JUMPDEST PUSH1 0x0 PUSH2 0x2262 PUSH1 0x24 DUP4 PUSH2 0x1656 JUMP JUMPDEST SWAP2 POP PUSH2 0x226D DUP3 PUSH2 0x2206 JUMP JUMPDEST PUSH1 0x40 DUP3 ADD SWAP1 POP SWAP2 SWAP1 POP JUMP JUMPDEST PUSH1 0x0 PUSH1 0x20 DUP3 ADD SWAP1 POP DUP2 DUP2 SUB PUSH1 0x0 DUP4 ADD MSTORE PUSH2 0x2291 DUP2 PUSH2 0x2255 JUMP JUMPDEST SWAP1 POP SWAP2 SWAP1 POP JUMP JUMPDEST PUSH32 0x45524332303A20617070726F766520746F20746865207A65726F206164647265 PUSH1 0x0 DUP3 ADD MSTORE PUSH32 0x7373000000000000000000000000000000000000000000000000000000000000 PUSH1 0x20 DUP3 ADD MSTORE POP JUMP JUMPDEST PUSH1 0x0 PUSH2 0x22F4 PUSH1 0x22 DUP4 PUSH2 0x1656 JUMP JUMPDEST SWAP2 POP PUSH2 0x22FF DUP3 PUSH2 0x2298 JUMP JUMPDEST PUSH1 0x40 DUP3 ADD SWAP1 POP SWAP2 SWAP1 POP JUMP JUMPDEST PUSH1 0x0 PUSH1 0x20 DUP3 ADD SWAP1 POP DUP2 DUP2 SUB PUSH1 0x0 DUP4 ADD MSTORE PUSH2 0x2323 DUP2 PUSH2 0x22E7 JUMP JUMPDEST SWAP1 POP SWAP2 SWAP1 POP JUMP JUMPDEST PUSH32 0x45524332303A20696E73756666696369656E7420616C6C6F77616E6365000000 PUSH1 0x0 DUP3 ADD MSTORE POP JUMP JUMPDEST PUSH1 0x0 PUSH2 0x2360 PUSH1 0x1D DUP4 PUSH2 0x1656 JUMP JUMPDEST SWAP2 POP PUSH2 0x236B DUP3 PUSH2 0x232A JUMP JUMPDEST PUSH1 0x20 DUP3 ADD SWAP1 POP SWAP2 SWAP1 POP JUMP JUMPDEST PUSH1 0x0 PUSH1 0x20 DUP3 ADD SWAP1 POP DUP2 DUP2 SUB PUSH1 0x0 DUP4 ADD MSTORE PUSH2 0x238F DUP2 PUSH2 0x2353 JUMP JUMPDEST SWAP1 POP SWAP2 SWAP1 POP JUMP JUMPDEST PUSH32 0x45524332303A207472616E736665722066726F6D20746865207A65726F206164 PUSH1 0x0 DUP3 ADD MSTORE PUSH32 0x6472657373000000000000000000000000000000000000000000000000000000 PUSH1 0x20 DUP3 ADD MSTORE POP JUMP JUMPDEST PUSH1 0x0 PUSH2 0x23F2 PUSH1 0x25 DUP4 PUSH2 0x1656 JUMP JUMPDEST SWAP2 POP PUSH2 0x23FD DUP3 PUSH2 0x2396 JUMP JUMPDEST PUSH1 0x40 DUP3 ADD SWAP1 POP SWAP2 SWAP1 POP JUMP JUMPDEST PUSH1 0x0 PUSH1 0x20 DUP3 ADD SWAP1 POP DUP2 DUP2 SUB PUSH1 0x0 DUP4 ADD MSTORE PUSH2 0x2421 DUP2 PUSH2 0x23E5 JUMP JUMPDEST SWAP1 POP SWAP2 SWAP1 POP JUMP JUMPDEST PUSH32 0x45524332303A207472616E7366657220746F20746865207A65726F2061646472 PUSH1 0x0 DUP3 ADD MSTORE PUSH32 0x6573730000000000000000000000000000000000000000000000000000000000 PUSH1 0x20 DUP3 ADD MSTORE POP JUMP JUMPDEST PUSH1 0x0 PUSH2 0x2484 PUSH1 0x23 DUP4 PUSH2 0x1656 JUMP JUMPDEST SWAP2 POP PUSH2 0x248F DUP3 PUSH2 0x2428 JUMP JUMPDEST PUSH1 0x40 DUP3 ADD SWAP1 POP SWAP2 SWAP1 POP JUMP JUMPDEST PUSH1 0x0 PUSH1 0x20 DUP3 ADD SWAP1 POP DUP2 DUP2 SUB PUSH1 0x0 DUP4 ADD MSTORE PUSH2 0x24B3 DUP2 PUSH2 0x2477 JUMP JUMPDEST SWAP1 POP SWAP2 SWAP1 POP JUMP JUMPDEST PUSH32 0x45524332303A207472616E7366657220616D6F756E7420657863656564732062 PUSH1 0x0 DUP3 ADD MSTORE PUSH32 0x616C616E63650000000000000000000000000000000000000000000000000000 PUSH1 0x20 DUP3 ADD MSTORE POP JUMP JUMPDEST PUSH1 0x0 PUSH2 0x2516 PUSH1 0x26 DUP4 PUSH2 0x1656 JUMP JUMPDEST SWAP2 POP PUSH2 0x2521 DUP3 PUSH2 0x24BA JUMP JUMPDEST PUSH1 0x40 DUP3 ADD SWAP1 POP SWAP2 SWAP1 POP JUMP JUMPDEST PUSH1 0x0 PUSH1 0x20 DUP3 ADD SWAP1 POP DUP2 DUP2 SUB PUSH1 0x0 DUP4 ADD MSTORE PUSH2 0x2545 DUP2 PUSH2 0x2509 JUMP JUMPDEST SWAP1 POP SWAP2 SWAP1 POP JUMP JUMPDEST PUSH32 0x45524332303A206D696E7420746F20746865207A65726F206164647265737300 PUSH1 0x0 DUP3 ADD MSTORE POP JUMP JUMPDEST PUSH1 0x0 PUSH2 0x2582 PUSH1 0x1F DUP4 PUSH2 0x1656 JUMP JUMPDEST SWAP2 POP PUSH2 0x258D DUP3 PUSH2 0x254C JUMP JUMPDEST PUSH1 0x20 DUP3 ADD SWAP1 POP SWAP2 SWAP1 POP JUMP JUMPDEST PUSH1 0x0 PUSH1 0x20 DUP3 ADD SWAP1 POP DUP2 DUP2 SUB PUSH1 0x0 DUP4 ADD MSTORE PUSH2 0x25B1 DUP2 PUSH2 0x2575 JUMP JUMPDEST SWAP1 POP SWAP2 SWAP1 POP JUMP INVALID LOG2 PUSH5 0x6970667358 0x22 SLT KECCAK256 0xEA 0x2C DUP16 SLT PUSH18 0x11B0C86650296A37ECBE72D98E710B94B1B 0xBD POP PUSH30 0xDD5670F059D764736F6C6343000811003300000000000000000000000000 "},"methodIdentifiers":{"allowance(address,address)":"dd62ed3e","approve(address,uint256)":"095ea7b3","balanceOf(address)":"70a08231","createGoods(string,uint256,uint256,string,uint256)":"94fca80e","decimals()":"313ce567","decreaseAllowance(address,uint256)":"a457c2d7","getOwner()":"893d20e8","good()":"aa8fb40b","goodsBought(uint256)":"93b2e054","goodsProduced(uint256)":"2ac9e0b3","increaseAllowance(address,uint256)":"39509351","issueToken(address,uint256)":"e74a84ea","name()":"06fdde03","nameOfTheContract()":"1e361901","orderGoods(uint256,uint256)":"be0f1392","orders(uint256)":"a85c38ef","owner()":"8da5cb5b","requestNewGoods(string,uint256)":"b521cc8e","symbol()":"95d89b41","totalSupply()":"18160ddd","transfer(address,uint256)":"a9059cbb","transferFrom(address,address,uint256)":"23b872dd","vendor()":"1385a6f2"}}}}}