{
  "_format": "hh-sol-artifact-1",
  "contractName": "Factory",
  "sourceName": "contracts/Factory.sol",
  "abi": [
    {
      "inputs": [],
      "stateMutability": "nonpayable",
      "type": "constructor"
    },
    {
      "inputs": [
        {
          "internalType": "uint256",
          "name": "",
          "type": "uint256"
        }
      ],
      "name": "ContractArrayTypeF",
      "outputs": [
        {
          "internalType": "contract Contract",
          "name": "",
          "type": "address"
        }
      ],
      "stateMutability": "view",
      "type": "function"
    },
    {
      "inputs": [
        {
          "internalType": "uint256",
          "name": "",
          "type": "uint256"
        }
      ],
      "name": "ContractArrayTypeP",
      "outputs": [
        {
          "internalType": "contract Contract",
          "name": "",
          "type": "address"
        }
      ],
      "stateMutability": "view",
      "type": "function"
    },
    {
      "inputs": [
        {
          "internalType": "uint256",
          "name": "",
          "type": "uint256"
        }
      ],
      "name": "ContractArrayTypeS",
      "outputs": [
        {
          "internalType": "contract Contract",
          "name": "",
          "type": "address"
        }
      ],
      "stateMutability": "view",
      "type": "function"
    },
    {
      "inputs": [
        {
          "internalType": "enum VendorType",
          "name": "vendorType",
          "type": "uint8"
        },
        {
          "internalType": "string",
          "name": "nameOfTheContract",
          "type": "string"
        },
        {
          "internalType": "string",
          "name": "good",
          "type": "string"
        },
        {
          "internalType": "uint256",
          "name": "price",
          "type": "uint256"
        },
        {
          "internalType": "uint256",
          "name": "impact",
          "type": "uint256"
        },
        {
          "internalType": "string",
          "name": "country",
          "type": "string"
        }
      ],
      "name": "CreateNewContract",
      "outputs": [
        {
          "internalType": "address",
          "name": "",
          "type": "address"
        }
      ],
      "stateMutability": "nonpayable",
      "type": "function"
    },
    {
      "inputs": [
        {
          "internalType": "uint256",
          "name": "index",
          "type": "uint256"
        }
      ],
      "name": "getContractF",
      "outputs": [
        {
          "internalType": "address",
          "name": "",
          "type": "address"
        }
      ],
      "stateMutability": "view",
      "type": "function"
    },
    {
      "inputs": [
        {
          "internalType": "uint256",
          "name": "index",
          "type": "uint256"
        }
      ],
      "name": "getContractP",
      "outputs": [
        {
          "internalType": "address",
          "name": "",
          "type": "address"
        }
      ],
      "stateMutability": "view",
      "type": "function"
    },
    {
      "inputs": [
        {
          "internalType": "uint256",
          "name": "index",
          "type": "uint256"
        }
      ],
      "name": "getContractS",
      "outputs": [
        {
          "internalType": "address",
          "name": "",
          "type": "address"
        }
      ],
      "stateMutability": "view",
      "type": "function"
    },
    {
      "inputs": [],
      "name": "numberOfFactories",
      "outputs": [
        {
          "internalType": "int256",
          "name": "",
          "type": "int256"
        }
      ],
      "stateMutability": "view",
      "type": "function"
    },
    {
      "inputs": [],
      "name": "numberOfProducers",
      "outputs": [
        {
          "internalType": "int256",
          "name": "",
          "type": "int256"
        }
      ],
      "stateMutability": "view",
      "type": "function"
    },
    {
      "inputs": [],
      "name": "numberOfShops",
      "outputs": [
        {
          "internalType": "int256",
          "name": "",
          "type": "int256"
        }
      ],
      "stateMutability": "view",
      "type": "function"
    },
    {
      "inputs": [],
      "name": "owner",
      "outputs": [
        {
          "internalType": "address",
          "name": "",
          "type": "address"
        }
      ],
      "stateMutability": "view",
      "type": "function"
    }
  ],
  "bytecode": "0x608060405234801561001057600080fd5b50336000806101000a81548173ffffffffffffffffffffffffffffffffffffffff021916908373ffffffffffffffffffffffffffffffffffffffff160217905550613762806100606000396000f3fe60806040523480156200001157600080fd5b5060043610620000b85760003560e01c806383aa942b116200007b57806383aa942b14620001a35780638da5cb5b14620001d957806391213b2814620001fb5780639c9145d51462000231578063cfe7e7d71462000253578063f9c7e45e146200028957620000b8565b806342a1a3a814620000bd57806345e1976b14620000f35780635ea5bc731462000115578063718ac84a146200014b578063770fe2671462000181575b600080fd5b620000db6004803603810190620000d5919062000963565b620002bf565b604051620000ea919062000a20565b60405180910390f35b620000fd620002ff565b6040516200010c919062000a58565b60405180910390f35b6200013360048036038101906200012d919062000963565b62000305565b60405162000142919062000a9a565b60405180910390f35b62000169600480360381019062000163919062000963565b62000350565b60405162000178919062000a9a565b60405180910390f35b6200018b6200039b565b6040516200019a919062000a58565b60405180910390f35b620001c16004803603810190620001bb919062000c41565b620003a1565b604051620001d0919062000a9a565b60405180910390f35b620001e3620006a8565b604051620001f2919062000a9a565b60405180910390f35b62000219600480360381019062000213919062000963565b620006cc565b60405162000228919062000a9a565b60405180910390f35b6200023b62000717565b6040516200024a919062000a58565b60405180910390f35b6200027160048036038101906200026b919062000963565b6200071d565b60405162000280919062000a20565b60405180910390f35b620002a76004803603810190620002a1919062000963565b6200075d565b604051620002b6919062000a20565b60405180910390f35b60038181548110620002d057600080fd5b906000526020600020016000915054906101000a900473ffffffffffffffffffffffffffffffffffffffff1681565b60025481565b6000600182815481106200031e576200031d62000d3a565b5b9060005260206000200160009054906101000a900473ffffffffffffffffffffffffffffffffffffffff169050919050565b60006003828154811062000369576200036862000d3a565b5b9060005260206000200160009054906101000a900473ffffffffffffffffffffffffffffffffffffffff169050919050565b60045481565b60008033888888888888604051620003b99062000906565b620003cb979695949392919062000ea8565b604051809103906000f080158015620003e8573d6000803e3d6000fd5b5090506000600281111562000402576200040162000d8e565b5b88600281111562000418576200041762000d8e565b5b03620004c4576001819080600181540180825580915050600190039060005260206000200160009091909190916101000a81548173ffffffffffffffffffffffffffffffffffffffff021916908373ffffffffffffffffffffffffffffffffffffffff160217905550620004c36040518060400160405280600981526020017f76656e646f72203d20000000000000000000000000000000000000000000000081525060006200079d565b5b60016002811115620004db57620004da62000d8e565b5b886002811115620004f157620004f062000d8e565b5b036200059d576003819080600181540180825580915050600190039060005260206000200160009091909190916101000a81548173ffffffffffffffffffffffffffffffffffffffff021916908373ffffffffffffffffffffffffffffffffffffffff1602179055506200059c6040518060400160405280600981526020017f76656e646f72203d20000000000000000000000000000000000000000000000081525060016200079d565b5b600280811115620005b357620005b262000d8e565b5b886002811115620005c957620005c862000d8e565b5b0362000675576005819080600181540180825580915050600190039060005260206000200160009091909190916101000a81548173ffffffffffffffffffffffffffffffffffffffff021916908373ffffffffffffffffffffffffffffffffffffffff160217905550620006746040518060400160405280600981526020017f76656e646f72203d20000000000000000000000000000000000000000000000081525060026200079d565b5b6200069a6040518060600160405280602881526020016200370560289139826200083d565b809150509695505050505050565b60008054906101000a900473ffffffffffffffffffffffffffffffffffffffff1681565b600060058281548110620006e557620006e462000d3a565b5b9060005260206000200160009054906101000a900473ffffffffffffffffffffffffffffffffffffffff169050919050565b60065481565b600181815481106200072e57600080fd5b906000526020600020016000915054906101000a900473ffffffffffffffffffffffffffffffffffffffff1681565b600581815481106200076e57600080fd5b906000526020600020016000915054906101000a900473ffffffffffffffffffffffffffffffffffffffff1681565b620008398282604051602401620007b692919062000f3a565b6040516020818303038152906040527fb60e72cc000000000000000000000000000000000000000000000000000000007bffffffffffffffffffffffffffffffffffffffffffffffffffffffff19166020820180517bffffffffffffffffffffffffffffffffffffffffffffffffffffffff8381831617835250505050620008dd565b5050565b620008d982826040516024016200085692919062000f6e565b6040516020818303038152906040527f319af333000000000000000000000000000000000000000000000000000000007bffffffffffffffffffffffffffffffffffffffffffffffffffffffff19166020820180517bffffffffffffffffffffffffffffffffffffffffffffffffffffffff8381831617835250505050620008dd565b5050565b60008151905060006a636f6e736f6c652e6c6f679050602083016000808483855afa5050505050565b6127628062000fa383390190565b6000604051905090565b600080fd5b600080fd5b6000819050919050565b6200093d8162000928565b81146200094957600080fd5b50565b6000813590506200095d8162000932565b92915050565b6000602082840312156200097c576200097b6200091e565b5b60006200098c848285016200094c565b91505092915050565b600073ffffffffffffffffffffffffffffffffffffffff82169050919050565b6000819050919050565b6000620009e0620009da620009d48462000995565b620009b5565b62000995565b9050919050565b6000620009f482620009bf565b9050919050565b600062000a0882620009e7565b9050919050565b62000a1a81620009fb565b82525050565b600060208201905062000a37600083018462000a0f565b92915050565b6000819050919050565b62000a528162000a3d565b82525050565b600060208201905062000a6f600083018462000a47565b92915050565b600062000a828262000995565b9050919050565b62000a948162000a75565b82525050565b600060208201905062000ab1600083018462000a89565b92915050565b6003811062000ac557600080fd5b50565b60008135905062000ad98162000ab7565b92915050565b600080fd5b600080fd5b6000601f19601f8301169050919050565b7f4e487b7100000000000000000000000000000000000000000000000000000000600052604160045260246000fd5b62000b348262000ae9565b810181811067ffffffffffffffff8211171562000b565762000b5562000afa565b5b80604052505050565b600062000b6b62000914565b905062000b79828262000b29565b919050565b600067ffffffffffffffff82111562000b9c5762000b9b62000afa565b5b62000ba78262000ae9565b9050602081019050919050565b82818337600083830152505050565b600062000bda62000bd48462000b7e565b62000b5f565b90508281526020810184848401111562000bf95762000bf862000ae4565b5b62000c0684828562000bb4565b509392505050565b600082601f83011262000c265762000c2562000adf565b5b813562000c3884826020860162000bc3565b91505092915050565b60008060008060008060c0878903121562000c615762000c606200091e565b5b600062000c7189828a0162000ac8565b965050602087013567ffffffffffffffff81111562000c955762000c9462000923565b5b62000ca389828a0162000c0e565b955050604087013567ffffffffffffffff81111562000cc75762000cc662000923565b5b62000cd589828a0162000c0e565b945050606062000ce889828a016200094c565b935050608062000cfb89828a016200094c565b92505060a087013567ffffffffffffffff81111562000d1f5762000d1e62000923565b5b62000d2d89828a0162000c0e565b9150509295509295509295565b7f4e487b7100000000000000000000000000000000000000000000000000000000600052603260045260246000fd5b600062000d768262000995565b9050919050565b62000d888162000d69565b82525050565b7f4e487b7100000000000000000000000000000000000000000000000000000000600052602160045260246000fd5b6003811062000dd15762000dd062000d8e565b5b50565b600081905062000de48262000dbd565b919050565b600062000df68262000dd4565b9050919050565b62000e088162000de9565b82525050565b600081519050919050565b600082825260208201905092915050565b60005b8381101562000e4a57808201518184015260208101905062000e2d565b60008484015250505050565b600062000e638262000e0e565b62000e6f818562000e19565b935062000e8181856020860162000e2a565b62000e8c8162000ae9565b840191505092915050565b62000ea28162000928565b82525050565b600060e08201905062000ebf600083018a62000d7d565b62000ece602083018962000dfd565b818103604083015262000ee2818862000e56565b9050818103606083015262000ef8818762000e56565b905062000f09608083018662000e97565b62000f1860a083018562000e97565b81810360c083015262000f2c818462000e56565b905098975050505050505050565b6000604082019050818103600083015262000f56818562000e56565b905062000f67602083018462000e97565b9392505050565b6000604082019050818103600083015262000f8a818562000e56565b905062000f9b602083018462000a89565b939250505056fe60806040523480156200001157600080fd5b5060405162002762380380620027628339818101604052810190620000379190620005d9565b6040518060400160405280600881526020017f446576546f6b656e0000000000000000000000000000000000000000000000008152506040518060400160405280600381526020017f44565400000000000000000000000000000000000000000000000000000000008152508160039081620000b491906200092a565b508060049081620000c691906200092a565b50505086601160006101000a81548173ffffffffffffffffffffffffffffffffffffffff021916908373ffffffffffffffffffffffffffffffffffffffff16021790555085600660006101000a81548160ff0219169083600281111562000132576200013162000a11565b5b021790555033601260006101000a81548173ffffffffffffffffffffffffffffffffffffffff021916908373ffffffffffffffffffffffffffffffffffffffff16021790555084600590816200018991906200092a565b5083600790816200019b91906200092a565b508060089081620001ad91906200092a565b5081600a8190555082600b81905550620001cc620001d960201b60201c565b5050505050505062000a40565b6040518060a0016040528060078054620001f39062000723565b80601f0160208091040260200160405190810160405280929190818152602001828054620002219062000723565b8015620002725780601f10620002465761010080835404028352916020019162000272565b820191906000526020600020905b8154815290600101906020018083116200025457829003601f168201915b50505050508152602001600880546200028b9062000723565b80601f0160208091040260200160405190810160405280929190818152602001828054620002b99062000723565b80156200030a5780601f10620002de576101008083540402835291602001916200030a565b820191906000526020600020905b815481529060010190602001808311620002ec57829003601f168201915b50505050508152602001600a548152602001600b5481526020016000815250600c60008201518160000190816200034291906200092a565b5060208201518160010190816200035a91906200092a565b50604082015181600201556060820151816003015560808201518160040155905050565b6000604051905090565b600080fd5b600080fd5b600073ffffffffffffffffffffffffffffffffffffffff82169050919050565b6000620003bf8262000392565b9050919050565b620003d181620003b2565b8114620003dd57600080fd5b50565b600081519050620003f181620003c6565b92915050565b600381106200040557600080fd5b50565b6000815190506200041981620003f7565b92915050565b600080fd5b600080fd5b6000601f19601f8301169050919050565b7f4e487b7100000000000000000000000000000000000000000000000000000000600052604160045260246000fd5b620004748262000429565b810181811067ffffffffffffffff821117156200049657620004956200043a565b5b80604052505050565b6000620004ab6200037e565b9050620004b9828262000469565b919050565b600067ffffffffffffffff821115620004dc57620004db6200043a565b5b620004e78262000429565b9050602081019050919050565b60005b8381101562000514578082015181840152602081019050620004f7565b60008484015250505050565b6000620005376200053184620004be565b6200049f565b90508281526020810184848401111562000556576200055562000424565b5b62000563848285620004f4565b509392505050565b600082601f8301126200058357620005826200041f565b5b81516200059584826020860162000520565b91505092915050565b6000819050919050565b620005b3816200059e565b8114620005bf57600080fd5b50565b600081519050620005d381620005a8565b92915050565b600080600080600080600060e0888a031215620005fb57620005fa62000388565b5b60006200060b8a828b01620003e0565b97505060206200061e8a828b0162000408565b965050604088015167ffffffffffffffff8111156200064257620006416200038d565b5b620006508a828b016200056b565b955050606088015167ffffffffffffffff8111156200067457620006736200038d565b5b620006828a828b016200056b565b9450506080620006958a828b01620005c2565b93505060a0620006a88a828b01620005c2565b92505060c088015167ffffffffffffffff811115620006cc57620006cb6200038d565b5b620006da8a828b016200056b565b91505092959891949750929550565b600081519050919050565b7f4e487b7100000000000000000000000000000000000000000000000000000000600052602260045260246000fd5b600060028204905060018216806200073c57607f821691505b602082108103620007525762000751620006f4565b5b50919050565b60008190508160005260206000209050919050565b60006020601f8301049050919050565b600082821b905092915050565b600060088302620007bc7fffffffffffffffffffffffffffffffffffffffffffffffffffffffffffffffff826200077d565b620007c886836200077d565b95508019841693508086168417925050509392505050565b6000819050919050565b60006200080b62000805620007ff846200059e565b620007e0565b6200059e565b9050919050565b6000819050919050565b6200082783620007ea565b6200083f620008368262000812565b8484546200078a565b825550505050565b600090565b6200085662000847565b620008638184846200081c565b505050565b5b818110156200088b576200087f6000826200084c565b60018101905062000869565b5050565b601f821115620008da57620008a48162000758565b620008af846200076d565b81016020851015620008bf578190505b620008d7620008ce856200076d565b83018262000868565b50505b505050565b600082821c905092915050565b6000620008ff60001984600802620008df565b1980831691505092915050565b60006200091a8383620008ec565b9150826002028217905092915050565b6200093582620006e9565b67ffffffffffffffff8111156200095157620009506200043a565b5b6200095d825462000723565b6200096a8282856200088f565b600060209050601f831160018114620009a257600084156200098d578287015190505b6200099985826200090c565b86555062000a09565b601f198416620009b28662000758565b60005b82811015620009dc57848901518255600182019150602085019450602081019050620009b5565b86831015620009fc5784890151620009f8601f891682620008ec565b8355505b6001600288020188555050505b505050505050565b7f4e487b7100000000000000000000000000000000000000000000000000000000600052602160045260246000fd5b611d128062000a506000396000f3fe608060405234801561001057600080fd5b506004361061014d5760003560e01c80638da5cb5b116100c3578063aa8fb40b1161007c578063aa8fb40b146103ba578063addc9e61146103d8578063d8b0b499146103f4578063da0bca9514610412578063dd62ed3e14610430578063e74a84ea146104605761014d565b80638da5cb5b146102e45780638f4babfb1461030257806395d89b411461031e578063a035b1fe1461033c578063a457c2d71461035a578063a9059cbb1461038a5761014d565b80631e361901116101155780631e361901146101fa57806323b872dd14610218578063313ce56714610248578063395093511461026657806370a0823114610296578063893d20e8146102c65761014d565b806306fdde0314610152578063095ea7b3146101705780631385a6f2146101a057806317fc45e2146101be57806318160ddd146101dc575b600080fd5b61015a61047c565b6040516101679190611288565b60405180910390f35b61018a60048036038101906101859190611343565b61050e565b604051610197919061139e565b60405180910390f35b6101a8610531565b6040516101b59190611430565b60405180910390f35b6101c6610544565b6040516101d3919061145a565b60405180910390f35b6101e461054a565b6040516101f1919061145a565b60405180910390f35b610202610554565b60405161020f9190611288565b60405180910390f35b610232600480360381019061022d9190611475565b6105e2565b60405161023f919061139e565b60405180910390f35b610250610611565b60405161025d91906114e4565b60405180910390f35b610280600480360381019061027b9190611343565b61061a565b60405161028d919061139e565b60405180910390f35b6102b060048036038101906102ab91906114ff565b610651565b6040516102bd919061145a565b60405180910390f35b6102ce610699565b6040516102db919061153b565b60405180910390f35b6102ec6106c3565b6040516102f99190611577565b60405180910390f35b61031c60048036038101906103179190611592565b6106e9565b005b6103266107fc565b6040516103339190611288565b60405180910390f35b61034461088e565b604051610351919061145a565b60405180910390f35b610374600480360381019061036f9190611343565b610894565b604051610381919061139e565b60405180910390f35b6103a4600480360381019061039f9190611343565b61090b565b6040516103b1919061139e565b60405180910390f35b6103c261092e565b6040516103cf9190611288565b60405180910390f35b6103f260048036038101906103ed9190611592565b6109bc565b005b6103fc6109d3565b6040516104099190611288565b60405180910390f35b61041a610a61565b604051610427919061145a565b60405180910390f35b61044a600480360381019061044591906115bf565b610a67565b604051610457919061145a565b60405180910390f35b61047a60048036038101906104759190611343565b610aee565b005b60606003805461048b9061162e565b80601f01602080910402602001604051908101604052809291908181526020018280546104b79061162e565b80156105045780601f106104d957610100808354040283529160200191610504565b820191906000526020600020905b8154815290600101906020018083116104e757829003601f168201915b5050505050905090565b600080610519610bc5565b9050610526818585610bcd565b600191505092915050565b600660009054906101000a900460ff1681565b60095481565b6000600254905090565b600580546105619061162e565b80601f016020809104026020016040519081016040528092919081815260200182805461058d9061162e565b80156105da5780601f106105af576101008083540402835291602001916105da565b820191906000526020600020905b8154815290600101906020018083116105bd57829003601f168201915b505050505081565b6000806105ed610bc5565b90506105fa858285610d96565b610605858585610e22565b60019150509392505050565b60006012905090565b600080610625610bc5565b90506106468185856106378589610a67565b610641919061168e565b610bcd565b600191505092915050565b60008060008373ffffffffffffffffffffffffffffffffffffffff1673ffffffffffffffffffffffffffffffffffffffff168152602001908152602001600020549050919050565b6000601160009054906101000a900473ffffffffffffffffffffffffffffffffffffffff16905090565b601160009054906101000a900473ffffffffffffffffffffffffffffffffffffffff1681565b8080600954116106f857600080fd5b61070f33600b548461070a91906116c2565b61050e565b5061074a33601160009054906101000a900473ffffffffffffffffffffffffffffffffffffffff16600b548561074591906116c2565b6105e2565b50601160009054906101000a900473ffffffffffffffffffffffffffffffffffffffff1673ffffffffffffffffffffffffffffffffffffffff163373ffffffffffffffffffffffffffffffffffffffff167f42cdbd4f38c3deb4bff78f9ef8a29f69fd3e02d85dd9d934c22ce3e46cf1a5f1600b54856107ca91906116c2565b6007866040516107dc9392919061179d565b60405180910390a3816009546107f291906117db565b6009819055505050565b60606004805461080b9061162e565b80601f01602080910402602001604051908101604052809291908181526020018280546108379061162e565b80156108845780601f1061085957610100808354040283529160200191610884565b820191906000526020600020905b81548152906001019060200180831161086757829003601f168201915b5050505050905090565b600b5481565b60008061089f610bc5565b905060006108ad8286610a67565b9050838110156108f2576040517f08c379a00000000000000000000000000000000000000000000000000000000081526004016108e990611881565b60405180910390fd5b6108ff8286868403610bcd565b60019250505092915050565b600080610916610bc5565b9050610923818585610e22565b600191505092915050565b6007805461093b9061162e565b80601f01602080910402602001604051908101604052809291908181526020018280546109679061162e565b80156109b45780601f10610989576101008083540402835291602001916109b4565b820191906000526020600020905b81548152906001019060200180831161099757829003601f168201915b505050505081565b806009546109ca919061168e565b60098190555050565b600880546109e09061162e565b80601f0160208091040260200160405190810160405280929190818152602001828054610a0c9061162e565b8015610a595780601f10610a2e57610100808354040283529160200191610a59565b820191906000526020600020905b815481529060010190602001808311610a3c57829003601f168201915b505050505081565b600a5481565b6000600160008473ffffffffffffffffffffffffffffffffffffffff1673ffffffffffffffffffffffffffffffffffffffff16815260200190815260200160002060008373ffffffffffffffffffffffffffffffffffffffff1673ffffffffffffffffffffffffffffffffffffffff16815260200190815260200160002054905092915050565b601160009054906101000a900473ffffffffffffffffffffffffffffffffffffffff1673ffffffffffffffffffffffffffffffffffffffff163373ffffffffffffffffffffffffffffffffffffffff1614610b4857600080fd5b600060646019600a5484610b5c91906116c2565b610b6691906116c2565b610b7091906118d0565b82610b7b91906117db565b9050610b878382611098565b7f90b2ed4c7d4df016802ebc15a5eb9b7347c7537b640c83cb61d6fa90837514de8282604051610bb8929190611901565b60405180910390a1505050565b600033905090565b600073ffffffffffffffffffffffffffffffffffffffff168373ffffffffffffffffffffffffffffffffffffffff1603610c3c576040517f08c379a0000000000000000000000000000000000000000000000000000000008152600401610c339061199c565b60405180910390fd5b600073ffffffffffffffffffffffffffffffffffffffff168273ffffffffffffffffffffffffffffffffffffffff1603610cab576040517f08c379a0000000000000000000000000000000000000000000000000000000008152600401610ca290611a2e565b60405180910390fd5b80600160008573ffffffffffffffffffffffffffffffffffffffff1673ffffffffffffffffffffffffffffffffffffffff16815260200190815260200160002060008473ffffffffffffffffffffffffffffffffffffffff1673ffffffffffffffffffffffffffffffffffffffff168152602001908152602001600020819055508173ffffffffffffffffffffffffffffffffffffffff168373ffffffffffffffffffffffffffffffffffffffff167f8c5be1e5ebec7d5bd14f71427d1e84f3dd0314c0f7b2291e5b200ac8c7c3b92583604051610d89919061145a565b60405180910390a3505050565b6000610da28484610a67565b90507fffffffffffffffffffffffffffffffffffffffffffffffffffffffffffffffff8114610e1c5781811015610e0e576040517f08c379a0000000000000000000000000000000000000000000000000000000008152600401610e0590611a9a565b60405180910390fd5b610e1b8484848403610bcd565b5b50505050565b600073ffffffffffffffffffffffffffffffffffffffff168373ffffffffffffffffffffffffffffffffffffffff1603610e91576040517f08c379a0000000000000000000000000000000000000000000000000000000008152600401610e8890611b2c565b60405180910390fd5b600073ffffffffffffffffffffffffffffffffffffffff168273ffffffffffffffffffffffffffffffffffffffff1603610f00576040517f08c379a0000000000000000000000000000000000000000000000000000000008152600401610ef790611bbe565b60405180910390fd5b610f0b8383836111ee565b60008060008573ffffffffffffffffffffffffffffffffffffffff1673ffffffffffffffffffffffffffffffffffffffff16815260200190815260200160002054905081811015610f91576040517f08c379a0000000000000000000000000000000000000000000000000000000008152600401610f8890611c50565b60405180910390fd5b8181036000808673ffffffffffffffffffffffffffffffffffffffff1673ffffffffffffffffffffffffffffffffffffffff16815260200190815260200160002081905550816000808573ffffffffffffffffffffffffffffffffffffffff1673ffffffffffffffffffffffffffffffffffffffff168152602001908152602001600020600082825401925050819055508273ffffffffffffffffffffffffffffffffffffffff168473ffffffffffffffffffffffffffffffffffffffff167fddf252ad1be2c89b69c2b068fc378daa952ba7f163c4a11628f55a4df523b3ef8460405161107f919061145a565b60405180910390a36110928484846111f3565b50505050565b600073ffffffffffffffffffffffffffffffffffffffff168273ffffffffffffffffffffffffffffffffffffffff1603611107576040517f08c379a00000000000000000000000000000000000000000000000000000000081526004016110fe90611cbc565b60405180910390fd5b611113600083836111ee565b8060026000828254611125919061168e565b92505081905550806000808473ffffffffffffffffffffffffffffffffffffffff1673ffffffffffffffffffffffffffffffffffffffff168152602001908152602001600020600082825401925050819055508173ffffffffffffffffffffffffffffffffffffffff16600073ffffffffffffffffffffffffffffffffffffffff167fddf252ad1be2c89b69c2b068fc378daa952ba7f163c4a11628f55a4df523b3ef836040516111d6919061145a565b60405180910390a36111ea600083836111f3565b5050565b505050565b505050565b600081519050919050565b600082825260208201905092915050565b60005b83811015611232578082015181840152602081019050611217565b60008484015250505050565b6000601f19601f8301169050919050565b600061125a826111f8565b6112648185611203565b9350611274818560208601611214565b61127d8161123e565b840191505092915050565b600060208201905081810360008301526112a2818461124f565b905092915050565b600080fd5b600073ffffffffffffffffffffffffffffffffffffffff82169050919050565b60006112da826112af565b9050919050565b6112ea816112cf565b81146112f557600080fd5b50565b600081359050611307816112e1565b92915050565b6000819050919050565b6113208161130d565b811461132b57600080fd5b50565b60008135905061133d81611317565b92915050565b6000806040838503121561135a576113596112aa565b5b6000611368858286016112f8565b92505060206113798582860161132e565b9150509250929050565b60008115159050919050565b61139881611383565b82525050565b60006020820190506113b3600083018461138f565b92915050565b7f4e487b7100000000000000000000000000000000000000000000000000000000600052602160045260246000fd5b600381106113f9576113f86113b9565b5b50565b600081905061140a826113e8565b919050565b600061141a826113fc565b9050919050565b61142a8161140f565b82525050565b60006020820190506114456000830184611421565b92915050565b6114548161130d565b82525050565b600060208201905061146f600083018461144b565b92915050565b60008060006060848603121561148e5761148d6112aa565b5b600061149c868287016112f8565b93505060206114ad868287016112f8565b92505060406114be8682870161132e565b9150509250925092565b600060ff82169050919050565b6114de816114c8565b82525050565b60006020820190506114f960008301846114d5565b92915050565b600060208284031215611515576115146112aa565b5b6000611523848285016112f8565b91505092915050565b611535816112cf565b82525050565b6000602082019050611550600083018461152c565b92915050565b6000611561826112af565b9050919050565b61157181611556565b82525050565b600060208201905061158c6000830184611568565b92915050565b6000602082840312156115a8576115a76112aa565b5b60006115b68482850161132e565b91505092915050565b600080604083850312156115d6576115d56112aa565b5b60006115e4858286016112f8565b92505060206115f5858286016112f8565b9150509250929050565b7f4e487b7100000000000000000000000000000000000000000000000000000000600052602260045260246000fd5b6000600282049050600182168061164657607f821691505b602082108103611659576116586115ff565b5b50919050565b7f4e487b7100000000000000000000000000000000000000000000000000000000600052601160045260246000fd5b60006116998261130d565b91506116a48361130d565b92508282019050808211156116bc576116bb61165f565b5b92915050565b60006116cd8261130d565b91506116d88361130d565b92508282026116e68161130d565b915082820484148315176116fd576116fc61165f565b5b5092915050565b60008190508160005260206000209050919050565b600081546117268161162e565b6117308186611203565b9450600182166000811461174b576001811461176157611794565b60ff198316865281151560200286019350611794565b61176a85611704565b60005b8381101561178c5781548189015260018201915060208101905061176d565b808801955050505b50505092915050565b60006060820190506117b2600083018661144b565b81810360208301526117c48185611719565b90506117d3604083018461144b565b949350505050565b60006117e68261130d565b91506117f18361130d565b92508282039050818111156118095761180861165f565b5b92915050565b7f45524332303a2064656372656173656420616c6c6f77616e63652062656c6f7760008201527f207a65726f000000000000000000000000000000000000000000000000000000602082015250565b600061186b602583611203565b91506118768261180f565b604082019050919050565b6000602082019050818103600083015261189a8161185e565b9050919050565b7f4e487b7100000000000000000000000000000000000000000000000000000000600052601260045260246000fd5b60006118db8261130d565b91506118e68361130d565b9250826118f6576118f56118a1565b5b828204905092915050565b6000604082019050611916600083018561144b565b611923602083018461144b565b9392505050565b7f45524332303a20617070726f76652066726f6d20746865207a65726f2061646460008201527f7265737300000000000000000000000000000000000000000000000000000000602082015250565b6000611986602483611203565b91506119918261192a565b604082019050919050565b600060208201905081810360008301526119b581611979565b9050919050565b7f45524332303a20617070726f766520746f20746865207a65726f20616464726560008201527f7373000000000000000000000000000000000000000000000000000000000000602082015250565b6000611a18602283611203565b9150611a23826119bc565b604082019050919050565b60006020820190508181036000830152611a4781611a0b565b9050919050565b7f45524332303a20696e73756666696369656e7420616c6c6f77616e6365000000600082015250565b6000611a84601d83611203565b9150611a8f82611a4e565b602082019050919050565b60006020820190508181036000830152611ab381611a77565b9050919050565b7f45524332303a207472616e736665722066726f6d20746865207a65726f20616460008201527f6472657373000000000000000000000000000000000000000000000000000000602082015250565b6000611b16602583611203565b9150611b2182611aba565b604082019050919050565b60006020820190508181036000830152611b4581611b09565b9050919050565b7f45524332303a207472616e7366657220746f20746865207a65726f206164647260008201527f6573730000000000000000000000000000000000000000000000000000000000602082015250565b6000611ba8602383611203565b9150611bb382611b4c565b604082019050919050565b60006020820190508181036000830152611bd781611b9b565b9050919050565b7f45524332303a207472616e7366657220616d6f756e742065786365656473206260008201527f616c616e63650000000000000000000000000000000000000000000000000000602082015250565b6000611c3a602683611203565b9150611c4582611bde565b604082019050919050565b60006020820190508181036000830152611c6981611c2d565b9050919050565b7f45524332303a206d696e7420746f20746865207a65726f206164647265737300600082015250565b6000611ca6601f83611203565b9150611cb182611c70565b602082019050919050565b60006020820190508181036000830152611cd581611c99565b905091905056fea2646970667358221220dbe55b256f75898da5e03fd7defb980e9e253188a1e58a7fe217a6a607a70f7f64736f6c634300081100335468652061646472657373206f6620746865206372656174656420636f6e74726163742069733a20a26469706673582212206f4a8149848ef9a59cf56f6c2e36eb73c330ebda73cc138155a3ca269c47c8bf64736f6c63430008110033",
  "linkReferences": {},
  "deployedLinkReferences": {}
}