{
  "_format": "hh-sol-artifact-1",
  "contractName": "Factory",
  "sourceName": "contracts/Factory.sol",
  "abi": [
    {
      "inputs": [],
      "stateMutability": "nonpayable",
      "type": "constructor"
    },
    {
      "inputs": [
        {
          "internalType": "uint256",
          "name": "",
          "type": "uint256"
        }
      ],
      "name": "ContractArrayTypeF",
      "outputs": [
        {
          "internalType": "contract Contract",
          "name": "",
          "type": "address"
        }
      ],
      "stateMutability": "view",
      "type": "function"
    },
    {
      "inputs": [
        {
          "internalType": "uint256",
          "name": "",
          "type": "uint256"
        }
      ],
      "name": "ContractArrayTypeP",
      "outputs": [
        {
          "internalType": "contract Contract",
          "name": "",
          "type": "address"
        }
      ],
      "stateMutability": "view",
      "type": "function"
    },
    {
      "inputs": [
        {
          "internalType": "uint256",
          "name": "",
          "type": "uint256"
        }
      ],
      "name": "ContractArrayTypeS",
      "outputs": [
        {
          "internalType": "contract Contract",
          "name": "",
          "type": "address"
        }
      ],
      "stateMutability": "view",
      "type": "function"
    },
    {
      "inputs": [
        {
          "internalType": "enum VendorType",
          "name": "vendorType",
          "type": "uint8"
        },
        {
          "internalType": "string",
          "name": "nameOfTheContract",
          "type": "string"
        },
        {
          "internalType": "string",
          "name": "good",
          "type": "string"
        }
      ],
      "name": "CreateNewContract",
      "outputs": [
        {
          "internalType": "address",
          "name": "",
          "type": "address"
        }
      ],
      "stateMutability": "nonpayable",
      "type": "function"
    },
    {
      "inputs": [
        {
          "internalType": "uint256",
          "name": "index",
          "type": "uint256"
        }
      ],
      "name": "getContractF",
      "outputs": [
        {
          "internalType": "address",
          "name": "",
          "type": "address"
        }
      ],
      "stateMutability": "view",
      "type": "function"
    },
    {
      "inputs": [
        {
          "internalType": "uint256",
          "name": "index",
          "type": "uint256"
        }
      ],
      "name": "getContractP",
      "outputs": [
        {
          "internalType": "address",
          "name": "",
          "type": "address"
        }
      ],
      "stateMutability": "view",
      "type": "function"
    },
    {
      "inputs": [
        {
          "internalType": "uint256",
          "name": "index",
          "type": "uint256"
        }
      ],
      "name": "getContractS",
      "outputs": [
        {
          "internalType": "address",
          "name": "",
          "type": "address"
        }
      ],
      "stateMutability": "view",
      "type": "function"
    },
    {
      "inputs": [],
      "name": "numberOfFactories",
      "outputs": [
        {
          "internalType": "int256",
          "name": "",
          "type": "int256"
        }
      ],
      "stateMutability": "view",
      "type": "function"
    },
    {
      "inputs": [],
      "name": "numberOfProducers",
      "outputs": [
        {
          "internalType": "int256",
          "name": "",
          "type": "int256"
        }
      ],
      "stateMutability": "view",
      "type": "function"
    },
    {
      "inputs": [],
      "name": "numberOfShops",
      "outputs": [
        {
          "internalType": "int256",
          "name": "",
          "type": "int256"
        }
      ],
      "stateMutability": "view",
      "type": "function"
    },
    {
      "inputs": [],
      "name": "owner",
      "outputs": [
        {
          "internalType": "address",
          "name": "",
          "type": "address"
        }
      ],
      "stateMutability": "view",
      "type": "function"
    }
  ],
  "bytecode": "0x608060405234801561001057600080fd5b50336000806101000a81548173ffffffffffffffffffffffffffffffffffffffff021916908373ffffffffffffffffffffffffffffffffffffffff160217905550613d41806100606000396000f3fe60806040523480156200001157600080fd5b5060043610620000b85760003560e01c8063770fe267116200007b578063770fe26714620001b75780638da5cb5b14620001d957806391213b2814620001fb5780639c9145d51462000231578063cfe7e7d71462000253578063f9c7e45e146200028957620000b8565b8063081a578714620000bd57806342a1a3a814620000f357806345e1976b14620001295780635ea5bc73146200014b578063718ac84a1462000181575b600080fd5b620000db6004803603810190620000d5919062000aa9565b620002bf565b604051620000ea919062000b88565b60405180910390f35b6200011160048036038101906200010b919062000be0565b620005bd565b60405162000120919062000c7d565b60405180910390f35b62000133620005fd565b60405162000142919062000cb5565b60405180910390f35b62000169600480360381019062000163919062000be0565b62000603565b60405162000178919062000b88565b60405180910390f35b6200019f600480360381019062000199919062000be0565b6200064e565b604051620001ae919062000b88565b60405180910390f35b620001c162000699565b604051620001d0919062000cb5565b60405180910390f35b620001e36200069f565b604051620001f2919062000b88565b60405180910390f35b62000219600480360381019062000213919062000be0565b620006c3565b60405162000228919062000b88565b60405180910390f35b6200023b6200070e565b6040516200024a919062000cb5565b60405180910390f35b6200027160048036038101906200026b919062000be0565b62000714565b60405162000280919062000c7d565b60405180910390f35b620002a76004803603810190620002a1919062000be0565b62000754565b604051620002b6919062000c7d565b60405180910390f35b60008033858585604051620002d490620008fd565b620002e3949392919062000e00565b604051809103906000f08015801562000300573d6000803e3d6000fd5b509050600060028111156200031a576200031962000cf7565b5b85600281111562000330576200032f62000cf7565b5b03620003dc576001819080600181540180825580915050600190039060005260206000200160009091909190916101000a81548173ffffffffffffffffffffffffffffffffffffffff021916908373ffffffffffffffffffffffffffffffffffffffff160217905550620003db6040518060400160405280600981526020017f76656e646f72203d200000000000000000000000000000000000000000000000815250600062000794565b5b60016002811115620003f357620003f262000cf7565b5b85600281111562000409576200040862000cf7565b5b03620004b5576003819080600181540180825580915050600190039060005260206000200160009091909190916101000a81548173ffffffffffffffffffffffffffffffffffffffff021916908373ffffffffffffffffffffffffffffffffffffffff160217905550620004b46040518060400160405280600981526020017f76656e646f72203d200000000000000000000000000000000000000000000000815250600162000794565b5b600280811115620004cb57620004ca62000cf7565b5b856002811115620004e157620004e062000cf7565b5b036200058d576005819080600181540180825580915050600190039060005260206000200160009091909190916101000a81548173ffffffffffffffffffffffffffffffffffffffff021916908373ffffffffffffffffffffffffffffffffffffffff1602179055506200058c6040518060400160405280600981526020017f76656e646f72203d200000000000000000000000000000000000000000000000815250600262000794565b5b620005b260405180606001604052806028815260200162003ce4602891398262000834565b809150509392505050565b60038181548110620005ce57600080fd5b906000526020600020016000915054906101000a900473ffffffffffffffffffffffffffffffffffffffff1681565b60025481565b6000600182815481106200061c576200061b62000e5b565b5b9060005260206000200160009054906101000a900473ffffffffffffffffffffffffffffffffffffffff169050919050565b60006003828154811062000667576200066662000e5b565b5b9060005260206000200160009054906101000a900473ffffffffffffffffffffffffffffffffffffffff169050919050565b60045481565b60008054906101000a900473ffffffffffffffffffffffffffffffffffffffff1681565b600060058281548110620006dc57620006db62000e5b565b5b9060005260206000200160009054906101000a900473ffffffffffffffffffffffffffffffffffffffff169050919050565b60065481565b600181815481106200072557600080fd5b906000526020600020016000915054906101000a900473ffffffffffffffffffffffffffffffffffffffff1681565b600581815481106200076557600080fd5b906000526020600020016000915054906101000a900473ffffffffffffffffffffffffffffffffffffffff1681565b620008308282604051602401620007ad92919062000e9b565b6040516020818303038152906040527fb60e72cc000000000000000000000000000000000000000000000000000000007bffffffffffffffffffffffffffffffffffffffffffffffffffffffff19166020820180517bffffffffffffffffffffffffffffffffffffffffffffffffffffffff8381831617835250505050620008d4565b5050565b620008d082826040516024016200084d92919062000ecf565b6040516020818303038152906040527f319af333000000000000000000000000000000000000000000000000000000007bffffffffffffffffffffffffffffffffffffffffffffffffffffffff19166020820180517bffffffffffffffffffffffffffffffffffffffffffffffffffffffff8381831617835250505050620008d4565b5050565b60008151905060006a636f6e736f6c652e6c6f679050602083016000808483855afa5050505050565b612de08062000f0483390190565b6000604051905090565b600080fd5b600080fd5b600381106200092d57600080fd5b50565b60008135905062000941816200091f565b92915050565b600080fd5b600080fd5b6000601f19601f8301169050919050565b7f4e487b7100000000000000000000000000000000000000000000000000000000600052604160045260246000fd5b6200099c8262000951565b810181811067ffffffffffffffff82111715620009be57620009bd62000962565b5b80604052505050565b6000620009d36200090b565b9050620009e1828262000991565b919050565b600067ffffffffffffffff82111562000a045762000a0362000962565b5b62000a0f8262000951565b9050602081019050919050565b82818337600083830152505050565b600062000a4262000a3c84620009e6565b620009c7565b90508281526020810184848401111562000a615762000a606200094c565b5b62000a6e84828562000a1c565b509392505050565b600082601f83011262000a8e5762000a8d62000947565b5b813562000aa084826020860162000a2b565b91505092915050565b60008060006060848603121562000ac55762000ac462000915565b5b600062000ad58682870162000930565b935050602084013567ffffffffffffffff81111562000af95762000af86200091a565b5b62000b078682870162000a76565b925050604084013567ffffffffffffffff81111562000b2b5762000b2a6200091a565b5b62000b398682870162000a76565b9150509250925092565b600073ffffffffffffffffffffffffffffffffffffffff82169050919050565b600062000b708262000b43565b9050919050565b62000b828162000b63565b82525050565b600060208201905062000b9f600083018462000b77565b92915050565b6000819050919050565b62000bba8162000ba5565b811462000bc657600080fd5b50565b60008135905062000bda8162000baf565b92915050565b60006020828403121562000bf95762000bf862000915565b5b600062000c098482850162000bc9565b91505092915050565b6000819050919050565b600062000c3d62000c3762000c318462000b43565b62000c12565b62000b43565b9050919050565b600062000c518262000c1c565b9050919050565b600062000c658262000c44565b9050919050565b62000c778162000c58565b82525050565b600060208201905062000c94600083018462000c6c565b92915050565b6000819050919050565b62000caf8162000c9a565b82525050565b600060208201905062000ccc600083018462000ca4565b92915050565b600062000cdf8262000b43565b9050919050565b62000cf18162000cd2565b82525050565b7f4e487b7100000000000000000000000000000000000000000000000000000000600052602160045260246000fd5b6003811062000d3a5762000d3962000cf7565b5b50565b600081905062000d4d8262000d26565b919050565b600062000d5f8262000d3d565b9050919050565b62000d718162000d52565b82525050565b600081519050919050565b600082825260208201905092915050565b60005b8381101562000db357808201518184015260208101905062000d96565b60008484015250505050565b600062000dcc8262000d77565b62000dd8818562000d82565b935062000dea81856020860162000d93565b62000df58162000951565b840191505092915050565b600060808201905062000e17600083018762000ce6565b62000e26602083018662000d66565b818103604083015262000e3a818562000dbf565b9050818103606083015262000e50818462000dbf565b905095945050505050565b7f4e487b7100000000000000000000000000000000000000000000000000000000600052603260045260246000fd5b62000e958162000ba5565b82525050565b6000604082019050818103600083015262000eb7818562000dbf565b905062000ec8602083018462000e8a565b9392505050565b6000604082019050818103600083015262000eeb818562000dbf565b905062000efc602083018462000b77565b939250505056fe60806040523480156200001157600080fd5b5060405162002de038038062002de08339818101604052810190620000379190620003d1565b6040518060400160405280600881526020017f446576546f6b656e0000000000000000000000000000000000000000000000008152506040518060400160405280600381526020017f44565400000000000000000000000000000000000000000000000000000000008152508160039081620000b49190620006cc565b508060049081620000c69190620006cc565b5050508361020160006101000a81548173ffffffffffffffffffffffffffffffffffffffff021916908373ffffffffffffffffffffffffffffffffffffffff16021790555082600660006101000a81548160ff02191690836002811115620001335762000132620007b3565b5b021790555060006101fc819055503361020260006101000a81548173ffffffffffffffffffffffffffffffffffffffff021916908373ffffffffffffffffffffffffffffffffffffffff1602179055508160059081620001949190620006cc565b508060079081620001a69190620006cc565b5050505050620007e2565b6000604051905090565b600080fd5b600080fd5b600073ffffffffffffffffffffffffffffffffffffffff82169050919050565b6000620001f282620001c5565b9050919050565b6200020481620001e5565b81146200021057600080fd5b50565b6000815190506200022481620001f9565b92915050565b600381106200023857600080fd5b50565b6000815190506200024c816200022a565b92915050565b600080fd5b600080fd5b6000601f19601f8301169050919050565b7f4e487b7100000000000000000000000000000000000000000000000000000000600052604160045260246000fd5b620002a7826200025c565b810181811067ffffffffffffffff82111715620002c957620002c86200026d565b5b80604052505050565b6000620002de620001b1565b9050620002ec82826200029c565b919050565b600067ffffffffffffffff8211156200030f576200030e6200026d565b5b6200031a826200025c565b9050602081019050919050565b60005b83811015620003475780820151818401526020810190506200032a565b60008484015250505050565b60006200036a6200036484620002f1565b620002d2565b90508281526020810184848401111562000389576200038862000257565b5b6200039684828562000327565b509392505050565b600082601f830112620003b657620003b562000252565b5b8151620003c884826020860162000353565b91505092915050565b60008060008060808587031215620003ee57620003ed620001bb565b5b6000620003fe8782880162000213565b945050602062000411878288016200023b565b935050604085015167ffffffffffffffff811115620004355762000434620001c0565b5b62000443878288016200039e565b925050606085015167ffffffffffffffff811115620004675762000466620001c0565b5b62000475878288016200039e565b91505092959194509250565b600081519050919050565b7f4e487b7100000000000000000000000000000000000000000000000000000000600052602260045260246000fd5b60006002820490506001821680620004d457607f821691505b602082108103620004ea57620004e96200048c565b5b50919050565b60008190508160005260206000209050919050565b60006020601f8301049050919050565b600082821b905092915050565b600060088302620005547fffffffffffffffffffffffffffffffffffffffffffffffffffffffffffffffff8262000515565b62000560868362000515565b95508019841693508086168417925050509392505050565b6000819050919050565b6000819050919050565b6000620005ad620005a7620005a18462000578565b62000582565b62000578565b9050919050565b6000819050919050565b620005c9836200058c565b620005e1620005d882620005b4565b84845462000522565b825550505050565b600090565b620005f8620005e9565b62000605818484620005be565b505050565b5b818110156200062d5762000621600082620005ee565b6001810190506200060b565b5050565b601f8211156200067c576200064681620004f0565b620006518462000505565b8101602085101562000661578190505b62000679620006708562000505565b8301826200060a565b50505b505050565b600082821c905092915050565b6000620006a16000198460080262000681565b1980831691505092915050565b6000620006bc83836200068e565b9150826002028217905092915050565b620006d78262000481565b67ffffffffffffffff811115620006f357620006f26200026d565b5b620006ff8254620004bb565b6200070c82828562000631565b600060209050601f8311600181146200074457600084156200072f578287015190505b6200073b8582620006ae565b865550620007ab565b601f1984166200075486620004f0565b60005b828110156200077e5784890151825560018201915060208501945060208101905062000757565b868310156200079e57848901516200079a601f8916826200068e565b8355505b6001600288020188555050505b505050505050565b7f4e487b7100000000000000000000000000000000000000000000000000000000600052602160045260246000fd5b6125ee80620007f26000396000f3fe608060405234801561001057600080fd5b506004361061014d5760003560e01c80638da5cb5b116100c3578063a9059cbb1161007c578063a9059cbb146103ea578063aa8fb40b1461041a578063b521cc8e14610438578063be0f139214610454578063dd62ed3e14610470578063e74a84ea146104a05761014d565b80638da5cb5b146102fa57806393b2e0541461031857806394fca80e1461034c57806395d89b4114610368578063a457c2d714610386578063a85c38ef146103b65761014d565b806323b872dd1161011557806323b872dd146101fa5780632ac9e0b31461022a578063313ce5671461025e578063395093511461027c57806370a08231146102ac578063893d20e8146102dc5761014d565b806306fdde0314610152578063095ea7b3146101705780631385a6f2146101a057806318160ddd146101be5780631e361901146101dc575b600080fd5b61015a6104bc565b60405161016791906116db565b60405180910390f35b61018a600480360381019061018591906117a5565b61054e565b6040516101979190611800565b60405180910390f35b6101a8610571565b6040516101b59190611892565b60405180910390f35b6101c6610584565b6040516101d391906118bc565b60405180910390f35b6101e461058e565b6040516101f191906116db565b60405180910390f35b610214600480360381019061020f91906118d7565b61061c565b6040516102219190611800565b60405180910390f35b610244600480360381019061023f919061192a565b61064b565b604051610255959493929190611957565b60405180910390f35b610266610792565b60405161027391906119d4565b60405180910390f35b610296600480360381019061029191906117a5565b61079b565b6040516102a39190611800565b60405180910390f35b6102c660048036038101906102c191906119ef565b6107d2565b6040516102d391906118bc565b60405180910390f35b6102e461081a565b6040516102f19190611a2b565b60405180910390f35b610302610845565b60405161030f9190611a67565b60405180910390f35b610332600480360381019061032d919061192a565b61086c565b604051610343959493929190611957565b60405180910390f35b61036660048036038101906103619190611bb7565b6109b3565b005b610370610abf565b60405161037d91906116db565b60405180910390f35b6103a0600480360381019061039b91906117a5565b610b51565b6040516103ad9190611800565b60405180910390f35b6103d060048036038101906103cb919061192a565b610bc8565b6040516103e1959493929190611957565b60405180910390f35b61040460048036038101906103ff91906117a5565b610d14565b6040516104119190611800565b60405180910390f35b610422610d37565b60405161042f91906116db565b60405180910390f35b610452600480360381019061044d9190611c6a565b610dc5565b005b61046e60048036038101906104699190611cc6565b610e74565b005b61048a60048036038101906104859190611d06565b610f54565b60405161049791906118bc565b60405180910390f35b6104ba60048036038101906104b591906117a5565b610fdb565b005b6060600380546104cb90611d75565b80601f01602080910402602001604051908101604052809291908181526020018280546104f790611d75565b80156105445780601f1061051957610100808354040283529160200191610544565b820191906000526020600020905b81548152906001019060200180831161052757829003601f168201915b5050505050905090565b600080610559610fe9565b9050610566818585610ff1565b600191505092915050565b600660009054906101000a900460ff1681565b6000600254905090565b6005805461059b90611d75565b80601f01602080910402602001604051908101604052809291908181526020018280546105c790611d75565b80156106145780601f106105e957610100808354040283529160200191610614565b820191906000526020600020905b8154815290600101906020018083116105f757829003601f168201915b505050505081565b600080610627610fe9565b90506106348582856111ba565b61063f858585611246565b60019150509392505050565b6101fd60205280600052604060002060009150905080600001805461066f90611d75565b80601f016020809104026020016040519081016040528092919081815260200182805461069b90611d75565b80156106e85780601f106106bd576101008083540402835291602001916106e8565b820191906000526020600020905b8154815290600101906020018083116106cb57829003601f168201915b5050505050908060010180546106fd90611d75565b80601f016020809104026020016040519081016040528092919081815260200182805461072990611d75565b80156107765780601f1061074b57610100808354040283529160200191610776565b820191906000526020600020905b81548152906001019060200180831161075957829003601f168201915b5050505050908060020154908060030154908060040154905085565b60006012905090565b6000806107a6610fe9565b90506107c78185856107b88589610f54565b6107c29190611dd5565b610ff1565b600191505092915050565b60008060008373ffffffffffffffffffffffffffffffffffffffff1673ffffffffffffffffffffffffffffffffffffffff168152602001908152602001600020549050919050565b600061020160009054906101000a900473ffffffffffffffffffffffffffffffffffffffff16905090565b61020160009054906101000a900473ffffffffffffffffffffffffffffffffffffffff1681565b6101fe60205280600052604060002060009150905080600001805461089090611d75565b80601f01602080910402602001604051908101604052809291908181526020018280546108bc90611d75565b80156109095780601f106108de57610100808354040283529160200191610909565b820191906000526020600020905b8154815290600101906020018083116108ec57829003601f168201915b50505050509080600101805461091e90611d75565b80601f016020809104026020016040519081016040528092919081815260200182805461094a90611d75565b80156109975780601f1061096c57610100808354040283529160200191610997565b820191906000526020600020905b81548152906001019060200180831161097a57829003601f168201915b5050505050908060020154908060030154908060040154905085565b61020160009054906101000a900473ffffffffffffffffffffffffffffffffffffffff1673ffffffffffffffffffffffffffffffffffffffff163373ffffffffffffffffffffffffffffffffffffffff1614610a0e57600080fd5b60006040518060a00160405280878152602001848152602001868152602001858152602001838152509050806101fd60006101fc5481526020019081526020016000206000820151816000019081610a669190611fb5565b506020820151816001019081610a7c9190611fb5565b506040820151816002015560608201518160030155608082015181600401559050506101fc6000815480929190610ab290612087565b9190505550505050505050565b606060048054610ace90611d75565b80601f0160208091040260200160405190810160405280929190818152602001828054610afa90611d75565b8015610b475780601f10610b1c57610100808354040283529160200191610b47565b820191906000526020600020905b815481529060010190602001808311610b2a57829003601f168201915b5050505050905090565b600080610b5c610fe9565b90506000610b6a8286610f54565b905083811015610baf576040517f08c379a0000000000000000000000000000000000000000000000000000000008152600401610ba690612141565b60405180910390fd5b610bbc8286868403610ff1565b60019250505092915050565b60088160648110610bd857600080fd5b60050201600091509050806000018054610bf190611d75565b80601f0160208091040260200160405190810160405280929190818152602001828054610c1d90611d75565b8015610c6a5780601f10610c3f57610100808354040283529160200191610c6a565b820191906000526020600020905b815481529060010190602001808311610c4d57829003601f168201915b505050505090806001018054610c7f90611d75565b80601f0160208091040260200160405190810160405280929190818152602001828054610cab90611d75565b8015610cf85780601f10610ccd57610100808354040283529160200191610cf8565b820191906000526020600020905b815481529060010190602001808311610cdb57829003601f168201915b5050505050908060020154908060030154908060040154905085565b600080610d1f610fe9565b9050610d2c818585611246565b600191505092915050565b60078054610d4490611d75565b80601f0160208091040260200160405190810160405280929190818152602001828054610d7090611d75565b8015610dbd5780601f10610d9257610100808354040283529160200191610dbd565b820191906000526020600020905b815481529060010190602001808311610da057829003601f168201915b505050505081565b6064610200541015610e7057610dd961161c565b828160000181905250818160800181815250508060086102005460648110610e0457610e03612161565b5b600502016000820151816000019081610e1d9190611fb5565b506020820151816001019081610e339190611fb5565b506040820151816002015560608201518160030155608082015181600401559050506102006000815480929190610e6990612087565b9190505550505b5050565b8181806101fd60008481526020019081526020016000206004015411610e9957600080fd5b826101fd6000868152602001908152602001600020600401541115610f4e5760006101fd60008681526020019081526020016000206003015484610edd9190612190565b9050610f0d3361020160009054906101000a900473ffffffffffffffffffffffffffffffffffffffff168361061c565b50836101fd600087815260200190815260200160002060040154610f3191906121d2565b6101fd600087815260200190815260200160002060040181905550505b50505050565b6000600160008473ffffffffffffffffffffffffffffffffffffffff1673ffffffffffffffffffffffffffffffffffffffff16815260200190815260200160002060008373ffffffffffffffffffffffffffffffffffffffff1673ffffffffffffffffffffffffffffffffffffffff16815260200190815260200160002054905092915050565b610fe582826114bc565b5050565b600033905090565b600073ffffffffffffffffffffffffffffffffffffffff168373ffffffffffffffffffffffffffffffffffffffff1603611060576040517f08c379a000000000000000000000000000000000000000000000000000000000815260040161105790612278565b60405180910390fd5b600073ffffffffffffffffffffffffffffffffffffffff168273ffffffffffffffffffffffffffffffffffffffff16036110cf576040517f08c379a00000000000000000000000000000000000000000000000000000000081526004016110c69061230a565b60405180910390fd5b80600160008573ffffffffffffffffffffffffffffffffffffffff1673ffffffffffffffffffffffffffffffffffffffff16815260200190815260200160002060008473ffffffffffffffffffffffffffffffffffffffff1673ffffffffffffffffffffffffffffffffffffffff168152602001908152602001600020819055508173ffffffffffffffffffffffffffffffffffffffff168373ffffffffffffffffffffffffffffffffffffffff167f8c5be1e5ebec7d5bd14f71427d1e84f3dd0314c0f7b2291e5b200ac8c7c3b925836040516111ad91906118bc565b60405180910390a3505050565b60006111c68484610f54565b90507fffffffffffffffffffffffffffffffffffffffffffffffffffffffffffffffff81146112405781811015611232576040517f08c379a000000000000000000000000000000000000000000000000000000000815260040161122990612376565b60405180910390fd5b61123f8484848403610ff1565b5b50505050565b600073ffffffffffffffffffffffffffffffffffffffff168373ffffffffffffffffffffffffffffffffffffffff16036112b5576040517f08c379a00000000000000000000000000000000000000000000000000000000081526004016112ac90612408565b60405180910390fd5b600073ffffffffffffffffffffffffffffffffffffffff168273ffffffffffffffffffffffffffffffffffffffff1603611324576040517f08c379a000000000000000000000000000000000000000000000000000000000815260040161131b9061249a565b60405180910390fd5b61132f838383611612565b60008060008573ffffffffffffffffffffffffffffffffffffffff1673ffffffffffffffffffffffffffffffffffffffff168152602001908152602001600020549050818110156113b5576040517f08c379a00000000000000000000000000000000000000000000000000000000081526004016113ac9061252c565b60405180910390fd5b8181036000808673ffffffffffffffffffffffffffffffffffffffff1673ffffffffffffffffffffffffffffffffffffffff16815260200190815260200160002081905550816000808573ffffffffffffffffffffffffffffffffffffffff1673ffffffffffffffffffffffffffffffffffffffff168152602001908152602001600020600082825401925050819055508273ffffffffffffffffffffffffffffffffffffffff168473ffffffffffffffffffffffffffffffffffffffff167fddf252ad1be2c89b69c2b068fc378daa952ba7f163c4a11628f55a4df523b3ef846040516114a391906118bc565b60405180910390a36114b6848484611617565b50505050565b600073ffffffffffffffffffffffffffffffffffffffff168273ffffffffffffffffffffffffffffffffffffffff160361152b576040517f08c379a000000000000000000000000000000000000000000000000000000000815260040161152290612598565b60405180910390fd5b61153760008383611612565b80600260008282546115499190611dd5565b92505081905550806000808473ffffffffffffffffffffffffffffffffffffffff1673ffffffffffffffffffffffffffffffffffffffff168152602001908152602001600020600082825401925050819055508173ffffffffffffffffffffffffffffffffffffffff16600073ffffffffffffffffffffffffffffffffffffffff167fddf252ad1be2c89b69c2b068fc378daa952ba7f163c4a11628f55a4df523b3ef836040516115fa91906118bc565b60405180910390a361160e60008383611617565b5050565b505050565b505050565b6040518060a0016040528060608152602001606081526020016000815260200160008152602001600081525090565b600081519050919050565b600082825260208201905092915050565b60005b8381101561168557808201518184015260208101905061166a565b60008484015250505050565b6000601f19601f8301169050919050565b60006116ad8261164b565b6116b78185611656565b93506116c7818560208601611667565b6116d081611691565b840191505092915050565b600060208201905081810360008301526116f581846116a2565b905092915050565b6000604051905090565b600080fd5b600080fd5b600073ffffffffffffffffffffffffffffffffffffffff82169050919050565b600061173c82611711565b9050919050565b61174c81611731565b811461175757600080fd5b50565b60008135905061176981611743565b92915050565b6000819050919050565b6117828161176f565b811461178d57600080fd5b50565b60008135905061179f81611779565b92915050565b600080604083850312156117bc576117bb611707565b5b60006117ca8582860161175a565b92505060206117db85828601611790565b9150509250929050565b60008115159050919050565b6117fa816117e5565b82525050565b600060208201905061181560008301846117f1565b92915050565b7f4e487b7100000000000000000000000000000000000000000000000000000000600052602160045260246000fd5b6003811061185b5761185a61181b565b5b50565b600081905061186c8261184a565b919050565b600061187c8261185e565b9050919050565b61188c81611871565b82525050565b60006020820190506118a76000830184611883565b92915050565b6118b68161176f565b82525050565b60006020820190506118d160008301846118ad565b92915050565b6000806000606084860312156118f0576118ef611707565b5b60006118fe8682870161175a565b935050602061190f8682870161175a565b925050604061192086828701611790565b9150509250925092565b6000602082840312156119405761193f611707565b5b600061194e84828501611790565b91505092915050565b600060a082019050818103600083015261197181886116a2565b9050818103602083015261198581876116a2565b905061199460408301866118ad565b6119a160608301856118ad565b6119ae60808301846118ad565b9695505050505050565b600060ff82169050919050565b6119ce816119b8565b82525050565b60006020820190506119e960008301846119c5565b92915050565b600060208284031215611a0557611a04611707565b5b6000611a138482850161175a565b91505092915050565b611a2581611731565b82525050565b6000602082019050611a406000830184611a1c565b92915050565b6000611a5182611711565b9050919050565b611a6181611a46565b82525050565b6000602082019050611a7c6000830184611a58565b92915050565b600080fd5b600080fd5b7f4e487b7100000000000000000000000000000000000000000000000000000000600052604160045260246000fd5b611ac482611691565b810181811067ffffffffffffffff82111715611ae357611ae2611a8c565b5b80604052505050565b6000611af66116fd565b9050611b028282611abb565b919050565b600067ffffffffffffffff821115611b2257611b21611a8c565b5b611b2b82611691565b9050602081019050919050565b82818337600083830152505050565b6000611b5a611b5584611b07565b611aec565b905082815260208101848484011115611b7657611b75611a87565b5b611b81848285611b38565b509392505050565b600082601f830112611b9e57611b9d611a82565b5b8135611bae848260208601611b47565b91505092915050565b600080600080600060a08688031215611bd357611bd2611707565b5b600086013567ffffffffffffffff811115611bf157611bf061170c565b5b611bfd88828901611b89565b9550506020611c0e88828901611790565b9450506040611c1f88828901611790565b935050606086013567ffffffffffffffff811115611c4057611c3f61170c565b5b611c4c88828901611b89565b9250506080611c5d88828901611790565b9150509295509295909350565b60008060408385031215611c8157611c80611707565b5b600083013567ffffffffffffffff811115611c9f57611c9e61170c565b5b611cab85828601611b89565b9250506020611cbc85828601611790565b9150509250929050565b60008060408385031215611cdd57611cdc611707565b5b6000611ceb85828601611790565b9250506020611cfc85828601611790565b9150509250929050565b60008060408385031215611d1d57611d1c611707565b5b6000611d2b8582860161175a565b9250506020611d3c8582860161175a565b9150509250929050565b7f4e487b7100000000000000000000000000000000000000000000000000000000600052602260045260246000fd5b60006002820490506001821680611d8d57607f821691505b602082108103611da057611d9f611d46565b5b50919050565b7f4e487b7100000000000000000000000000000000000000000000000000000000600052601160045260246000fd5b6000611de08261176f565b9150611deb8361176f565b9250828201905080821115611e0357611e02611da6565b5b92915050565b60008190508160005260206000209050919050565b60006020601f8301049050919050565b600082821b905092915050565b600060088302611e6b7fffffffffffffffffffffffffffffffffffffffffffffffffffffffffffffffff82611e2e565b611e758683611e2e565b95508019841693508086168417925050509392505050565b6000819050919050565b6000611eb2611ead611ea88461176f565b611e8d565b61176f565b9050919050565b6000819050919050565b611ecc83611e97565b611ee0611ed882611eb9565b848454611e3b565b825550505050565b600090565b611ef5611ee8565b611f00818484611ec3565b505050565b5b81811015611f2457611f19600082611eed565b600181019050611f06565b5050565b601f821115611f6957611f3a81611e09565b611f4384611e1e565b81016020851015611f52578190505b611f66611f5e85611e1e565b830182611f05565b50505b505050565b600082821c905092915050565b6000611f8c60001984600802611f6e565b1980831691505092915050565b6000611fa58383611f7b565b9150826002028217905092915050565b611fbe8261164b565b67ffffffffffffffff811115611fd757611fd6611a8c565b5b611fe18254611d75565b611fec828285611f28565b600060209050601f83116001811461201f576000841561200d578287015190505b6120178582611f99565b86555061207f565b601f19841661202d86611e09565b60005b8281101561205557848901518255600182019150602085019450602081019050612030565b86831015612072578489015161206e601f891682611f7b565b8355505b6001600288020188555050505b505050505050565b60006120928261176f565b91507fffffffffffffffffffffffffffffffffffffffffffffffffffffffffffffffff82036120c4576120c3611da6565b5b600182019050919050565b7f45524332303a2064656372656173656420616c6c6f77616e63652062656c6f7760008201527f207a65726f000000000000000000000000000000000000000000000000000000602082015250565b600061212b602583611656565b9150612136826120cf565b604082019050919050565b6000602082019050818103600083015261215a8161211e565b9050919050565b7f4e487b7100000000000000000000000000000000000000000000000000000000600052603260045260246000fd5b600061219b8261176f565b91506121a68361176f565b92508282026121b48161176f565b915082820484148315176121cb576121ca611da6565b5b5092915050565b60006121dd8261176f565b91506121e88361176f565b9250828203905081811115612200576121ff611da6565b5b92915050565b7f45524332303a20617070726f76652066726f6d20746865207a65726f2061646460008201527f7265737300000000000000000000000000000000000000000000000000000000602082015250565b6000612262602483611656565b915061226d82612206565b604082019050919050565b6000602082019050818103600083015261229181612255565b9050919050565b7f45524332303a20617070726f766520746f20746865207a65726f20616464726560008201527f7373000000000000000000000000000000000000000000000000000000000000602082015250565b60006122f4602283611656565b91506122ff82612298565b604082019050919050565b60006020820190508181036000830152612323816122e7565b9050919050565b7f45524332303a20696e73756666696369656e7420616c6c6f77616e6365000000600082015250565b6000612360601d83611656565b915061236b8261232a565b602082019050919050565b6000602082019050818103600083015261238f81612353565b9050919050565b7f45524332303a207472616e736665722066726f6d20746865207a65726f20616460008201527f6472657373000000000000000000000000000000000000000000000000000000602082015250565b60006123f2602583611656565b91506123fd82612396565b604082019050919050565b60006020820190508181036000830152612421816123e5565b9050919050565b7f45524332303a207472616e7366657220746f20746865207a65726f206164647260008201527f6573730000000000000000000000000000000000000000000000000000000000602082015250565b6000612484602383611656565b915061248f82612428565b604082019050919050565b600060208201905081810360008301526124b381612477565b9050919050565b7f45524332303a207472616e7366657220616d6f756e742065786365656473206260008201527f616c616e63650000000000000000000000000000000000000000000000000000602082015250565b6000612516602683611656565b9150612521826124ba565b604082019050919050565b6000602082019050818103600083015261254581612509565b9050919050565b7f45524332303a206d696e7420746f20746865207a65726f206164647265737300600082015250565b6000612582601f83611656565b915061258d8261254c565b602082019050919050565b600060208201905081810360008301526125b181612575565b905091905056fea2646970667358221220ea2c8f1271011b0c86650296a37ecbe72d98e710b94b1bbd507ddd5670f059d764736f6c634300081100335468652061646472657373206f6620746865206372656174656420636f6e74726163742069733a20a2646970667358221220ef29d9263554a8486416014bb3f2b7d50cee5917484dbe244f9abef094b2443764736f6c63430008110033",
  "linkReferences": {},
  "deployedLinkReferences": {}
}